{"contracts/NFT_ERC20.sol":{"NFTDutchAuction_ERC20Bids":{"abi":[{"anonymous":false,"inputs":[{"indexed":false,"internalType":"address","name":"previousAdmin","type":"address"},{"indexed":false,"internalType":"address","name":"newAdmin","type":"address"}],"name":"AdminChanged","type":"event"},{"anonymous":false,"inputs":[{"indexed":true,"internalType":"address","name":"beacon","type":"address"}],"name":"BeaconUpgraded","type":"event"},{"anonymous":false,"inputs":[{"indexed":false,"internalType":"uint8","name":"version","type":"uint8"}],"name":"Initialized","type":"event"},{"anonymous":false,"inputs":[{"indexed":true,"internalType":"address","name":"previousOwner","type":"address"},{"indexed":true,"internalType":"address","name":"newOwner","type":"address"}],"name":"OwnershipTransferred","type":"event"},{"anonymous":false,"inputs":[{"indexed":true,"internalType":"address","name":"implementation","type":"address"}],"name":"Upgraded","type":"event"},{"inputs":[],"name":"auctionEnded","outputs":[{"internalType":"bool","name":"","type":"bool"}],"stateMutability":"view","type":"function"},{"inputs":[{"internalType":"uint256","name":"bidAmount","type":"uint256"}],"name":"bid","outputs":[{"internalType":"address","name":"","type":"address"}],"stateMutability":"nonpayable","type":"function"},{"inputs":[{"internalType":"address","name":"","type":"address"}],"name":"bidderTokens","outputs":[{"internalType":"uint256","name":"","type":"uint256"}],"stateMutability":"view","type":"function"},{"inputs":[{"internalType":"uint256","name":"","type":"uint256"}],"name":"bidders","outputs":[{"internalType":"address","name":"","type":"address"}],"stateMutability":"view","type":"function"},{"inputs":[],"name":"endsAtBlockNumber","outputs":[{"internalType":"uint256","name":"","type":"uint256"}],"stateMutability":"view","type":"function"},{"inputs":[],"name":"erc20TokenReference","outputs":[{"internalType":"contract IERC20","name":"","type":"address"}],"stateMutability":"view","type":"function"},{"inputs":[],"name":"finalPrice","outputs":[{"internalType":"uint256","name":"","type":"uint256"}],"stateMutability":"view","type":"function"},{"inputs":[],"name":"getCurrentPrice","outputs":[{"internalType":"uint256","name":"","type":"uint256"}],"stateMutability":"view","type":"function"},{"inputs":[],"name":"initialPrice","outputs":[{"internalType":"uint256","name":"","type":"uint256"}],"stateMutability":"view","type":"function"},{"inputs":[{"internalType":"address","name":"erc20TokenAddress","type":"address"},{"internalType":"address","name":"erc721TokenAddress","type":"address"},{"internalType":"uint256","name":"_nftTokenId","type":"uint256"},{"internalType":"uint256","name":"_reservePrice","type":"uint256"},{"internalType":"uint256","name":"_numBlocksAuctionOpen","type":"uint256"},{"internalType":"uint256","name":"_offerPriceDecrement","type":"uint256"}],"name":"initialize","outputs":[],"stateMutability":"nonpayable","type":"function"},{"inputs":[],"name":"nftTokenId","outputs":[{"internalType":"uint256","name":"","type":"uint256"}],"stateMutability":"view","type":"function"},{"inputs":[],"name":"nfterc721Reference","outputs":[{"internalType":"contract IERC721","name":"","type":"address"}],"stateMutability":"view","type":"function"},{"inputs":[],"name":"numBlocksAuctionOpen","outputs":[{"internalType":"uint256","name":"","type":"uint256"}],"stateMutability":"view","type":"function"},{"inputs":[],"name":"offerPriceDecrement","outputs":[{"internalType":"uint256","name":"","type":"uint256"}],"stateMutability":"view","type":"function"},{"inputs":[],"name":"owner","outputs":[{"internalType":"address","name":"","type":"address"}],"stateMutability":"view","type":"function"},{"inputs":[],"name":"proxiableUUID","outputs":[{"internalType":"bytes32","name":"","type":"bytes32"}],"stateMutability":"view","type":"function"},{"inputs":[],"name":"renounceOwnership","outputs":[],"stateMutability":"nonpayable","type":"function"},{"inputs":[],"name":"reservePrice","outputs":[{"internalType":"uint256","name":"","type":"uint256"}],"stateMutability":"view","type":"function"},{"inputs":[],"name":"startAtBlockNumber","outputs":[{"internalType":"uint256","name":"","type":"uint256"}],"stateMutability":"view","type":"function"},{"inputs":[],"name":"totalBidTokens","outputs":[{"internalType":"uint256","name":"","type":"uint256"}],"stateMutability":"view","type":"function"},{"inputs":[{"internalType":"address","name":"newOwner","type":"address"}],"name":"transferOwnership","outputs":[],"stateMutability":"nonpayable","type":"function"},{"inputs":[],"name":"upgradeNumber","outputs":[{"internalType":"string","name":"","type":"string"}],"stateMutability":"view","type":"function"},{"inputs":[{"internalType":"address","name":"newImplementation","type":"address"}],"name":"upgradeTo","outputs":[],"stateMutability":"nonpayable","type":"function"},{"inputs":[{"internalType":"address","name":"newImplementation","type":"address"},{"internalType":"bytes","name":"data","type":"bytes"}],"name":"upgradeToAndCall","outputs":[],"stateMutability":"payable","type":"function"}],"evm":{"bytecode":{"linkReferences":{},"object":"60a06040523073ffffffffffffffffffffffffffffffffffffffff1660809073ffffffffffffffffffffffffffffffffffffffff1681525034801561004357600080fd5b50608051612e9b61007b600039600081816105b10152818161063f01528181610d7801528181610e060152610eb60152612e9b6000f3fe60806040526004361061014b5760003560e01c806386433374116100b6578063d3642a881161006f578063d3642a8814610465578063db2e1eed14610490578063eb0d1e92146104bb578063eb8bf84d146104e6578063eb91d37e14610511578063f2fde38b1461053c5761014b565b8063864333741461035357806386489ba91461037e5780638da5cb5b146103a7578063a6b513ee146103d2578063a7b7dcfd146103fd578063cff29dfd146104285761014b565b8063454a2ab311610108578063454a2ab3146102625780634f1ef2861461029f57806352d1902d146102bb57806356eeb3b0146102e6578063715018a6146103115780637e830574146103285761014b565b80630c298750146101505780631d0806ae1461017b57806330a01258146101a65780633103ea62146101e35780633659cfe61461020e5780634362237e14610237575b600080fd5b34801561015c57600080fd5b50610165610565565b6040516101729190611e33565b60405180910390f35b34801561018757600080fd5b5061019061058b565b60405161019d9190611e67565b60405180910390f35b3480156101b257600080fd5b506101cd60048036038101906101c89190611ed4565b610591565b6040516101da9190611e67565b60405180910390f35b3480156101ef57600080fd5b506101f86105a9565b6040516102059190611e67565b60405180910390f35b34801561021a57600080fd5b5061023560048036038101906102309190611ed4565b6105af565b005b34801561024357600080fd5b5061024c610737565b6040516102599190611e67565b60405180910390f35b34801561026e57600080fd5b5061028960048036038101906102849190611f2d565b61073d565b6040516102969190611f69565b60405180910390f35b6102b960048036038101906102b491906120ca565b610d76565b005b3480156102c757600080fd5b506102d0610eb2565b6040516102dd919061213f565b60405180910390f35b3480156102f257600080fd5b506102fb610f6b565b6040516103089190611e67565b60405180910390f35b34801561031d57600080fd5b50610326610f71565b005b34801561033457600080fd5b5061033d610f85565b60405161034a9190611e67565b60405180910390f35b34801561035f57600080fd5b50610368610f8b565b6040516103759190612175565b60405180910390f35b34801561038a57600080fd5b506103a560048036038101906103a09190612190565b610f9e565b005b3480156103b357600080fd5b506103bc611374565b6040516103c99190611f69565b60405180910390f35b3480156103de57600080fd5b506103e761139e565b6040516103f49190611e67565b60405180910390f35b34801561040957600080fd5b506104126113a4565b60405161041f9190611e67565b60405180910390f35b34801561043457600080fd5b5061044f600480360381019061044a9190611f2d565b6113aa565b60405161045c9190611f69565b60405180910390f35b34801561047157600080fd5b5061047a6113e9565b6040516104879190611e67565b60405180910390f35b34801561049c57600080fd5b506104a56113ef565b6040516104b29190611e67565b60405180910390f35b3480156104c757600080fd5b506104d06113f5565b6040516104dd919061223e565b60405180910390f35b3480156104f257600080fd5b506104fb61141b565b60405161050891906122d8565b60405180910390f35b34801561051d57600080fd5b506105266114a9565b6040516105339190611e67565b60405180910390f35b34801561054857600080fd5b50610563600480360381019061055e9190611ed4565b6115e8565b005b60ca60009054906101000a900473ffffffffffffffffffffffffffffffffffffffff1681565b60d25481565b60d46020528060005260406000206000915090505481565b60ce5481565b7f000000000000000000000000000000000000000000000000000000000000000073ffffffffffffffffffffffffffffffffffffffff163073ffffffffffffffffffffffffffffffffffffffff160361063d576040517f08c379a00000000000000000000000000000000000000000000000000000000081526004016106349061236c565b60405180910390fd5b7f000000000000000000000000000000000000000000000000000000000000000073ffffffffffffffffffffffffffffffffffffffff1661067c61166b565b73ffffffffffffffffffffffffffffffffffffffff16146106d2576040517f08c379a00000000000000000000000000000000000000000000000000000000081526004016106c9906123fe565b60405180910390fd5b6106db816116c2565b61073481600067ffffffffffffffff8111156106fa576106f9611f9f565b5b6040519080825280601f01601f19166020018201604052801561072c5781602001600182028036833780820191505090505b506000611709565b50565b60d65481565b600061075367e9153f922e8c8f9160c01b611877565b610767672044809a08acd66760c01b611877565b61077b671d0e589c3277b71860c01b611877565b61078f6729261c9138d05b8a60c01b611877565b60d760009054906101000a900460ff16156107df576040517f08c379a00000000000000000000000000000000000000000000000000000000081526004016107d69061246a565b60405180910390fd5b6107f3676dce8739a19c085a60c01b611877565b61080767c3b83e840cce373660c01b611877565b61081b67dc037b39bf6a24c460c01b611877565b60ce5460d0544361082c91906124b9565b111561087a5761084667cb131218c96a340160c01b611877565b61085a6777bf57066e4c5d7460c01b611877565b600160d760006101000a81548160ff02191690831515021790555061088f565b61088e6786885a9c50153bb260c01b611877565b5b6108a36766c301109fae151d60c01b611877565b6108b767bd248470c8591d6660c01b611877565b6108cb676acb397a9a7bccfc60c01b611877565b60ce5460d054436108dc91906124b9565b111561091d576040517f08c379a000000000000000000000000000000000000000000000000000000000815260040161091490612539565b60405180910390fd5b6109316755e2177619c29a2f60c01b611877565b61094567aa88037268ee291460c01b611877565b61095967e9f7f0c2d649a42660c01b611877565b600060d0544361096991906124b9565b905061097f674eda331b4329556e60c01b611877565b610993675d380c373c8eb0b760c01b611877565b6000600160cf54836109a59190612559565b6109af91906124b9565b60d2546109bc91906124b9565b90506109d2678a3a61bb7649368d60c01b611877565b6109e667bdaa67703cc65f2860c01b611877565b6109fa67792d4277fd0bf12760c01b611877565b80841015610a3d576040517f08c379a0000000000000000000000000000000000000000000000000000000008152600401610a34906125e7565b60405180910390fd5b610a51679148ee33678e933060c01b611877565b610a65672e7bad03a72bdfcc60c01b611877565b610a7967a0d6a364c37e80bd60c01b611877565b610a8d673269d3ab48fb376b60c01b611877565b60cb60009054906101000a900473ffffffffffffffffffffffffffffffffffffffff1673ffffffffffffffffffffffffffffffffffffffff1663dd62ed3e33306040518363ffffffff1660e01b8152600401610aea929190612607565b602060405180830381865afa158015610b07573d6000803e3d6000fd5b505050506040513d601f19601f82011682018060405250810190610b2b9190612645565b841115610b6d576040517f08c379a0000000000000000000000000000000000000000000000000000000008152600401610b649061270a565b60405180910390fd5b610b8167e7057830db47171160c01b611877565b610b9567b689ee48887a9f4d60c01b611877565b610ba967fc47f50b6107d2f660c01b611877565b60ca60009054906101000a900473ffffffffffffffffffffffffffffffffffffffff1673ffffffffffffffffffffffffffffffffffffffff166323b872dd610bef611374565b3360cc546040518463ffffffff1660e01b8152600401610c119392919061272a565b600060405180830381600087803b158015610c2b57600080fd5b505af1158015610c3f573d6000803e3d6000fd5b50505050610c576741b6da461c4bc9e760c01b611877565b610c6b67c84d0d57b4fd96d860c01b611877565b60cb60009054906101000a900473ffffffffffffffffffffffffffffffffffffffff1673ffffffffffffffffffffffffffffffffffffffff166323b872dd33610cb2611374565b876040518463ffffffff1660e01b8152600401610cd19392919061272a565b6020604051808303816000875af1158015610cf0573d6000803e3d6000fd5b505050506040513d601f19601f82011682018060405250810190610d14919061278d565b50610d29679a32275fddaa97bb60c01b611877565b600160d760006101000a81548160ff021916908315150217905550610d586705cb4147206ec11060c01b611877565b610d6c671573981008421c7f60c01b611877565b3392505050919050565b7f000000000000000000000000000000000000000000000000000000000000000073ffffffffffffffffffffffffffffffffffffffff163073ffffffffffffffffffffffffffffffffffffffff1603610e04576040517f08c379a0000000000000000000000000000000000000000000000000000000008152600401610dfb9061236c565b60405180910390fd5b7f000000000000000000000000000000000000000000000000000000000000000073ffffffffffffffffffffffffffffffffffffffff16610e4361166b565b73ffffffffffffffffffffffffffffffffffffffff1614610e99576040517f08c379a0000000000000000000000000000000000000000000000000000000008152600401610e90906123fe565b60405180910390fd5b610ea2826116c2565b610eae82826001611709565b5050565b60007f000000000000000000000000000000000000000000000000000000000000000073ffffffffffffffffffffffffffffffffffffffff163073ffffffffffffffffffffffffffffffffffffffff1614610f42576040517f08c379a0000000000000000000000000000000000000000000000000000000008152600401610f399061282c565b60405180910390fd5b7f360894a13ba1a3210667c828492db98dca3e2076cc3735a920a3ca505d382bbc60001b905090565b60d05481565b610f7961187a565b610f8360006118f8565b565b60cc5481565b60d760009054906101000a900460ff1681565b610fb26748c2c72008175db960c01b611877565b60008060019054906101000a900460ff16159050808015610fe35750600160008054906101000a900460ff1660ff16105b806110105750610ff2306119be565b15801561100f5750600160008054906101000a900460ff1660ff16145b5b61104f576040517f08c379a0000000000000000000000000000000000000000000000000000000008152600401611046906128be565b60405180910390fd5b60016000806101000a81548160ff021916908360ff160217905550801561108c576001600060016101000a81548160ff0219169083151502179055505b6110a0676a621963b806610260c01b611877565b6110b467d974fbc2424e4af760c01b611877565b6110c86762603bfed3f7a12060c01b611877565b6110dc67fc78d8dd5b0cb61960c01b611877565b6110e46119e1565b6110f867fc28a3a5864f818360c01b611877565b61110c67e886c9140b7fa51f60c01b611877565b611114611a3a565b61112867911c623e04ec706160c01b611877565b61113c67f4fab233cb1db52860c01b611877565b611145336118f8565b61115967d910523bbdca4e5860c01b611877565b8560ca60006101000a81548173ffffffffffffffffffffffffffffffffffffffff021916908373ffffffffffffffffffffffffffffffffffffffff1602179055506111ae6731e4e42b4b60c65460c01b611877565b8660cb60006101000a81548173ffffffffffffffffffffffffffffffffffffffff021916908373ffffffffffffffffffffffffffffffffffffffff16021790555061120367aa0e5849fdd0cfc560c01b611877565b8460cc8190555061121e671bbbdbe122e4603f60c01b611877565b8360cd819055506112396713222ebd22970a4760c01b611877565b8260ce81905550611254671aac2d3fb55ebd5660c01b611877565b8160cf8190555061126f6733f9906e89180c4a60c01b611877565b4360d08190555061128a6742b76290713dc31b60c01b611877565b60ce5460d05461129a91906128de565b60d1819055506112b4674e725f7aa316c1ea60c01b611877565b600160cf5460ce546112c69190612559565b6112d091906124b9565b60cd546112dd91906128de565b60d2819055506112f76711838d14fc8934f960c01b611877565b600060d760006101000a81548160ff021916908315150217905550801561136b5760008060016101000a81548160ff0219169083151502179055507f7f26b83ff96e1f2b6a682f133852f6798a09c465da95921460cefb38474024986001604051611362919061295a565b60405180910390a15b50505050505050565b6000603360009054906101000a900473ffffffffffffffffffffffffffffffffffffffff16905090565b60d35481565b60d15481565b60d581815481106113ba57600080fd5b906000526020600020016000915054906101000a900473ffffffffffffffffffffffffffffffffffffffff1681565b60cf5481565b60cd5481565b60cb60009054906101000a900473ffffffffffffffffffffffffffffffffffffffff1681565b60d88054611428906129a4565b80601f0160208091040260200160405190810160405280929190818152602001828054611454906129a4565b80156114a15780601f10611476576101008083540402835291602001916114a1565b820191906000526020600020905b81548152906001019060200180831161148457829003601f168201915b505050505081565b60006114bf674ac5ce98911f82df60c01b611877565b6114d36788fb0e6cab75bbec60c01b611877565b6114e76753a1b097579c32d760c01b611877565b600060d054436114f791906124b9565b905061150d6725adecf45e434e3a60c01b611877565b61152167a0b6e58366cf40e560c01b611877565b60ce5481106115715761153e675dfea2cf30771cd360c01b611877565b61155267decd30b269521d3060c01b611877565b61156667c8d150faf24b6eb760c01b611877565b60cd549150506115e5565b61158567dcec42b3cb6a9d5360c01b611877565b6115996758fa9c4244f7878860c01b611877565b6115ad675fcc4ffd3e32572260c01b611877565b60cf5460018260ce546115c091906124b9565b6115ca91906124b9565b6115d49190612559565b60cd546115e191906128de565b9150505b90565b6115f061187a565b600073ffffffffffffffffffffffffffffffffffffffff168173ffffffffffffffffffffffffffffffffffffffff160361165f576040517f08c379a000000000000000000000000000000000000000000000000000000000815260040161165690612a47565b60405180910390fd5b611668816118f8565b50565b60006116997f360894a13ba1a3210667c828492db98dca3e2076cc3735a920a3ca505d382bbc60001b611a8b565b60000160009054906101000a900473ffffffffffffffffffffffffffffffffffffffff16905090565b6116d667f013ab7ace869a1060c01b611877565b6116de61187a565b6116f26706919cb6e51b606b60c01b611877565b611706677a4c75db93c34d1460c01b611877565b50565b6117357f4910fdfa16fed3260ed0e7147f7cc6da11a60208b5b9406d12a635614ffd914360001b611a95565b60000160009054906101000a900460ff16156117595761175483611a9f565b611872565b8273ffffffffffffffffffffffffffffffffffffffff166352d1902d6040518163ffffffff1660e01b8152600401602060405180830381865afa9250505080156117c157506040513d601f19601f820116820180604052508101906117be9190612a93565b60015b611800576040517f08c379a00000000000000000000000000000000000000000000000000000000081526004016117f790612b32565b60405180910390fd5b7f360894a13ba1a3210667c828492db98dca3e2076cc3735a920a3ca505d382bbc60001b8114611865576040517f08c379a000000000000000000000000000000000000000000000000000000000815260040161185c90612bc4565b60405180910390fd5b50611871838383611b58565b5b505050565b50565b611882611b84565b73ffffffffffffffffffffffffffffffffffffffff166118a0611374565b73ffffffffffffffffffffffffffffffffffffffff16146118f6576040517f08c379a00000000000000000000000000000000000000000000000000000000081526004016118ed90612c30565b60405180910390fd5b565b6000603360009054906101000a900473ffffffffffffffffffffffffffffffffffffffff16905081603360006101000a81548173ffffffffffffffffffffffffffffffffffffffff021916908373ffffffffffffffffffffffffffffffffffffffff1602179055508173ffffffffffffffffffffffffffffffffffffffff168173ffffffffffffffffffffffffffffffffffffffff167f8be0079c531659141344cd1fd0a4f28419497f9722a3daafe3b4186f6b6457e060405160405180910390a35050565b6000808273ffffffffffffffffffffffffffffffffffffffff163b119050919050565b600060019054906101000a900460ff16611a30576040517f08c379a0000000000000000000000000000000000000000000000000000000008152600401611a2790612cc2565b60405180910390fd5b611a38611b8c565b565b600060019054906101000a900460ff16611a89576040517f08c379a0000000000000000000000000000000000000000000000000000000008152600401611a8090612cc2565b60405180910390fd5b565b6000819050919050565b6000819050919050565b611aa8816119be565b611ae7576040517f08c379a0000000000000000000000000000000000000000000000000000000008152600401611ade90612d54565b60405180910390fd5b80611b147f360894a13ba1a3210667c828492db98dca3e2076cc3735a920a3ca505d382bbc60001b611a8b565b60000160006101000a81548173ffffffffffffffffffffffffffffffffffffffff021916908373ffffffffffffffffffffffffffffffffffffffff16021790555050565b611b6183611bed565b600082511180611b6e5750805b15611b7f57611b7d8383611c3c565b505b505050565b600033905090565b600060019054906101000a900460ff16611bdb576040517f08c379a0000000000000000000000000000000000000000000000000000000008152600401611bd290612cc2565b60405180910390fd5b611beb611be6611b84565b6118f8565b565b611bf681611a9f565b8073ffffffffffffffffffffffffffffffffffffffff167fbc7cd75a20ee27fd9adebab32041f755214dbc6bffa90cc0225b39da2e5c2d3b60405160405180910390a250565b6060611c618383604051806060016040528060278152602001612e3f60279139611c69565b905092915050565b60606000808573ffffffffffffffffffffffffffffffffffffffff1685604051611c939190612dbb565b600060405180830381855af49150503d8060008114611cce576040519150601f19603f3d011682016040523d82523d6000602084013e611cd3565b606091505b5091509150611ce486838387611cef565b925050509392505050565b60608315611d51576000835103611d4957611d09856119be565b611d48576040517f08c379a0000000000000000000000000000000000000000000000000000000008152600401611d3f90612e1e565b60405180910390fd5b5b829050611d5c565b611d5b8383611d64565b5b949350505050565b600082511115611d775781518083602001fd5b806040517f08c379a0000000000000000000000000000000000000000000000000000000008152600401611dab91906122d8565b60405180910390fd5b600073ffffffffffffffffffffffffffffffffffffffff82169050919050565b6000819050919050565b6000611df9611df4611def84611db4565b611dd4565b611db4565b9050919050565b6000611e0b82611dde565b9050919050565b6000611e1d82611e00565b9050919050565b611e2d81611e12565b82525050565b6000602082019050611e486000830184611e24565b92915050565b6000819050919050565b611e6181611e4e565b82525050565b6000602082019050611e7c6000830184611e58565b92915050565b6000604051905090565b600080fd5b600080fd5b6000611ea182611db4565b9050919050565b611eb181611e96565b8114611ebc57600080fd5b50565b600081359050611ece81611ea8565b92915050565b600060208284031215611eea57611ee9611e8c565b5b6000611ef884828501611ebf565b91505092915050565b611f0a81611e4e565b8114611f1557600080fd5b50565b600081359050611f2781611f01565b92915050565b600060208284031215611f4357611f42611e8c565b5b6000611f5184828501611f18565b91505092915050565b611f6381611e96565b82525050565b6000602082019050611f7e6000830184611f5a565b92915050565b600080fd5b600080fd5b6000601f19601f8301169050919050565b7f4e487b7100000000000000000000000000000000000000000000000000000000600052604160045260246000fd5b611fd782611f8e565b810181811067ffffffffffffffff82111715611ff657611ff5611f9f565b5b80604052505050565b6000612009611e82565b90506120158282611fce565b919050565b600067ffffffffffffffff82111561203557612034611f9f565b5b61203e82611f8e565b9050602081019050919050565b82818337600083830152505050565b600061206d6120688461201a565b611fff565b90508281526020810184848401111561208957612088611f89565b5b61209484828561204b565b509392505050565b600082601f8301126120b1576120b0611f84565b5b81356120c184826020860161205a565b91505092915050565b600080604083850312156120e1576120e0611e8c565b5b60006120ef85828601611ebf565b925050602083013567ffffffffffffffff8111156121105761210f611e91565b5b61211c8582860161209c565b9150509250929050565b6000819050919050565b61213981612126565b82525050565b60006020820190506121546000830184612130565b92915050565b60008115159050919050565b61216f8161215a565b82525050565b600060208201905061218a6000830184612166565b92915050565b60008060008060008060c087890312156121ad576121ac611e8c565b5b60006121bb89828a01611ebf565b96505060206121cc89828a01611ebf565b95505060406121dd89828a01611f18565b94505060606121ee89828a01611f18565b93505060806121ff89828a01611f18565b92505060a061221089828a01611f18565b9150509295509295509295565b600061222882611e00565b9050919050565b6122388161221d565b82525050565b6000602082019050612253600083018461222f565b92915050565b600081519050919050565b600082825260208201905092915050565b60005b83811015612293578082015181840152602081019050612278565b60008484015250505050565b60006122aa82612259565b6122b48185612264565b93506122c4818560208601612275565b6122cd81611f8e565b840191505092915050565b600060208201905081810360008301526122f2818461229f565b905092915050565b7f46756e6374696f6e206d7573742062652063616c6c6564207468726f7567682060008201527f64656c656761746563616c6c0000000000000000000000000000000000000000602082015250565b6000612356602c83612264565b9150612361826122fa565b604082019050919050565b6000602082019050818103600083015261238581612349565b9050919050565b7f46756e6374696f6e206d7573742062652063616c6c6564207468726f7567682060008201527f6163746976652070726f78790000000000000000000000000000000000000000602082015250565b60006123e8602c83612264565b91506123f38261238c565b604082019050919050565b60006020820190508181036000830152612417816123db565b9050919050565b7f41756374696f6e2068617320616c726561647920656e64656400000000000000600082015250565b6000612454601983612264565b915061245f8261241e565b602082019050919050565b6000602082019050818103600083015261248381612447565b9050919050565b7f4e487b7100000000000000000000000000000000000000000000000000000000600052601160045260246000fd5b60006124c482611e4e565b91506124cf83611e4e565b92508282039050818111156124e7576124e661248a565b5b92915050565b7f41756374696f6e20456e64656400000000000000000000000000000000000000600082015250565b6000612523600d83612264565b915061252e826124ed565b602082019050919050565b6000602082019050818103600083015261255281612516565b9050919050565b600061256482611e4e565b915061256f83611e4e565b925082820261257d81611e4e565b915082820484148315176125945761259361248a565b5b5092915050565b7f5468652062696420616d6f756e742073656e7420697320746f6f206c6f770000600082015250565b60006125d1601e83612264565b91506125dc8261259b565b602082019050919050565b60006020820190508181036000830152612600816125c4565b9050919050565b600060408201905061261c6000830185611f5a565b6126296020830184611f5a565b9392505050565b60008151905061263f81611f01565b92915050565b60006020828403121561265b5761265a611e8c565b5b600061266984828501612630565b91505092915050565b7f42696420616d6f756e742061636365707465642c20627574206269642066616960008201527f6c65642062656361757365206e6f7420656e6f7567682062616c616e6365207460208201527f6f207472616e7366657220657263323020746f6b656e00000000000000000000604082015250565b60006126f4605683612264565b91506126ff82612672565b606082019050919050565b60006020820190508181036000830152612723816126e7565b9050919050565b600060608201905061273f6000830186611f5a565b61274c6020830185611f5a565b6127596040830184611e58565b949350505050565b61276a8161215a565b811461277557600080fd5b50565b60008151905061278781612761565b92915050565b6000602082840312156127a3576127a2611e8c565b5b60006127b184828501612778565b91505092915050565b7f555550535570677261646561626c653a206d757374206e6f742062652063616c60008201527f6c6564207468726f7567682064656c656761746563616c6c0000000000000000602082015250565b6000612816603883612264565b9150612821826127ba565b604082019050919050565b6000602082019050818103600083015261284581612809565b9050919050565b7f496e697469616c697a61626c653a20636f6e747261637420697320616c72656160008201527f647920696e697469616c697a6564000000000000000000000000000000000000602082015250565b60006128a8602e83612264565b91506128b38261284c565b604082019050919050565b600060208201905081810360008301526128d78161289b565b9050919050565b60006128e982611e4e565b91506128f483611e4e565b925082820190508082111561290c5761290b61248a565b5b92915050565b6000819050919050565b600060ff82169050919050565b600061294461293f61293a84612912565b611dd4565b61291c565b9050919050565b61295481612929565b82525050565b600060208201905061296f600083018461294b565b92915050565b7f4e487b7100000000000000000000000000000000000000000000000000000000600052602260045260246000fd5b600060028204905060018216806129bc57607f821691505b6020821081036129cf576129ce612975565b5b50919050565b7f4f776e61626c653a206e6577206f776e657220697320746865207a65726f206160008201527f6464726573730000000000000000000000000000000000000000000000000000602082015250565b6000612a31602683612264565b9150612a3c826129d5565b604082019050919050565b60006020820190508181036000830152612a6081612a24565b9050919050565b612a7081612126565b8114612a7b57600080fd5b50565b600081519050612a8d81612a67565b92915050565b600060208284031215612aa957612aa8611e8c565b5b6000612ab784828501612a7e565b91505092915050565b7f45524331393637557067726164653a206e657720696d706c656d656e7461746960008201527f6f6e206973206e6f742055555053000000000000000000000000000000000000602082015250565b6000612b1c602e83612264565b9150612b2782612ac0565b604082019050919050565b60006020820190508181036000830152612b4b81612b0f565b9050919050565b7f45524331393637557067726164653a20756e737570706f727465642070726f7860008201527f6961626c65555549440000000000000000000000000000000000000000000000602082015250565b6000612bae602983612264565b9150612bb982612b52565b604082019050919050565b60006020820190508181036000830152612bdd81612ba1565b9050919050565b7f4f776e61626c653a2063616c6c6572206973206e6f7420746865206f776e6572600082015250565b6000612c1a602083612264565b9150612c2582612be4565b602082019050919050565b60006020820190508181036000830152612c4981612c0d565b9050919050565b7f496e697469616c697a61626c653a20636f6e7472616374206973206e6f74206960008201527f6e697469616c697a696e67000000000000000000000000000000000000000000602082015250565b6000612cac602b83612264565b9150612cb782612c50565b604082019050919050565b60006020820190508181036000830152612cdb81612c9f565b9050919050565b7f455243313936373a206e657720696d706c656d656e746174696f6e206973206e60008201527f6f74206120636f6e747261637400000000000000000000000000000000000000602082015250565b6000612d3e602d83612264565b9150612d4982612ce2565b604082019050919050565b60006020820190508181036000830152612d6d81612d31565b9050919050565b600081519050919050565b600081905092915050565b6000612d9582612d74565b612d9f8185612d7f565b9350612daf818560208601612275565b80840191505092915050565b6000612dc78284612d8a565b915081905092915050565b7f416464726573733a2063616c6c20746f206e6f6e2d636f6e7472616374000000600082015250565b6000612e08601d83612264565b9150612e1382612dd2565b602082019050919050565b60006020820190508181036000830152612e3781612dfb565b905091905056fe416464726573733a206c6f772d6c6576656c2064656c65676174652063616c6c206661696c6564a2646970667358221220eda62b5c9d0dc239cdd1150629826e9ad5b48993d0e30c0d9d8c47de2918888b64736f6c63430008130033","opcodes":"PUSH1 0xA0 PUSH1 0x40 MSTORE ADDRESS PUSH20 0xFFFFFFFFFFFFFFFFFFFFFFFFFFFFFFFFFFFFFFFF AND PUSH1 0x80 SWAP1 PUSH20 0xFFFFFFFFFFFFFFFFFFFFFFFFFFFFFFFFFFFFFFFF AND DUP2 MSTORE POP CALLVALUE DUP1 ISZERO PUSH2 0x43 JUMPI PUSH1 0x0 DUP1 REVERT JUMPDEST POP PUSH1 0x80 MLOAD PUSH2 0x2E9B PUSH2 0x7B PUSH1 0x0 CODECOPY PUSH1 0x0 DUP2 DUP2 PUSH2 0x5B1 ADD MSTORE DUP2 DUP2 PUSH2 0x63F ADD MSTORE DUP2 DUP2 PUSH2 0xD78 ADD MSTORE DUP2 DUP2 PUSH2 0xE06 ADD MSTORE PUSH2 0xEB6 ADD MSTORE PUSH2 0x2E9B PUSH1 0x0 RETURN INVALID PUSH1 0x80 PUSH1 0x40 MSTORE PUSH1 0x4 CALLDATASIZE LT PUSH2 0x14B JUMPI PUSH1 0x0 CALLDATALOAD PUSH1 0xE0 SHR DUP1 PUSH4 0x86433374 GT PUSH2 0xB6 JUMPI DUP1 PUSH4 0xD3642A88 GT PUSH2 0x6F JUMPI DUP1 PUSH4 0xD3642A88 EQ PUSH2 0x465 JUMPI DUP1 PUSH4 0xDB2E1EED EQ PUSH2 0x490 JUMPI DUP1 PUSH4 0xEB0D1E92 EQ PUSH2 0x4BB JUMPI DUP1 PUSH4 0xEB8BF84D EQ PUSH2 0x4E6 JUMPI DUP1 PUSH4 0xEB91D37E EQ PUSH2 0x511 JUMPI DUP1 PUSH4 0xF2FDE38B EQ PUSH2 0x53C JUMPI PUSH2 0x14B JUMP JUMPDEST DUP1 PUSH4 0x86433374 EQ PUSH2 0x353 JUMPI DUP1 PUSH4 0x86489BA9 EQ PUSH2 0x37E JUMPI DUP1 PUSH4 0x8DA5CB5B EQ PUSH2 0x3A7 JUMPI DUP1 PUSH4 0xA6B513EE EQ PUSH2 0x3D2 JUMPI DUP1 PUSH4 0xA7B7DCFD EQ PUSH2 0x3FD JUMPI DUP1 PUSH4 0xCFF29DFD EQ PUSH2 0x428 JUMPI PUSH2 0x14B JUMP JUMPDEST DUP1 PUSH4 0x454A2AB3 GT PUSH2 0x108 JUMPI DUP1 PUSH4 0x454A2AB3 EQ PUSH2 0x262 JUMPI DUP1 PUSH4 0x4F1EF286 EQ PUSH2 0x29F JUMPI DUP1 PUSH4 0x52D1902D EQ PUSH2 0x2BB JUMPI DUP1 PUSH4 0x56EEB3B0 EQ PUSH2 0x2E6 JUMPI DUP1 PUSH4 0x715018A6 EQ PUSH2 0x311 JUMPI DUP1 PUSH4 0x7E830574 EQ PUSH2 0x328 JUMPI PUSH2 0x14B JUMP JUMPDEST DUP1 PUSH4 0xC298750 EQ PUSH2 0x150 JUMPI DUP1 PUSH4 0x1D0806AE EQ PUSH2 0x17B JUMPI DUP1 PUSH4 0x30A01258 EQ PUSH2 0x1A6 JUMPI DUP1 PUSH4 0x3103EA62 EQ PUSH2 0x1E3 JUMPI DUP1 PUSH4 0x3659CFE6 EQ PUSH2 0x20E JUMPI DUP1 PUSH4 0x4362237E EQ PUSH2 0x237 JUMPI JUMPDEST PUSH1 0x0 DUP1 REVERT JUMPDEST CALLVALUE DUP1 ISZERO PUSH2 0x15C JUMPI PUSH1 0x0 DUP1 REVERT JUMPDEST POP PUSH2 0x165 PUSH2 0x565 JUMP JUMPDEST PUSH1 0x40 MLOAD PUSH2 0x172 SWAP2 SWAP1 PUSH2 0x1E33 JUMP JUMPDEST PUSH1 0x40 MLOAD DUP1 SWAP2 SUB SWAP1 RETURN JUMPDEST CALLVALUE DUP1 ISZERO PUSH2 0x187 JUMPI PUSH1 0x0 DUP1 REVERT JUMPDEST POP PUSH2 0x190 PUSH2 0x58B JUMP JUMPDEST PUSH1 0x40 MLOAD PUSH2 0x19D SWAP2 SWAP1 PUSH2 0x1E67 JUMP JUMPDEST PUSH1 0x40 MLOAD DUP1 SWAP2 SUB SWAP1 RETURN JUMPDEST CALLVALUE DUP1 ISZERO PUSH2 0x1B2 JUMPI PUSH1 0x0 DUP1 REVERT JUMPDEST POP PUSH2 0x1CD PUSH1 0x4 DUP1 CALLDATASIZE SUB DUP2 ADD SWAP1 PUSH2 0x1C8 SWAP2 SWAP1 PUSH2 0x1ED4 JUMP JUMPDEST PUSH2 0x591 JUMP JUMPDEST PUSH1 0x40 MLOAD PUSH2 0x1DA SWAP2 SWAP1 PUSH2 0x1E67 JUMP JUMPDEST PUSH1 0x40 MLOAD DUP1 SWAP2 SUB SWAP1 RETURN JUMPDEST CALLVALUE DUP1 ISZERO PUSH2 0x1EF JUMPI PUSH1 0x0 DUP1 REVERT JUMPDEST POP PUSH2 0x1F8 PUSH2 0x5A9 JUMP JUMPDEST PUSH1 0x40 MLOAD PUSH2 0x205 SWAP2 SWAP1 PUSH2 0x1E67 JUMP JUMPDEST PUSH1 0x40 MLOAD DUP1 SWAP2 SUB SWAP1 RETURN JUMPDEST CALLVALUE DUP1 ISZERO PUSH2 0x21A JUMPI PUSH1 0x0 DUP1 REVERT JUMPDEST POP PUSH2 0x235 PUSH1 0x4 DUP1 CALLDATASIZE SUB DUP2 ADD SWAP1 PUSH2 0x230 SWAP2 SWAP1 PUSH2 0x1ED4 JUMP JUMPDEST PUSH2 0x5AF JUMP JUMPDEST STOP JUMPDEST CALLVALUE DUP1 ISZERO PUSH2 0x243 JUMPI PUSH1 0x0 DUP1 REVERT JUMPDEST POP PUSH2 0x24C PUSH2 0x737 JUMP JUMPDEST PUSH1 0x40 MLOAD PUSH2 0x259 SWAP2 SWAP1 PUSH2 0x1E67 JUMP JUMPDEST PUSH1 0x40 MLOAD DUP1 SWAP2 SUB SWAP1 RETURN JUMPDEST CALLVALUE DUP1 ISZERO PUSH2 0x26E JUMPI PUSH1 0x0 DUP1 REVERT JUMPDEST POP PUSH2 0x289 PUSH1 0x4 DUP1 CALLDATASIZE SUB DUP2 ADD SWAP1 PUSH2 0x284 SWAP2 SWAP1 PUSH2 0x1F2D JUMP JUMPDEST PUSH2 0x73D JUMP JUMPDEST PUSH1 0x40 MLOAD PUSH2 0x296 SWAP2 SWAP1 PUSH2 0x1F69 JUMP JUMPDEST PUSH1 0x40 MLOAD DUP1 SWAP2 SUB SWAP1 RETURN JUMPDEST PUSH2 0x2B9 PUSH1 0x4 DUP1 CALLDATASIZE SUB DUP2 ADD SWAP1 PUSH2 0x2B4 SWAP2 SWAP1 PUSH2 0x20CA JUMP JUMPDEST PUSH2 0xD76 JUMP JUMPDEST STOP JUMPDEST CALLVALUE DUP1 ISZERO PUSH2 0x2C7 JUMPI PUSH1 0x0 DUP1 REVERT JUMPDEST POP PUSH2 0x2D0 PUSH2 0xEB2 JUMP JUMPDEST PUSH1 0x40 MLOAD PUSH2 0x2DD SWAP2 SWAP1 PUSH2 0x213F JUMP JUMPDEST PUSH1 0x40 MLOAD DUP1 SWAP2 SUB SWAP1 RETURN JUMPDEST CALLVALUE DUP1 ISZERO PUSH2 0x2F2 JUMPI PUSH1 0x0 DUP1 REVERT JUMPDEST POP PUSH2 0x2FB PUSH2 0xF6B JUMP JUMPDEST PUSH1 0x40 MLOAD PUSH2 0x308 SWAP2 SWAP1 PUSH2 0x1E67 JUMP JUMPDEST PUSH1 0x40 MLOAD DUP1 SWAP2 SUB SWAP1 RETURN JUMPDEST CALLVALUE DUP1 ISZERO PUSH2 0x31D JUMPI PUSH1 0x0 DUP1 REVERT JUMPDEST POP PUSH2 0x326 PUSH2 0xF71 JUMP JUMPDEST STOP JUMPDEST CALLVALUE DUP1 ISZERO PUSH2 0x334 JUMPI PUSH1 0x0 DUP1 REVERT JUMPDEST POP PUSH2 0x33D PUSH2 0xF85 JUMP JUMPDEST PUSH1 0x40 MLOAD PUSH2 0x34A SWAP2 SWAP1 PUSH2 0x1E67 JUMP JUMPDEST PUSH1 0x40 MLOAD DUP1 SWAP2 SUB SWAP1 RETURN JUMPDEST CALLVALUE DUP1 ISZERO PUSH2 0x35F JUMPI PUSH1 0x0 DUP1 REVERT JUMPDEST POP PUSH2 0x368 PUSH2 0xF8B JUMP JUMPDEST PUSH1 0x40 MLOAD PUSH2 0x375 SWAP2 SWAP1 PUSH2 0x2175 JUMP JUMPDEST PUSH1 0x40 MLOAD DUP1 SWAP2 SUB SWAP1 RETURN JUMPDEST CALLVALUE DUP1 ISZERO PUSH2 0x38A JUMPI PUSH1 0x0 DUP1 REVERT JUMPDEST POP PUSH2 0x3A5 PUSH1 0x4 DUP1 CALLDATASIZE SUB DUP2 ADD SWAP1 PUSH2 0x3A0 SWAP2 SWAP1 PUSH2 0x2190 JUMP JUMPDEST PUSH2 0xF9E JUMP JUMPDEST STOP JUMPDEST CALLVALUE DUP1 ISZERO PUSH2 0x3B3 JUMPI PUSH1 0x0 DUP1 REVERT JUMPDEST POP PUSH2 0x3BC PUSH2 0x1374 JUMP JUMPDEST PUSH1 0x40 MLOAD PUSH2 0x3C9 SWAP2 SWAP1 PUSH2 0x1F69 JUMP JUMPDEST PUSH1 0x40 MLOAD DUP1 SWAP2 SUB SWAP1 RETURN JUMPDEST CALLVALUE DUP1 ISZERO PUSH2 0x3DE JUMPI PUSH1 0x0 DUP1 REVERT JUMPDEST POP PUSH2 0x3E7 PUSH2 0x139E JUMP JUMPDEST PUSH1 0x40 MLOAD PUSH2 0x3F4 SWAP2 SWAP1 PUSH2 0x1E67 JUMP JUMPDEST PUSH1 0x40 MLOAD DUP1 SWAP2 SUB SWAP1 RETURN JUMPDEST CALLVALUE DUP1 ISZERO PUSH2 0x409 JUMPI PUSH1 0x0 DUP1 REVERT JUMPDEST POP PUSH2 0x412 PUSH2 0x13A4 JUMP JUMPDEST PUSH1 0x40 MLOAD PUSH2 0x41F SWAP2 SWAP1 PUSH2 0x1E67 JUMP JUMPDEST PUSH1 0x40 MLOAD DUP1 SWAP2 SUB SWAP1 RETURN JUMPDEST CALLVALUE DUP1 ISZERO PUSH2 0x434 JUMPI PUSH1 0x0 DUP1 REVERT JUMPDEST POP PUSH2 0x44F PUSH1 0x4 DUP1 CALLDATASIZE SUB DUP2 ADD SWAP1 PUSH2 0x44A SWAP2 SWAP1 PUSH2 0x1F2D JUMP JUMPDEST PUSH2 0x13AA JUMP JUMPDEST PUSH1 0x40 MLOAD PUSH2 0x45C SWAP2 SWAP1 PUSH2 0x1F69 JUMP JUMPDEST PUSH1 0x40 MLOAD DUP1 SWAP2 SUB SWAP1 RETURN JUMPDEST CALLVALUE DUP1 ISZERO PUSH2 0x471 JUMPI PUSH1 0x0 DUP1 REVERT JUMPDEST POP PUSH2 0x47A PUSH2 0x13E9 JUMP JUMPDEST PUSH1 0x40 MLOAD PUSH2 0x487 SWAP2 SWAP1 PUSH2 0x1E67 JUMP JUMPDEST PUSH1 0x40 MLOAD DUP1 SWAP2 SUB SWAP1 RETURN JUMPDEST CALLVALUE DUP1 ISZERO PUSH2 0x49C JUMPI PUSH1 0x0 DUP1 REVERT JUMPDEST POP PUSH2 0x4A5 PUSH2 0x13EF JUMP JUMPDEST PUSH1 0x40 MLOAD PUSH2 0x4B2 SWAP2 SWAP1 PUSH2 0x1E67 JUMP JUMPDEST PUSH1 0x40 MLOAD DUP1 SWAP2 SUB SWAP1 RETURN JUMPDEST CALLVALUE DUP1 ISZERO PUSH2 0x4C7 JUMPI PUSH1 0x0 DUP1 REVERT JUMPDEST POP PUSH2 0x4D0 PUSH2 0x13F5 JUMP JUMPDEST PUSH1 0x40 MLOAD PUSH2 0x4DD SWAP2 SWAP1 PUSH2 0x223E JUMP JUMPDEST PUSH1 0x40 MLOAD DUP1 SWAP2 SUB SWAP1 RETURN JUMPDEST CALLVALUE DUP1 ISZERO PUSH2 0x4F2 JUMPI PUSH1 0x0 DUP1 REVERT JUMPDEST POP PUSH2 0x4FB PUSH2 0x141B JUMP JUMPDEST PUSH1 0x40 MLOAD PUSH2 0x508 SWAP2 SWAP1 PUSH2 0x22D8 JUMP JUMPDEST PUSH1 0x40 MLOAD DUP1 SWAP2 SUB SWAP1 RETURN JUMPDEST CALLVALUE DUP1 ISZERO PUSH2 0x51D JUMPI PUSH1 0x0 DUP1 REVERT JUMPDEST POP PUSH2 0x526 PUSH2 0x14A9 JUMP JUMPDEST PUSH1 0x40 MLOAD PUSH2 0x533 SWAP2 SWAP1 PUSH2 0x1E67 JUMP JUMPDEST PUSH1 0x40 MLOAD DUP1 SWAP2 SUB SWAP1 RETURN JUMPDEST CALLVALUE DUP1 ISZERO PUSH2 0x548 JUMPI PUSH1 0x0 DUP1 REVERT JUMPDEST POP PUSH2 0x563 PUSH1 0x4 DUP1 CALLDATASIZE SUB DUP2 ADD SWAP1 PUSH2 0x55E SWAP2 SWAP1 PUSH2 0x1ED4 JUMP JUMPDEST PUSH2 0x15E8 JUMP JUMPDEST STOP JUMPDEST PUSH1 0xCA PUSH1 0x0 SWAP1 SLOAD SWAP1 PUSH2 0x100 EXP SWAP1 DIV PUSH20 0xFFFFFFFFFFFFFFFFFFFFFFFFFFFFFFFFFFFFFFFF AND DUP2 JUMP JUMPDEST PUSH1 0xD2 SLOAD DUP2 JUMP JUMPDEST PUSH1 0xD4 PUSH1 0x20 MSTORE DUP1 PUSH1 0x0 MSTORE PUSH1 0x40 PUSH1 0x0 KECCAK256 PUSH1 0x0 SWAP2 POP SWAP1 POP SLOAD DUP2 JUMP JUMPDEST PUSH1 0xCE SLOAD DUP2 JUMP JUMPDEST PUSH32 0x0 PUSH20 0xFFFFFFFFFFFFFFFFFFFFFFFFFFFFFFFFFFFFFFFF AND ADDRESS PUSH20 0xFFFFFFFFFFFFFFFFFFFFFFFFFFFFFFFFFFFFFFFF AND SUB PUSH2 0x63D JUMPI PUSH1 0x40 MLOAD PUSH32 0x8C379A000000000000000000000000000000000000000000000000000000000 DUP2 MSTORE PUSH1 0x4 ADD PUSH2 0x634 SWAP1 PUSH2 0x236C JUMP JUMPDEST PUSH1 0x40 MLOAD DUP1 SWAP2 SUB SWAP1 REVERT JUMPDEST PUSH32 0x0 PUSH20 0xFFFFFFFFFFFFFFFFFFFFFFFFFFFFFFFFFFFFFFFF AND PUSH2 0x67C PUSH2 0x166B JUMP JUMPDEST PUSH20 0xFFFFFFFFFFFFFFFFFFFFFFFFFFFFFFFFFFFFFFFF AND EQ PUSH2 0x6D2 JUMPI PUSH1 0x40 MLOAD PUSH32 0x8C379A000000000000000000000000000000000000000000000000000000000 DUP2 MSTORE PUSH1 0x4 ADD PUSH2 0x6C9 SWAP1 PUSH2 0x23FE JUMP JUMPDEST PUSH1 0x40 MLOAD DUP1 SWAP2 SUB SWAP1 REVERT JUMPDEST PUSH2 0x6DB DUP2 PUSH2 0x16C2 JUMP JUMPDEST PUSH2 0x734 DUP2 PUSH1 0x0 PUSH8 0xFFFFFFFFFFFFFFFF DUP2 GT ISZERO PUSH2 0x6FA JUMPI PUSH2 0x6F9 PUSH2 0x1F9F JUMP JUMPDEST JUMPDEST PUSH1 0x40 MLOAD SWAP1 DUP1 DUP3 MSTORE DUP1 PUSH1 0x1F ADD PUSH1 0x1F NOT AND PUSH1 0x20 ADD DUP3 ADD PUSH1 0x40 MSTORE DUP1 ISZERO PUSH2 0x72C JUMPI DUP2 PUSH1 0x20 ADD PUSH1 0x1 DUP3 MUL DUP1 CALLDATASIZE DUP4 CALLDATACOPY DUP1 DUP3 ADD SWAP2 POP POP SWAP1 POP JUMPDEST POP PUSH1 0x0 PUSH2 0x1709 JUMP JUMPDEST POP JUMP JUMPDEST PUSH1 0xD6 SLOAD DUP2 JUMP JUMPDEST PUSH1 0x0 PUSH2 0x753 PUSH8 0xE9153F922E8C8F91 PUSH1 0xC0 SHL PUSH2 0x1877 JUMP JUMPDEST PUSH2 0x767 PUSH8 0x2044809A08ACD667 PUSH1 0xC0 SHL PUSH2 0x1877 JUMP JUMPDEST PUSH2 0x77B PUSH8 0x1D0E589C3277B718 PUSH1 0xC0 SHL PUSH2 0x1877 JUMP JUMPDEST PUSH2 0x78F PUSH8 0x29261C9138D05B8A PUSH1 0xC0 SHL PUSH2 0x1877 JUMP JUMPDEST PUSH1 0xD7 PUSH1 0x0 SWAP1 SLOAD SWAP1 PUSH2 0x100 EXP SWAP1 DIV PUSH1 0xFF AND ISZERO PUSH2 0x7DF JUMPI PUSH1 0x40 MLOAD PUSH32 0x8C379A000000000000000000000000000000000000000000000000000000000 DUP2 MSTORE PUSH1 0x4 ADD PUSH2 0x7D6 SWAP1 PUSH2 0x246A JUMP JUMPDEST PUSH1 0x40 MLOAD DUP1 SWAP2 SUB SWAP1 REVERT JUMPDEST PUSH2 0x7F3 PUSH8 0x6DCE8739A19C085A PUSH1 0xC0 SHL PUSH2 0x1877 JUMP JUMPDEST PUSH2 0x807 PUSH8 0xC3B83E840CCE3736 PUSH1 0xC0 SHL PUSH2 0x1877 JUMP JUMPDEST PUSH2 0x81B PUSH8 0xDC037B39BF6A24C4 PUSH1 0xC0 SHL PUSH2 0x1877 JUMP JUMPDEST PUSH1 0xCE SLOAD PUSH1 0xD0 SLOAD NUMBER PUSH2 0x82C SWAP2 SWAP1 PUSH2 0x24B9 JUMP JUMPDEST GT ISZERO PUSH2 0x87A JUMPI PUSH2 0x846 PUSH8 0xCB131218C96A3401 PUSH1 0xC0 SHL PUSH2 0x1877 JUMP JUMPDEST PUSH2 0x85A PUSH8 0x77BF57066E4C5D74 PUSH1 0xC0 SHL PUSH2 0x1877 JUMP JUMPDEST PUSH1 0x1 PUSH1 0xD7 PUSH1 0x0 PUSH2 0x100 EXP DUP2 SLOAD DUP2 PUSH1 0xFF MUL NOT AND SWAP1 DUP4 ISZERO ISZERO MUL OR SWAP1 SSTORE POP PUSH2 0x88F JUMP JUMPDEST PUSH2 0x88E PUSH8 0x86885A9C50153BB2 PUSH1 0xC0 SHL PUSH2 0x1877 JUMP JUMPDEST JUMPDEST PUSH2 0x8A3 PUSH8 0x66C301109FAE151D PUSH1 0xC0 SHL PUSH2 0x1877 JUMP JUMPDEST PUSH2 0x8B7 PUSH8 0xBD248470C8591D66 PUSH1 0xC0 SHL PUSH2 0x1877 JUMP JUMPDEST PUSH2 0x8CB PUSH8 0x6ACB397A9A7BCCFC PUSH1 0xC0 SHL PUSH2 0x1877 JUMP JUMPDEST PUSH1 0xCE SLOAD PUSH1 0xD0 SLOAD NUMBER PUSH2 0x8DC SWAP2 SWAP1 PUSH2 0x24B9 JUMP JUMPDEST GT ISZERO PUSH2 0x91D JUMPI PUSH1 0x40 MLOAD PUSH32 0x8C379A000000000000000000000000000000000000000000000000000000000 DUP2 MSTORE PUSH1 0x4 ADD PUSH2 0x914 SWAP1 PUSH2 0x2539 JUMP JUMPDEST PUSH1 0x40 MLOAD DUP1 SWAP2 SUB SWAP1 REVERT JUMPDEST PUSH2 0x931 PUSH8 0x55E2177619C29A2F PUSH1 0xC0 SHL PUSH2 0x1877 JUMP JUMPDEST PUSH2 0x945 PUSH8 0xAA88037268EE2914 PUSH1 0xC0 SHL PUSH2 0x1877 JUMP JUMPDEST PUSH2 0x959 PUSH8 0xE9F7F0C2D649A426 PUSH1 0xC0 SHL PUSH2 0x1877 JUMP JUMPDEST PUSH1 0x0 PUSH1 0xD0 SLOAD NUMBER PUSH2 0x969 SWAP2 SWAP1 PUSH2 0x24B9 JUMP JUMPDEST SWAP1 POP PUSH2 0x97F PUSH8 0x4EDA331B4329556E PUSH1 0xC0 SHL PUSH2 0x1877 JUMP JUMPDEST PUSH2 0x993 PUSH8 0x5D380C373C8EB0B7 PUSH1 0xC0 SHL PUSH2 0x1877 JUMP JUMPDEST PUSH1 0x0 PUSH1 0x1 PUSH1 0xCF SLOAD DUP4 PUSH2 0x9A5 SWAP2 SWAP1 PUSH2 0x2559 JUMP JUMPDEST PUSH2 0x9AF SWAP2 SWAP1 PUSH2 0x24B9 JUMP JUMPDEST PUSH1 0xD2 SLOAD PUSH2 0x9BC SWAP2 SWAP1 PUSH2 0x24B9 JUMP JUMPDEST SWAP1 POP PUSH2 0x9D2 PUSH8 0x8A3A61BB7649368D PUSH1 0xC0 SHL PUSH2 0x1877 JUMP JUMPDEST PUSH2 0x9E6 PUSH8 0xBDAA67703CC65F28 PUSH1 0xC0 SHL PUSH2 0x1877 JUMP JUMPDEST PUSH2 0x9FA PUSH8 0x792D4277FD0BF127 PUSH1 0xC0 SHL PUSH2 0x1877 JUMP JUMPDEST DUP1 DUP5 LT ISZERO PUSH2 0xA3D JUMPI PUSH1 0x40 MLOAD PUSH32 0x8C379A000000000000000000000000000000000000000000000000000000000 DUP2 MSTORE PUSH1 0x4 ADD PUSH2 0xA34 SWAP1 PUSH2 0x25E7 JUMP JUMPDEST PUSH1 0x40 MLOAD DUP1 SWAP2 SUB SWAP1 REVERT JUMPDEST PUSH2 0xA51 PUSH8 0x9148EE33678E9330 PUSH1 0xC0 SHL PUSH2 0x1877 JUMP JUMPDEST PUSH2 0xA65 PUSH8 0x2E7BAD03A72BDFCC PUSH1 0xC0 SHL PUSH2 0x1877 JUMP JUMPDEST PUSH2 0xA79 PUSH8 0xA0D6A364C37E80BD PUSH1 0xC0 SHL PUSH2 0x1877 JUMP JUMPDEST PUSH2 0xA8D PUSH8 0x3269D3AB48FB376B PUSH1 0xC0 SHL PUSH2 0x1877 JUMP JUMPDEST PUSH1 0xCB PUSH1 0x0 SWAP1 SLOAD SWAP1 PUSH2 0x100 EXP SWAP1 DIV PUSH20 0xFFFFFFFFFFFFFFFFFFFFFFFFFFFFFFFFFFFFFFFF AND PUSH20 0xFFFFFFFFFFFFFFFFFFFFFFFFFFFFFFFFFFFFFFFF AND PUSH4 0xDD62ED3E CALLER ADDRESS PUSH1 0x40 MLOAD DUP4 PUSH4 0xFFFFFFFF AND PUSH1 0xE0 SHL DUP2 MSTORE PUSH1 0x4 ADD PUSH2 0xAEA SWAP3 SWAP2 SWAP1 PUSH2 0x2607 JUMP JUMPDEST PUSH1 0x20 PUSH1 0x40 MLOAD DUP1 DUP4 SUB DUP2 DUP7 GAS STATICCALL ISZERO DUP1 ISZERO PUSH2 0xB07 JUMPI RETURNDATASIZE PUSH1 0x0 DUP1 RETURNDATACOPY RETURNDATASIZE PUSH1 0x0 REVERT JUMPDEST POP POP POP POP PUSH1 0x40 MLOAD RETURNDATASIZE PUSH1 0x1F NOT PUSH1 0x1F DUP3 ADD AND DUP3 ADD DUP1 PUSH1 0x40 MSTORE POP DUP2 ADD SWAP1 PUSH2 0xB2B SWAP2 SWAP1 PUSH2 0x2645 JUMP JUMPDEST DUP5 GT ISZERO PUSH2 0xB6D JUMPI PUSH1 0x40 MLOAD PUSH32 0x8C379A000000000000000000000000000000000000000000000000000000000 DUP2 MSTORE PUSH1 0x4 ADD PUSH2 0xB64 SWAP1 PUSH2 0x270A JUMP JUMPDEST PUSH1 0x40 MLOAD DUP1 SWAP2 SUB SWAP1 REVERT JUMPDEST PUSH2 0xB81 PUSH8 0xE7057830DB471711 PUSH1 0xC0 SHL PUSH2 0x1877 JUMP JUMPDEST PUSH2 0xB95 PUSH8 0xB689EE48887A9F4D PUSH1 0xC0 SHL PUSH2 0x1877 JUMP JUMPDEST PUSH2 0xBA9 PUSH8 0xFC47F50B6107D2F6 PUSH1 0xC0 SHL PUSH2 0x1877 JUMP JUMPDEST PUSH1 0xCA PUSH1 0x0 SWAP1 SLOAD SWAP1 PUSH2 0x100 EXP SWAP1 DIV PUSH20 0xFFFFFFFFFFFFFFFFFFFFFFFFFFFFFFFFFFFFFFFF AND PUSH20 0xFFFFFFFFFFFFFFFFFFFFFFFFFFFFFFFFFFFFFFFF AND PUSH4 0x23B872DD PUSH2 0xBEF PUSH2 0x1374 JUMP JUMPDEST CALLER PUSH1 0xCC SLOAD PUSH1 0x40 MLOAD DUP5 PUSH4 0xFFFFFFFF AND PUSH1 0xE0 SHL DUP2 MSTORE PUSH1 0x4 ADD PUSH2 0xC11 SWAP4 SWAP3 SWAP2 SWAP1 PUSH2 0x272A JUMP JUMPDEST PUSH1 0x0 PUSH1 0x40 MLOAD DUP1 DUP4 SUB DUP2 PUSH1 0x0 DUP8 DUP1 EXTCODESIZE ISZERO DUP1 ISZERO PUSH2 0xC2B JUMPI PUSH1 0x0 DUP1 REVERT JUMPDEST POP GAS CALL ISZERO DUP1 ISZERO PUSH2 0xC3F JUMPI RETURNDATASIZE PUSH1 0x0 DUP1 RETURNDATACOPY RETURNDATASIZE PUSH1 0x0 REVERT JUMPDEST POP POP POP POP PUSH2 0xC57 PUSH8 0x41B6DA461C4BC9E7 PUSH1 0xC0 SHL PUSH2 0x1877 JUMP JUMPDEST PUSH2 0xC6B PUSH8 0xC84D0D57B4FD96D8 PUSH1 0xC0 SHL PUSH2 0x1877 JUMP JUMPDEST PUSH1 0xCB PUSH1 0x0 SWAP1 SLOAD SWAP1 PUSH2 0x100 EXP SWAP1 DIV PUSH20 0xFFFFFFFFFFFFFFFFFFFFFFFFFFFFFFFFFFFFFFFF AND PUSH20 0xFFFFFFFFFFFFFFFFFFFFFFFFFFFFFFFFFFFFFFFF AND PUSH4 0x23B872DD CALLER PUSH2 0xCB2 PUSH2 0x1374 JUMP JUMPDEST DUP8 PUSH1 0x40 MLOAD DUP5 PUSH4 0xFFFFFFFF AND PUSH1 0xE0 SHL DUP2 MSTORE PUSH1 0x4 ADD PUSH2 0xCD1 SWAP4 SWAP3 SWAP2 SWAP1 PUSH2 0x272A JUMP JUMPDEST PUSH1 0x20 PUSH1 0x40 MLOAD DUP1 DUP4 SUB DUP2 PUSH1 0x0 DUP8 GAS CALL ISZERO DUP1 ISZERO PUSH2 0xCF0 JUMPI RETURNDATASIZE PUSH1 0x0 DUP1 RETURNDATACOPY RETURNDATASIZE PUSH1 0x0 REVERT JUMPDEST POP POP POP POP PUSH1 0x40 MLOAD RETURNDATASIZE PUSH1 0x1F NOT PUSH1 0x1F DUP3 ADD AND DUP3 ADD DUP1 PUSH1 0x40 MSTORE POP DUP2 ADD SWAP1 PUSH2 0xD14 SWAP2 SWAP1 PUSH2 0x278D JUMP JUMPDEST POP PUSH2 0xD29 PUSH8 0x9A32275FDDAA97BB PUSH1 0xC0 SHL PUSH2 0x1877 JUMP JUMPDEST PUSH1 0x1 PUSH1 0xD7 PUSH1 0x0 PUSH2 0x100 EXP DUP2 SLOAD DUP2 PUSH1 0xFF MUL NOT AND SWAP1 DUP4 ISZERO ISZERO MUL OR SWAP1 SSTORE POP PUSH2 0xD58 PUSH8 0x5CB4147206EC110 PUSH1 0xC0 SHL PUSH2 0x1877 JUMP JUMPDEST PUSH2 0xD6C PUSH8 0x1573981008421C7F PUSH1 0xC0 SHL PUSH2 0x1877 JUMP JUMPDEST CALLER SWAP3 POP POP POP SWAP2 SWAP1 POP JUMP JUMPDEST PUSH32 0x0 PUSH20 0xFFFFFFFFFFFFFFFFFFFFFFFFFFFFFFFFFFFFFFFF AND ADDRESS PUSH20 0xFFFFFFFFFFFFFFFFFFFFFFFFFFFFFFFFFFFFFFFF AND SUB PUSH2 0xE04 JUMPI PUSH1 0x40 MLOAD PUSH32 0x8C379A000000000000000000000000000000000000000000000000000000000 DUP2 MSTORE PUSH1 0x4 ADD PUSH2 0xDFB SWAP1 PUSH2 0x236C JUMP JUMPDEST PUSH1 0x40 MLOAD DUP1 SWAP2 SUB SWAP1 REVERT JUMPDEST PUSH32 0x0 PUSH20 0xFFFFFFFFFFFFFFFFFFFFFFFFFFFFFFFFFFFFFFFF AND PUSH2 0xE43 PUSH2 0x166B JUMP JUMPDEST PUSH20 0xFFFFFFFFFFFFFFFFFFFFFFFFFFFFFFFFFFFFFFFF AND EQ PUSH2 0xE99 JUMPI PUSH1 0x40 MLOAD PUSH32 0x8C379A000000000000000000000000000000000000000000000000000000000 DUP2 MSTORE PUSH1 0x4 ADD PUSH2 0xE90 SWAP1 PUSH2 0x23FE JUMP JUMPDEST PUSH1 0x40 MLOAD DUP1 SWAP2 SUB SWAP1 REVERT JUMPDEST PUSH2 0xEA2 DUP3 PUSH2 0x16C2 JUMP JUMPDEST PUSH2 0xEAE DUP3 DUP3 PUSH1 0x1 PUSH2 0x1709 JUMP JUMPDEST POP POP JUMP JUMPDEST PUSH1 0x0 PUSH32 0x0 PUSH20 0xFFFFFFFFFFFFFFFFFFFFFFFFFFFFFFFFFFFFFFFF AND ADDRESS PUSH20 0xFFFFFFFFFFFFFFFFFFFFFFFFFFFFFFFFFFFFFFFF AND EQ PUSH2 0xF42 JUMPI PUSH1 0x40 MLOAD PUSH32 0x8C379A000000000000000000000000000000000000000000000000000000000 DUP2 MSTORE PUSH1 0x4 ADD PUSH2 0xF39 SWAP1 PUSH2 0x282C JUMP JUMPDEST PUSH1 0x40 MLOAD DUP1 SWAP2 SUB SWAP1 REVERT JUMPDEST PUSH32 0x360894A13BA1A3210667C828492DB98DCA3E2076CC3735A920A3CA505D382BBC PUSH1 0x0 SHL SWAP1 POP SWAP1 JUMP JUMPDEST PUSH1 0xD0 SLOAD DUP2 JUMP JUMPDEST PUSH2 0xF79 PUSH2 0x187A JUMP JUMPDEST PUSH2 0xF83 PUSH1 0x0 PUSH2 0x18F8 JUMP JUMPDEST JUMP JUMPDEST PUSH1 0xCC SLOAD DUP2 JUMP JUMPDEST PUSH1 0xD7 PUSH1 0x0 SWAP1 SLOAD SWAP1 PUSH2 0x100 EXP SWAP1 DIV PUSH1 0xFF AND DUP2 JUMP JUMPDEST PUSH2 0xFB2 PUSH8 0x48C2C72008175DB9 PUSH1 0xC0 SHL PUSH2 0x1877 JUMP JUMPDEST PUSH1 0x0 DUP1 PUSH1 0x1 SWAP1 SLOAD SWAP1 PUSH2 0x100 EXP SWAP1 DIV PUSH1 0xFF AND ISZERO SWAP1 POP DUP1 DUP1 ISZERO PUSH2 0xFE3 JUMPI POP PUSH1 0x1 PUSH1 0x0 DUP1 SLOAD SWAP1 PUSH2 0x100 EXP SWAP1 DIV PUSH1 0xFF AND PUSH1 0xFF AND LT JUMPDEST DUP1 PUSH2 0x1010 JUMPI POP PUSH2 0xFF2 ADDRESS PUSH2 0x19BE JUMP JUMPDEST ISZERO DUP1 ISZERO PUSH2 0x100F JUMPI POP PUSH1 0x1 PUSH1 0x0 DUP1 SLOAD SWAP1 PUSH2 0x100 EXP SWAP1 DIV PUSH1 0xFF AND PUSH1 0xFF AND EQ JUMPDEST JUMPDEST PUSH2 0x104F JUMPI PUSH1 0x40 MLOAD PUSH32 0x8C379A000000000000000000000000000000000000000000000000000000000 DUP2 MSTORE PUSH1 0x4 ADD PUSH2 0x1046 SWAP1 PUSH2 0x28BE JUMP JUMPDEST PUSH1 0x40 MLOAD DUP1 SWAP2 SUB SWAP1 REVERT JUMPDEST PUSH1 0x1 PUSH1 0x0 DUP1 PUSH2 0x100 EXP DUP2 SLOAD DUP2 PUSH1 0xFF MUL NOT AND SWAP1 DUP4 PUSH1 0xFF AND MUL OR SWAP1 SSTORE POP DUP1 ISZERO PUSH2 0x108C JUMPI PUSH1 0x1 PUSH1 0x0 PUSH1 0x1 PUSH2 0x100 EXP DUP2 SLOAD DUP2 PUSH1 0xFF MUL NOT AND SWAP1 DUP4 ISZERO ISZERO MUL OR SWAP1 SSTORE POP JUMPDEST PUSH2 0x10A0 PUSH8 0x6A621963B8066102 PUSH1 0xC0 SHL PUSH2 0x1877 JUMP JUMPDEST PUSH2 0x10B4 PUSH8 0xD974FBC2424E4AF7 PUSH1 0xC0 SHL PUSH2 0x1877 JUMP JUMPDEST PUSH2 0x10C8 PUSH8 0x62603BFED3F7A120 PUSH1 0xC0 SHL PUSH2 0x1877 JUMP JUMPDEST PUSH2 0x10DC PUSH8 0xFC78D8DD5B0CB619 PUSH1 0xC0 SHL PUSH2 0x1877 JUMP JUMPDEST PUSH2 0x10E4 PUSH2 0x19E1 JUMP JUMPDEST PUSH2 0x10F8 PUSH8 0xFC28A3A5864F8183 PUSH1 0xC0 SHL PUSH2 0x1877 JUMP JUMPDEST PUSH2 0x110C PUSH8 0xE886C9140B7FA51F PUSH1 0xC0 SHL PUSH2 0x1877 JUMP JUMPDEST PUSH2 0x1114 PUSH2 0x1A3A JUMP JUMPDEST PUSH2 0x1128 PUSH8 0x911C623E04EC7061 PUSH1 0xC0 SHL PUSH2 0x1877 JUMP JUMPDEST PUSH2 0x113C PUSH8 0xF4FAB233CB1DB528 PUSH1 0xC0 SHL PUSH2 0x1877 JUMP JUMPDEST PUSH2 0x1145 CALLER PUSH2 0x18F8 JUMP JUMPDEST PUSH2 0x1159 PUSH8 0xD910523BBDCA4E58 PUSH1 0xC0 SHL PUSH2 0x1877 JUMP JUMPDEST DUP6 PUSH1 0xCA PUSH1 0x0 PUSH2 0x100 EXP DUP2 SLOAD DUP2 PUSH20 0xFFFFFFFFFFFFFFFFFFFFFFFFFFFFFFFFFFFFFFFF MUL NOT AND SWAP1 DUP4 PUSH20 0xFFFFFFFFFFFFFFFFFFFFFFFFFFFFFFFFFFFFFFFF AND MUL OR SWAP1 SSTORE POP PUSH2 0x11AE PUSH8 0x31E4E42B4B60C654 PUSH1 0xC0 SHL PUSH2 0x1877 JUMP JUMPDEST DUP7 PUSH1 0xCB PUSH1 0x0 PUSH2 0x100 EXP DUP2 SLOAD DUP2 PUSH20 0xFFFFFFFFFFFFFFFFFFFFFFFFFFFFFFFFFFFFFFFF MUL NOT AND SWAP1 DUP4 PUSH20 0xFFFFFFFFFFFFFFFFFFFFFFFFFFFFFFFFFFFFFFFF AND MUL OR SWAP1 SSTORE POP PUSH2 0x1203 PUSH8 0xAA0E5849FDD0CFC5 PUSH1 0xC0 SHL PUSH2 0x1877 JUMP JUMPDEST DUP5 PUSH1 0xCC DUP2 SWAP1 SSTORE POP PUSH2 0x121E PUSH8 0x1BBBDBE122E4603F PUSH1 0xC0 SHL PUSH2 0x1877 JUMP JUMPDEST DUP4 PUSH1 0xCD DUP2 SWAP1 SSTORE POP PUSH2 0x1239 PUSH8 0x13222EBD22970A47 PUSH1 0xC0 SHL PUSH2 0x1877 JUMP JUMPDEST DUP3 PUSH1 0xCE DUP2 SWAP1 SSTORE POP PUSH2 0x1254 PUSH8 0x1AAC2D3FB55EBD56 PUSH1 0xC0 SHL PUSH2 0x1877 JUMP JUMPDEST DUP2 PUSH1 0xCF DUP2 SWAP1 SSTORE POP PUSH2 0x126F PUSH8 0x33F9906E89180C4A PUSH1 0xC0 SHL PUSH2 0x1877 JUMP JUMPDEST NUMBER PUSH1 0xD0 DUP2 SWAP1 SSTORE POP PUSH2 0x128A PUSH8 0x42B76290713DC31B PUSH1 0xC0 SHL PUSH2 0x1877 JUMP JUMPDEST PUSH1 0xCE SLOAD PUSH1 0xD0 SLOAD PUSH2 0x129A SWAP2 SWAP1 PUSH2 0x28DE JUMP JUMPDEST PUSH1 0xD1 DUP2 SWAP1 SSTORE POP PUSH2 0x12B4 PUSH8 0x4E725F7AA316C1EA PUSH1 0xC0 SHL PUSH2 0x1877 JUMP JUMPDEST PUSH1 0x1 PUSH1 0xCF SLOAD PUSH1 0xCE SLOAD PUSH2 0x12C6 SWAP2 SWAP1 PUSH2 0x2559 JUMP JUMPDEST PUSH2 0x12D0 SWAP2 SWAP1 PUSH2 0x24B9 JUMP JUMPDEST PUSH1 0xCD SLOAD PUSH2 0x12DD SWAP2 SWAP1 PUSH2 0x28DE JUMP JUMPDEST PUSH1 0xD2 DUP2 SWAP1 SSTORE POP PUSH2 0x12F7 PUSH8 0x11838D14FC8934F9 PUSH1 0xC0 SHL PUSH2 0x1877 JUMP JUMPDEST PUSH1 0x0 PUSH1 0xD7 PUSH1 0x0 PUSH2 0x100 EXP DUP2 SLOAD DUP2 PUSH1 0xFF MUL NOT AND SWAP1 DUP4 ISZERO ISZERO MUL OR SWAP1 SSTORE POP DUP1 ISZERO PUSH2 0x136B JUMPI PUSH1 0x0 DUP1 PUSH1 0x1 PUSH2 0x100 EXP DUP2 SLOAD DUP2 PUSH1 0xFF MUL NOT AND SWAP1 DUP4 ISZERO ISZERO MUL OR SWAP1 SSTORE POP PUSH32 0x7F26B83FF96E1F2B6A682F133852F6798A09C465DA95921460CEFB3847402498 PUSH1 0x1 PUSH1 0x40 MLOAD PUSH2 0x1362 SWAP2 SWAP1 PUSH2 0x295A JUMP JUMPDEST PUSH1 0x40 MLOAD DUP1 SWAP2 SUB SWAP1 LOG1 JUMPDEST POP POP POP POP POP POP POP JUMP JUMPDEST PUSH1 0x0 PUSH1 0x33 PUSH1 0x0 SWAP1 SLOAD SWAP1 PUSH2 0x100 EXP SWAP1 DIV PUSH20 0xFFFFFFFFFFFFFFFFFFFFFFFFFFFFFFFFFFFFFFFF AND SWAP1 POP SWAP1 JUMP JUMPDEST PUSH1 0xD3 SLOAD DUP2 JUMP JUMPDEST PUSH1 0xD1 SLOAD DUP2 JUMP JUMPDEST PUSH1 0xD5 DUP2 DUP2 SLOAD DUP2 LT PUSH2 0x13BA JUMPI PUSH1 0x0 DUP1 REVERT JUMPDEST SWAP1 PUSH1 0x0 MSTORE PUSH1 0x20 PUSH1 0x0 KECCAK256 ADD PUSH1 0x0 SWAP2 POP SLOAD SWAP1 PUSH2 0x100 EXP SWAP1 DIV PUSH20 0xFFFFFFFFFFFFFFFFFFFFFFFFFFFFFFFFFFFFFFFF AND DUP2 JUMP JUMPDEST PUSH1 0xCF SLOAD DUP2 JUMP JUMPDEST PUSH1 0xCD SLOAD DUP2 JUMP JUMPDEST PUSH1 0xCB PUSH1 0x0 SWAP1 SLOAD SWAP1 PUSH2 0x100 EXP SWAP1 DIV PUSH20 0xFFFFFFFFFFFFFFFFFFFFFFFFFFFFFFFFFFFFFFFF AND DUP2 JUMP JUMPDEST PUSH1 0xD8 DUP1 SLOAD PUSH2 0x1428 SWAP1 PUSH2 0x29A4 JUMP JUMPDEST DUP1 PUSH1 0x1F ADD PUSH1 0x20 DUP1 SWAP2 DIV MUL PUSH1 0x20 ADD PUSH1 0x40 MLOAD SWAP1 DUP2 ADD PUSH1 0x40 MSTORE DUP1 SWAP3 SWAP2 SWAP1 DUP2 DUP2 MSTORE PUSH1 0x20 ADD DUP3 DUP1 SLOAD PUSH2 0x1454 SWAP1 PUSH2 0x29A4 JUMP JUMPDEST DUP1 ISZERO PUSH2 0x14A1 JUMPI DUP1 PUSH1 0x1F LT PUSH2 0x1476 JUMPI PUSH2 0x100 DUP1 DUP4 SLOAD DIV MUL DUP4 MSTORE SWAP2 PUSH1 0x20 ADD SWAP2 PUSH2 0x14A1 JUMP JUMPDEST DUP3 ADD SWAP2 SWAP1 PUSH1 0x0 MSTORE PUSH1 0x20 PUSH1 0x0 KECCAK256 SWAP1 JUMPDEST DUP2 SLOAD DUP2 MSTORE SWAP1 PUSH1 0x1 ADD SWAP1 PUSH1 0x20 ADD DUP1 DUP4 GT PUSH2 0x1484 JUMPI DUP3 SWAP1 SUB PUSH1 0x1F AND DUP3 ADD SWAP2 JUMPDEST POP POP POP POP POP DUP2 JUMP JUMPDEST PUSH1 0x0 PUSH2 0x14BF PUSH8 0x4AC5CE98911F82DF PUSH1 0xC0 SHL PUSH2 0x1877 JUMP JUMPDEST PUSH2 0x14D3 PUSH8 0x88FB0E6CAB75BBEC PUSH1 0xC0 SHL PUSH2 0x1877 JUMP JUMPDEST PUSH2 0x14E7 PUSH8 0x53A1B097579C32D7 PUSH1 0xC0 SHL PUSH2 0x1877 JUMP JUMPDEST PUSH1 0x0 PUSH1 0xD0 SLOAD NUMBER PUSH2 0x14F7 SWAP2 SWAP1 PUSH2 0x24B9 JUMP JUMPDEST SWAP1 POP PUSH2 0x150D PUSH8 0x25ADECF45E434E3A PUSH1 0xC0 SHL PUSH2 0x1877 JUMP JUMPDEST PUSH2 0x1521 PUSH8 0xA0B6E58366CF40E5 PUSH1 0xC0 SHL PUSH2 0x1877 JUMP JUMPDEST PUSH1 0xCE SLOAD DUP2 LT PUSH2 0x1571 JUMPI PUSH2 0x153E PUSH8 0x5DFEA2CF30771CD3 PUSH1 0xC0 SHL PUSH2 0x1877 JUMP JUMPDEST PUSH2 0x1552 PUSH8 0xDECD30B269521D30 PUSH1 0xC0 SHL PUSH2 0x1877 JUMP JUMPDEST PUSH2 0x1566 PUSH8 0xC8D150FAF24B6EB7 PUSH1 0xC0 SHL PUSH2 0x1877 JUMP JUMPDEST PUSH1 0xCD SLOAD SWAP2 POP POP PUSH2 0x15E5 JUMP JUMPDEST PUSH2 0x1585 PUSH8 0xDCEC42B3CB6A9D53 PUSH1 0xC0 SHL PUSH2 0x1877 JUMP JUMPDEST PUSH2 0x1599 PUSH8 0x58FA9C4244F78788 PUSH1 0xC0 SHL PUSH2 0x1877 JUMP JUMPDEST PUSH2 0x15AD PUSH8 0x5FCC4FFD3E325722 PUSH1 0xC0 SHL PUSH2 0x1877 JUMP JUMPDEST PUSH1 0xCF SLOAD PUSH1 0x1 DUP3 PUSH1 0xCE SLOAD PUSH2 0x15C0 SWAP2 SWAP1 PUSH2 0x24B9 JUMP JUMPDEST PUSH2 0x15CA SWAP2 SWAP1 PUSH2 0x24B9 JUMP JUMPDEST PUSH2 0x15D4 SWAP2 SWAP1 PUSH2 0x2559 JUMP JUMPDEST PUSH1 0xCD SLOAD PUSH2 0x15E1 SWAP2 SWAP1 PUSH2 0x28DE JUMP JUMPDEST SWAP2 POP POP JUMPDEST SWAP1 JUMP JUMPDEST PUSH2 0x15F0 PUSH2 0x187A JUMP JUMPDEST PUSH1 0x0 PUSH20 0xFFFFFFFFFFFFFFFFFFFFFFFFFFFFFFFFFFFFFFFF AND DUP2 PUSH20 0xFFFFFFFFFFFFFFFFFFFFFFFFFFFFFFFFFFFFFFFF AND SUB PUSH2 0x165F JUMPI PUSH1 0x40 MLOAD PUSH32 0x8C379A000000000000000000000000000000000000000000000000000000000 DUP2 MSTORE PUSH1 0x4 ADD PUSH2 0x1656 SWAP1 PUSH2 0x2A47 JUMP JUMPDEST PUSH1 0x40 MLOAD DUP1 SWAP2 SUB SWAP1 REVERT JUMPDEST PUSH2 0x1668 DUP2 PUSH2 0x18F8 JUMP JUMPDEST POP JUMP JUMPDEST PUSH1 0x0 PUSH2 0x1699 PUSH32 0x360894A13BA1A3210667C828492DB98DCA3E2076CC3735A920A3CA505D382BBC PUSH1 0x0 SHL PUSH2 0x1A8B JUMP JUMPDEST PUSH1 0x0 ADD PUSH1 0x0 SWAP1 SLOAD SWAP1 PUSH2 0x100 EXP SWAP1 DIV PUSH20 0xFFFFFFFFFFFFFFFFFFFFFFFFFFFFFFFFFFFFFFFF AND SWAP1 POP SWAP1 JUMP JUMPDEST PUSH2 0x16D6 PUSH8 0xF013AB7ACE869A10 PUSH1 0xC0 SHL PUSH2 0x1877 JUMP JUMPDEST PUSH2 0x16DE PUSH2 0x187A JUMP JUMPDEST PUSH2 0x16F2 PUSH8 0x6919CB6E51B606B PUSH1 0xC0 SHL PUSH2 0x1877 JUMP JUMPDEST PUSH2 0x1706 PUSH8 0x7A4C75DB93C34D14 PUSH1 0xC0 SHL PUSH2 0x1877 JUMP JUMPDEST POP JUMP JUMPDEST PUSH2 0x1735 PUSH32 0x4910FDFA16FED3260ED0E7147F7CC6DA11A60208B5B9406D12A635614FFD9143 PUSH1 0x0 SHL PUSH2 0x1A95 JUMP JUMPDEST PUSH1 0x0 ADD PUSH1 0x0 SWAP1 SLOAD SWAP1 PUSH2 0x100 EXP SWAP1 DIV PUSH1 0xFF AND ISZERO PUSH2 0x1759 JUMPI PUSH2 0x1754 DUP4 PUSH2 0x1A9F JUMP JUMPDEST PUSH2 0x1872 JUMP JUMPDEST DUP3 PUSH20 0xFFFFFFFFFFFFFFFFFFFFFFFFFFFFFFFFFFFFFFFF AND PUSH4 0x52D1902D PUSH1 0x40 MLOAD DUP2 PUSH4 0xFFFFFFFF AND PUSH1 0xE0 SHL DUP2 MSTORE PUSH1 0x4 ADD PUSH1 0x20 PUSH1 0x40 MLOAD DUP1 DUP4 SUB DUP2 DUP7 GAS STATICCALL SWAP3 POP POP POP DUP1 ISZERO PUSH2 0x17C1 JUMPI POP PUSH1 0x40 MLOAD RETURNDATASIZE PUSH1 0x1F NOT PUSH1 0x1F DUP3 ADD AND DUP3 ADD DUP1 PUSH1 0x40 MSTORE POP DUP2 ADD SWAP1 PUSH2 0x17BE SWAP2 SWAP1 PUSH2 0x2A93 JUMP JUMPDEST PUSH1 0x1 JUMPDEST PUSH2 0x1800 JUMPI PUSH1 0x40 MLOAD PUSH32 0x8C379A000000000000000000000000000000000000000000000000000000000 DUP2 MSTORE PUSH1 0x4 ADD PUSH2 0x17F7 SWAP1 PUSH2 0x2B32 JUMP JUMPDEST PUSH1 0x40 MLOAD DUP1 SWAP2 SUB SWAP1 REVERT JUMPDEST PUSH32 0x360894A13BA1A3210667C828492DB98DCA3E2076CC3735A920A3CA505D382BBC PUSH1 0x0 SHL DUP2 EQ PUSH2 0x1865 JUMPI PUSH1 0x40 MLOAD PUSH32 0x8C379A000000000000000000000000000000000000000000000000000000000 DUP2 MSTORE PUSH1 0x4 ADD PUSH2 0x185C SWAP1 PUSH2 0x2BC4 JUMP JUMPDEST PUSH1 0x40 MLOAD DUP1 SWAP2 SUB SWAP1 REVERT JUMPDEST POP PUSH2 0x1871 DUP4 DUP4 DUP4 PUSH2 0x1B58 JUMP JUMPDEST JUMPDEST POP POP POP JUMP JUMPDEST POP JUMP JUMPDEST PUSH2 0x1882 PUSH2 0x1B84 JUMP JUMPDEST PUSH20 0xFFFFFFFFFFFFFFFFFFFFFFFFFFFFFFFFFFFFFFFF AND PUSH2 0x18A0 PUSH2 0x1374 JUMP JUMPDEST PUSH20 0xFFFFFFFFFFFFFFFFFFFFFFFFFFFFFFFFFFFFFFFF AND EQ PUSH2 0x18F6 JUMPI PUSH1 0x40 MLOAD PUSH32 0x8C379A000000000000000000000000000000000000000000000000000000000 DUP2 MSTORE PUSH1 0x4 ADD PUSH2 0x18ED SWAP1 PUSH2 0x2C30 JUMP JUMPDEST PUSH1 0x40 MLOAD DUP1 SWAP2 SUB SWAP1 REVERT JUMPDEST JUMP JUMPDEST PUSH1 0x0 PUSH1 0x33 PUSH1 0x0 SWAP1 SLOAD SWAP1 PUSH2 0x100 EXP SWAP1 DIV PUSH20 0xFFFFFFFFFFFFFFFFFFFFFFFFFFFFFFFFFFFFFFFF AND SWAP1 POP DUP2 PUSH1 0x33 PUSH1 0x0 PUSH2 0x100 EXP DUP2 SLOAD DUP2 PUSH20 0xFFFFFFFFFFFFFFFFFFFFFFFFFFFFFFFFFFFFFFFF MUL NOT AND SWAP1 DUP4 PUSH20 0xFFFFFFFFFFFFFFFFFFFFFFFFFFFFFFFFFFFFFFFF AND MUL OR SWAP1 SSTORE POP DUP2 PUSH20 0xFFFFFFFFFFFFFFFFFFFFFFFFFFFFFFFFFFFFFFFF AND DUP2 PUSH20 0xFFFFFFFFFFFFFFFFFFFFFFFFFFFFFFFFFFFFFFFF AND PUSH32 0x8BE0079C531659141344CD1FD0A4F28419497F9722A3DAAFE3B4186F6B6457E0 PUSH1 0x40 MLOAD PUSH1 0x40 MLOAD DUP1 SWAP2 SUB SWAP1 LOG3 POP POP JUMP JUMPDEST PUSH1 0x0 DUP1 DUP3 PUSH20 0xFFFFFFFFFFFFFFFFFFFFFFFFFFFFFFFFFFFFFFFF AND EXTCODESIZE GT SWAP1 POP SWAP2 SWAP1 POP JUMP JUMPDEST PUSH1 0x0 PUSH1 0x1 SWAP1 SLOAD SWAP1 PUSH2 0x100 EXP SWAP1 DIV PUSH1 0xFF AND PUSH2 0x1A30 JUMPI PUSH1 0x40 MLOAD PUSH32 0x8C379A000000000000000000000000000000000000000000000000000000000 DUP2 MSTORE PUSH1 0x4 ADD PUSH2 0x1A27 SWAP1 PUSH2 0x2CC2 JUMP JUMPDEST PUSH1 0x40 MLOAD DUP1 SWAP2 SUB SWAP1 REVERT JUMPDEST PUSH2 0x1A38 PUSH2 0x1B8C JUMP JUMPDEST JUMP JUMPDEST PUSH1 0x0 PUSH1 0x1 SWAP1 SLOAD SWAP1 PUSH2 0x100 EXP SWAP1 DIV PUSH1 0xFF AND PUSH2 0x1A89 JUMPI PUSH1 0x40 MLOAD PUSH32 0x8C379A000000000000000000000000000000000000000000000000000000000 DUP2 MSTORE PUSH1 0x4 ADD PUSH2 0x1A80 SWAP1 PUSH2 0x2CC2 JUMP JUMPDEST PUSH1 0x40 MLOAD DUP1 SWAP2 SUB SWAP1 REVERT JUMPDEST JUMP JUMPDEST PUSH1 0x0 DUP2 SWAP1 POP SWAP2 SWAP1 POP JUMP JUMPDEST PUSH1 0x0 DUP2 SWAP1 POP SWAP2 SWAP1 POP JUMP JUMPDEST PUSH2 0x1AA8 DUP2 PUSH2 0x19BE JUMP JUMPDEST PUSH2 0x1AE7 JUMPI PUSH1 0x40 MLOAD PUSH32 0x8C379A000000000000000000000000000000000000000000000000000000000 DUP2 MSTORE PUSH1 0x4 ADD PUSH2 0x1ADE SWAP1 PUSH2 0x2D54 JUMP JUMPDEST PUSH1 0x40 MLOAD DUP1 SWAP2 SUB SWAP1 REVERT JUMPDEST DUP1 PUSH2 0x1B14 PUSH32 0x360894A13BA1A3210667C828492DB98DCA3E2076CC3735A920A3CA505D382BBC PUSH1 0x0 SHL PUSH2 0x1A8B JUMP JUMPDEST PUSH1 0x0 ADD PUSH1 0x0 PUSH2 0x100 EXP DUP2 SLOAD DUP2 PUSH20 0xFFFFFFFFFFFFFFFFFFFFFFFFFFFFFFFFFFFFFFFF MUL NOT AND SWAP1 DUP4 PUSH20 0xFFFFFFFFFFFFFFFFFFFFFFFFFFFFFFFFFFFFFFFF AND MUL OR SWAP1 SSTORE POP POP JUMP JUMPDEST PUSH2 0x1B61 DUP4 PUSH2 0x1BED JUMP JUMPDEST PUSH1 0x0 DUP3 MLOAD GT DUP1 PUSH2 0x1B6E JUMPI POP DUP1 JUMPDEST ISZERO PUSH2 0x1B7F JUMPI PUSH2 0x1B7D DUP4 DUP4 PUSH2 0x1C3C JUMP JUMPDEST POP JUMPDEST POP POP POP JUMP JUMPDEST PUSH1 0x0 CALLER SWAP1 POP SWAP1 JUMP JUMPDEST PUSH1 0x0 PUSH1 0x1 SWAP1 SLOAD SWAP1 PUSH2 0x100 EXP SWAP1 DIV PUSH1 0xFF AND PUSH2 0x1BDB JUMPI PUSH1 0x40 MLOAD PUSH32 0x8C379A000000000000000000000000000000000000000000000000000000000 DUP2 MSTORE PUSH1 0x4 ADD PUSH2 0x1BD2 SWAP1 PUSH2 0x2CC2 JUMP JUMPDEST PUSH1 0x40 MLOAD DUP1 SWAP2 SUB SWAP1 REVERT JUMPDEST PUSH2 0x1BEB PUSH2 0x1BE6 PUSH2 0x1B84 JUMP JUMPDEST PUSH2 0x18F8 JUMP JUMPDEST JUMP JUMPDEST PUSH2 0x1BF6 DUP2 PUSH2 0x1A9F JUMP JUMPDEST DUP1 PUSH20 0xFFFFFFFFFFFFFFFFFFFFFFFFFFFFFFFFFFFFFFFF AND PUSH32 0xBC7CD75A20EE27FD9ADEBAB32041F755214DBC6BFFA90CC0225B39DA2E5C2D3B PUSH1 0x40 MLOAD PUSH1 0x40 MLOAD DUP1 SWAP2 SUB SWAP1 LOG2 POP JUMP JUMPDEST PUSH1 0x60 PUSH2 0x1C61 DUP4 DUP4 PUSH1 0x40 MLOAD DUP1 PUSH1 0x60 ADD PUSH1 0x40 MSTORE DUP1 PUSH1 0x27 DUP2 MSTORE PUSH1 0x20 ADD PUSH2 0x2E3F PUSH1 0x27 SWAP2 CODECOPY PUSH2 0x1C69 JUMP JUMPDEST SWAP1 POP SWAP3 SWAP2 POP POP JUMP JUMPDEST PUSH1 0x60 PUSH1 0x0 DUP1 DUP6 PUSH20 0xFFFFFFFFFFFFFFFFFFFFFFFFFFFFFFFFFFFFFFFF AND DUP6 PUSH1 0x40 MLOAD PUSH2 0x1C93 SWAP2 SWAP1 PUSH2 0x2DBB JUMP JUMPDEST PUSH1 0x0 PUSH1 0x40 MLOAD DUP1 DUP4 SUB DUP2 DUP6 GAS DELEGATECALL SWAP2 POP POP RETURNDATASIZE DUP1 PUSH1 0x0 DUP2 EQ PUSH2 0x1CCE JUMPI PUSH1 0x40 MLOAD SWAP2 POP PUSH1 0x1F NOT PUSH1 0x3F RETURNDATASIZE ADD AND DUP3 ADD PUSH1 0x40 MSTORE RETURNDATASIZE DUP3 MSTORE RETURNDATASIZE PUSH1 0x0 PUSH1 0x20 DUP5 ADD RETURNDATACOPY PUSH2 0x1CD3 JUMP JUMPDEST PUSH1 0x60 SWAP2 POP JUMPDEST POP SWAP2 POP SWAP2 POP PUSH2 0x1CE4 DUP7 DUP4 DUP4 DUP8 PUSH2 0x1CEF JUMP JUMPDEST SWAP3 POP POP POP SWAP4 SWAP3 POP POP POP JUMP JUMPDEST PUSH1 0x60 DUP4 ISZERO PUSH2 0x1D51 JUMPI PUSH1 0x0 DUP4 MLOAD SUB PUSH2 0x1D49 JUMPI PUSH2 0x1D09 DUP6 PUSH2 0x19BE JUMP JUMPDEST PUSH2 0x1D48 JUMPI PUSH1 0x40 MLOAD PUSH32 0x8C379A000000000000000000000000000000000000000000000000000000000 DUP2 MSTORE PUSH1 0x4 ADD PUSH2 0x1D3F SWAP1 PUSH2 0x2E1E JUMP JUMPDEST PUSH1 0x40 MLOAD DUP1 SWAP2 SUB SWAP1 REVERT JUMPDEST JUMPDEST DUP3 SWAP1 POP PUSH2 0x1D5C JUMP JUMPDEST PUSH2 0x1D5B DUP4 DUP4 PUSH2 0x1D64 JUMP JUMPDEST JUMPDEST SWAP5 SWAP4 POP POP POP POP JUMP JUMPDEST PUSH1 0x0 DUP3 MLOAD GT ISZERO PUSH2 0x1D77 JUMPI DUP2 MLOAD DUP1 DUP4 PUSH1 0x20 ADD REVERT JUMPDEST DUP1 PUSH1 0x40 MLOAD PUSH32 0x8C379A000000000000000000000000000000000000000000000000000000000 DUP2 MSTORE PUSH1 0x4 ADD PUSH2 0x1DAB SWAP2 SWAP1 PUSH2 0x22D8 JUMP JUMPDEST PUSH1 0x40 MLOAD DUP1 SWAP2 SUB SWAP1 REVERT JUMPDEST PUSH1 0x0 PUSH20 0xFFFFFFFFFFFFFFFFFFFFFFFFFFFFFFFFFFFFFFFF DUP3 AND SWAP1 POP SWAP2 SWAP1 POP JUMP JUMPDEST PUSH1 0x0 DUP2 SWAP1 POP SWAP2 SWAP1 POP JUMP JUMPDEST PUSH1 0x0 PUSH2 0x1DF9 PUSH2 0x1DF4 PUSH2 0x1DEF DUP5 PUSH2 0x1DB4 JUMP JUMPDEST PUSH2 0x1DD4 JUMP JUMPDEST PUSH2 0x1DB4 JUMP JUMPDEST SWAP1 POP SWAP2 SWAP1 POP JUMP JUMPDEST PUSH1 0x0 PUSH2 0x1E0B DUP3 PUSH2 0x1DDE JUMP JUMPDEST SWAP1 POP SWAP2 SWAP1 POP JUMP JUMPDEST PUSH1 0x0 PUSH2 0x1E1D DUP3 PUSH2 0x1E00 JUMP JUMPDEST SWAP1 POP SWAP2 SWAP1 POP JUMP JUMPDEST PUSH2 0x1E2D DUP2 PUSH2 0x1E12 JUMP JUMPDEST DUP3 MSTORE POP POP JUMP JUMPDEST PUSH1 0x0 PUSH1 0x20 DUP3 ADD SWAP1 POP PUSH2 0x1E48 PUSH1 0x0 DUP4 ADD DUP5 PUSH2 0x1E24 JUMP JUMPDEST SWAP3 SWAP2 POP POP JUMP JUMPDEST PUSH1 0x0 DUP2 SWAP1 POP SWAP2 SWAP1 POP JUMP JUMPDEST PUSH2 0x1E61 DUP2 PUSH2 0x1E4E JUMP JUMPDEST DUP3 MSTORE POP POP JUMP JUMPDEST PUSH1 0x0 PUSH1 0x20 DUP3 ADD SWAP1 POP PUSH2 0x1E7C PUSH1 0x0 DUP4 ADD DUP5 PUSH2 0x1E58 JUMP JUMPDEST SWAP3 SWAP2 POP POP JUMP JUMPDEST PUSH1 0x0 PUSH1 0x40 MLOAD SWAP1 POP SWAP1 JUMP JUMPDEST PUSH1 0x0 DUP1 REVERT JUMPDEST PUSH1 0x0 DUP1 REVERT JUMPDEST PUSH1 0x0 PUSH2 0x1EA1 DUP3 PUSH2 0x1DB4 JUMP JUMPDEST SWAP1 POP SWAP2 SWAP1 POP JUMP JUMPDEST PUSH2 0x1EB1 DUP2 PUSH2 0x1E96 JUMP JUMPDEST DUP2 EQ PUSH2 0x1EBC JUMPI PUSH1 0x0 DUP1 REVERT JUMPDEST POP JUMP JUMPDEST PUSH1 0x0 DUP2 CALLDATALOAD SWAP1 POP PUSH2 0x1ECE DUP2 PUSH2 0x1EA8 JUMP JUMPDEST SWAP3 SWAP2 POP POP JUMP JUMPDEST PUSH1 0x0 PUSH1 0x20 DUP3 DUP5 SUB SLT ISZERO PUSH2 0x1EEA JUMPI PUSH2 0x1EE9 PUSH2 0x1E8C JUMP JUMPDEST JUMPDEST PUSH1 0x0 PUSH2 0x1EF8 DUP5 DUP3 DUP6 ADD PUSH2 0x1EBF JUMP JUMPDEST SWAP2 POP POP SWAP3 SWAP2 POP POP JUMP JUMPDEST PUSH2 0x1F0A DUP2 PUSH2 0x1E4E JUMP JUMPDEST DUP2 EQ PUSH2 0x1F15 JUMPI PUSH1 0x0 DUP1 REVERT JUMPDEST POP JUMP JUMPDEST PUSH1 0x0 DUP2 CALLDATALOAD SWAP1 POP PUSH2 0x1F27 DUP2 PUSH2 0x1F01 JUMP JUMPDEST SWAP3 SWAP2 POP POP JUMP JUMPDEST PUSH1 0x0 PUSH1 0x20 DUP3 DUP5 SUB SLT ISZERO PUSH2 0x1F43 JUMPI PUSH2 0x1F42 PUSH2 0x1E8C JUMP JUMPDEST JUMPDEST PUSH1 0x0 PUSH2 0x1F51 DUP5 DUP3 DUP6 ADD PUSH2 0x1F18 JUMP JUMPDEST SWAP2 POP POP SWAP3 SWAP2 POP POP JUMP JUMPDEST PUSH2 0x1F63 DUP2 PUSH2 0x1E96 JUMP JUMPDEST DUP3 MSTORE POP POP JUMP JUMPDEST PUSH1 0x0 PUSH1 0x20 DUP3 ADD SWAP1 POP PUSH2 0x1F7E PUSH1 0x0 DUP4 ADD DUP5 PUSH2 0x1F5A JUMP JUMPDEST SWAP3 SWAP2 POP POP JUMP JUMPDEST PUSH1 0x0 DUP1 REVERT JUMPDEST PUSH1 0x0 DUP1 REVERT JUMPDEST PUSH1 0x0 PUSH1 0x1F NOT PUSH1 0x1F DUP4 ADD AND SWAP1 POP SWAP2 SWAP1 POP JUMP JUMPDEST PUSH32 0x4E487B7100000000000000000000000000000000000000000000000000000000 PUSH1 0x0 MSTORE PUSH1 0x41 PUSH1 0x4 MSTORE PUSH1 0x24 PUSH1 0x0 REVERT JUMPDEST PUSH2 0x1FD7 DUP3 PUSH2 0x1F8E JUMP JUMPDEST DUP2 ADD DUP2 DUP2 LT PUSH8 0xFFFFFFFFFFFFFFFF DUP3 GT OR ISZERO PUSH2 0x1FF6 JUMPI PUSH2 0x1FF5 PUSH2 0x1F9F JUMP JUMPDEST JUMPDEST DUP1 PUSH1 0x40 MSTORE POP POP POP JUMP JUMPDEST PUSH1 0x0 PUSH2 0x2009 PUSH2 0x1E82 JUMP JUMPDEST SWAP1 POP PUSH2 0x2015 DUP3 DUP3 PUSH2 0x1FCE JUMP JUMPDEST SWAP2 SWAP1 POP JUMP JUMPDEST PUSH1 0x0 PUSH8 0xFFFFFFFFFFFFFFFF DUP3 GT ISZERO PUSH2 0x2035 JUMPI PUSH2 0x2034 PUSH2 0x1F9F JUMP JUMPDEST JUMPDEST PUSH2 0x203E DUP3 PUSH2 0x1F8E JUMP JUMPDEST SWAP1 POP PUSH1 0x20 DUP2 ADD SWAP1 POP SWAP2 SWAP1 POP JUMP JUMPDEST DUP3 DUP2 DUP4 CALLDATACOPY PUSH1 0x0 DUP4 DUP4 ADD MSTORE POP POP POP JUMP JUMPDEST PUSH1 0x0 PUSH2 0x206D PUSH2 0x2068 DUP5 PUSH2 0x201A JUMP JUMPDEST PUSH2 0x1FFF JUMP JUMPDEST SWAP1 POP DUP3 DUP2 MSTORE PUSH1 0x20 DUP2 ADD DUP5 DUP5 DUP5 ADD GT ISZERO PUSH2 0x2089 JUMPI PUSH2 0x2088 PUSH2 0x1F89 JUMP JUMPDEST JUMPDEST PUSH2 0x2094 DUP5 DUP3 DUP6 PUSH2 0x204B JUMP JUMPDEST POP SWAP4 SWAP3 POP POP POP JUMP JUMPDEST PUSH1 0x0 DUP3 PUSH1 0x1F DUP4 ADD SLT PUSH2 0x20B1 JUMPI PUSH2 0x20B0 PUSH2 0x1F84 JUMP JUMPDEST JUMPDEST DUP2 CALLDATALOAD PUSH2 0x20C1 DUP5 DUP3 PUSH1 0x20 DUP7 ADD PUSH2 0x205A JUMP JUMPDEST SWAP2 POP POP SWAP3 SWAP2 POP POP JUMP JUMPDEST PUSH1 0x0 DUP1 PUSH1 0x40 DUP4 DUP6 SUB SLT ISZERO PUSH2 0x20E1 JUMPI PUSH2 0x20E0 PUSH2 0x1E8C JUMP JUMPDEST JUMPDEST PUSH1 0x0 PUSH2 0x20EF DUP6 DUP3 DUP7 ADD PUSH2 0x1EBF JUMP JUMPDEST SWAP3 POP POP PUSH1 0x20 DUP4 ADD CALLDATALOAD PUSH8 0xFFFFFFFFFFFFFFFF DUP2 GT ISZERO PUSH2 0x2110 JUMPI PUSH2 0x210F PUSH2 0x1E91 JUMP JUMPDEST JUMPDEST PUSH2 0x211C DUP6 DUP3 DUP7 ADD PUSH2 0x209C JUMP JUMPDEST SWAP2 POP POP SWAP3 POP SWAP3 SWAP1 POP JUMP JUMPDEST PUSH1 0x0 DUP2 SWAP1 POP SWAP2 SWAP1 POP JUMP JUMPDEST PUSH2 0x2139 DUP2 PUSH2 0x2126 JUMP JUMPDEST DUP3 MSTORE POP POP JUMP JUMPDEST PUSH1 0x0 PUSH1 0x20 DUP3 ADD SWAP1 POP PUSH2 0x2154 PUSH1 0x0 DUP4 ADD DUP5 PUSH2 0x2130 JUMP JUMPDEST SWAP3 SWAP2 POP POP JUMP JUMPDEST PUSH1 0x0 DUP2 ISZERO ISZERO SWAP1 POP SWAP2 SWAP1 POP JUMP JUMPDEST PUSH2 0x216F DUP2 PUSH2 0x215A JUMP JUMPDEST DUP3 MSTORE POP POP JUMP JUMPDEST PUSH1 0x0 PUSH1 0x20 DUP3 ADD SWAP1 POP PUSH2 0x218A PUSH1 0x0 DUP4 ADD DUP5 PUSH2 0x2166 JUMP JUMPDEST SWAP3 SWAP2 POP POP JUMP JUMPDEST PUSH1 0x0 DUP1 PUSH1 0x0 DUP1 PUSH1 0x0 DUP1 PUSH1 0xC0 DUP8 DUP10 SUB SLT ISZERO PUSH2 0x21AD JUMPI PUSH2 0x21AC PUSH2 0x1E8C JUMP JUMPDEST JUMPDEST PUSH1 0x0 PUSH2 0x21BB DUP10 DUP3 DUP11 ADD PUSH2 0x1EBF JUMP JUMPDEST SWAP7 POP POP PUSH1 0x20 PUSH2 0x21CC DUP10 DUP3 DUP11 ADD PUSH2 0x1EBF JUMP JUMPDEST SWAP6 POP POP PUSH1 0x40 PUSH2 0x21DD DUP10 DUP3 DUP11 ADD PUSH2 0x1F18 JUMP JUMPDEST SWAP5 POP POP PUSH1 0x60 PUSH2 0x21EE DUP10 DUP3 DUP11 ADD PUSH2 0x1F18 JUMP JUMPDEST SWAP4 POP POP PUSH1 0x80 PUSH2 0x21FF DUP10 DUP3 DUP11 ADD PUSH2 0x1F18 JUMP JUMPDEST SWAP3 POP POP PUSH1 0xA0 PUSH2 0x2210 DUP10 DUP3 DUP11 ADD PUSH2 0x1F18 JUMP JUMPDEST SWAP2 POP POP SWAP3 SWAP6 POP SWAP3 SWAP6 POP SWAP3 SWAP6 JUMP JUMPDEST PUSH1 0x0 PUSH2 0x2228 DUP3 PUSH2 0x1E00 JUMP JUMPDEST SWAP1 POP SWAP2 SWAP1 POP JUMP JUMPDEST PUSH2 0x2238 DUP2 PUSH2 0x221D JUMP JUMPDEST DUP3 MSTORE POP POP JUMP JUMPDEST PUSH1 0x0 PUSH1 0x20 DUP3 ADD SWAP1 POP PUSH2 0x2253 PUSH1 0x0 DUP4 ADD DUP5 PUSH2 0x222F JUMP JUMPDEST SWAP3 SWAP2 POP POP JUMP JUMPDEST PUSH1 0x0 DUP2 MLOAD SWAP1 POP SWAP2 SWAP1 POP JUMP JUMPDEST PUSH1 0x0 DUP3 DUP3 MSTORE PUSH1 0x20 DUP3 ADD SWAP1 POP SWAP3 SWAP2 POP POP JUMP JUMPDEST PUSH1 0x0 JUMPDEST DUP4 DUP2 LT ISZERO PUSH2 0x2293 JUMPI DUP1 DUP3 ADD MLOAD DUP2 DUP5 ADD MSTORE PUSH1 0x20 DUP2 ADD SWAP1 POP PUSH2 0x2278 JUMP JUMPDEST PUSH1 0x0 DUP5 DUP5 ADD MSTORE POP POP POP POP JUMP JUMPDEST PUSH1 0x0 PUSH2 0x22AA DUP3 PUSH2 0x2259 JUMP JUMPDEST PUSH2 0x22B4 DUP2 DUP6 PUSH2 0x2264 JUMP JUMPDEST SWAP4 POP PUSH2 0x22C4 DUP2 DUP6 PUSH1 0x20 DUP7 ADD PUSH2 0x2275 JUMP JUMPDEST PUSH2 0x22CD DUP2 PUSH2 0x1F8E JUMP JUMPDEST DUP5 ADD SWAP2 POP POP SWAP3 SWAP2 POP POP JUMP JUMPDEST PUSH1 0x0 PUSH1 0x20 DUP3 ADD SWAP1 POP DUP2 DUP2 SUB PUSH1 0x0 DUP4 ADD MSTORE PUSH2 0x22F2 DUP2 DUP5 PUSH2 0x229F JUMP JUMPDEST SWAP1 POP SWAP3 SWAP2 POP POP JUMP JUMPDEST PUSH32 0x46756E6374696F6E206D7573742062652063616C6C6564207468726F75676820 PUSH1 0x0 DUP3 ADD MSTORE PUSH32 0x64656C656761746563616C6C0000000000000000000000000000000000000000 PUSH1 0x20 DUP3 ADD MSTORE POP JUMP JUMPDEST PUSH1 0x0 PUSH2 0x2356 PUSH1 0x2C DUP4 PUSH2 0x2264 JUMP JUMPDEST SWAP2 POP PUSH2 0x2361 DUP3 PUSH2 0x22FA JUMP JUMPDEST PUSH1 0x40 DUP3 ADD SWAP1 POP SWAP2 SWAP1 POP JUMP JUMPDEST PUSH1 0x0 PUSH1 0x20 DUP3 ADD SWAP1 POP DUP2 DUP2 SUB PUSH1 0x0 DUP4 ADD MSTORE PUSH2 0x2385 DUP2 PUSH2 0x2349 JUMP JUMPDEST SWAP1 POP SWAP2 SWAP1 POP JUMP JUMPDEST PUSH32 0x46756E6374696F6E206D7573742062652063616C6C6564207468726F75676820 PUSH1 0x0 DUP3 ADD MSTORE PUSH32 0x6163746976652070726F78790000000000000000000000000000000000000000 PUSH1 0x20 DUP3 ADD MSTORE POP JUMP JUMPDEST PUSH1 0x0 PUSH2 0x23E8 PUSH1 0x2C DUP4 PUSH2 0x2264 JUMP JUMPDEST SWAP2 POP PUSH2 0x23F3 DUP3 PUSH2 0x238C JUMP JUMPDEST PUSH1 0x40 DUP3 ADD SWAP1 POP SWAP2 SWAP1 POP JUMP JUMPDEST PUSH1 0x0 PUSH1 0x20 DUP3 ADD SWAP1 POP DUP2 DUP2 SUB PUSH1 0x0 DUP4 ADD MSTORE PUSH2 0x2417 DUP2 PUSH2 0x23DB JUMP JUMPDEST SWAP1 POP SWAP2 SWAP1 POP JUMP JUMPDEST PUSH32 0x41756374696F6E2068617320616C726561647920656E64656400000000000000 PUSH1 0x0 DUP3 ADD MSTORE POP JUMP JUMPDEST PUSH1 0x0 PUSH2 0x2454 PUSH1 0x19 DUP4 PUSH2 0x2264 JUMP JUMPDEST SWAP2 POP PUSH2 0x245F DUP3 PUSH2 0x241E JUMP JUMPDEST PUSH1 0x20 DUP3 ADD SWAP1 POP SWAP2 SWAP1 POP JUMP JUMPDEST PUSH1 0x0 PUSH1 0x20 DUP3 ADD SWAP1 POP DUP2 DUP2 SUB PUSH1 0x0 DUP4 ADD MSTORE PUSH2 0x2483 DUP2 PUSH2 0x2447 JUMP JUMPDEST SWAP1 POP SWAP2 SWAP1 POP JUMP JUMPDEST PUSH32 0x4E487B7100000000000000000000000000000000000000000000000000000000 PUSH1 0x0 MSTORE PUSH1 0x11 PUSH1 0x4 MSTORE PUSH1 0x24 PUSH1 0x0 REVERT JUMPDEST PUSH1 0x0 PUSH2 0x24C4 DUP3 PUSH2 0x1E4E JUMP JUMPDEST SWAP2 POP PUSH2 0x24CF DUP4 PUSH2 0x1E4E JUMP JUMPDEST SWAP3 POP DUP3 DUP3 SUB SWAP1 POP DUP2 DUP2 GT ISZERO PUSH2 0x24E7 JUMPI PUSH2 0x24E6 PUSH2 0x248A JUMP JUMPDEST JUMPDEST SWAP3 SWAP2 POP POP JUMP JUMPDEST PUSH32 0x41756374696F6E20456E64656400000000000000000000000000000000000000 PUSH1 0x0 DUP3 ADD MSTORE POP JUMP JUMPDEST PUSH1 0x0 PUSH2 0x2523 PUSH1 0xD DUP4 PUSH2 0x2264 JUMP JUMPDEST SWAP2 POP PUSH2 0x252E DUP3 PUSH2 0x24ED JUMP JUMPDEST PUSH1 0x20 DUP3 ADD SWAP1 POP SWAP2 SWAP1 POP JUMP JUMPDEST PUSH1 0x0 PUSH1 0x20 DUP3 ADD SWAP1 POP DUP2 DUP2 SUB PUSH1 0x0 DUP4 ADD MSTORE PUSH2 0x2552 DUP2 PUSH2 0x2516 JUMP JUMPDEST SWAP1 POP SWAP2 SWAP1 POP JUMP JUMPDEST PUSH1 0x0 PUSH2 0x2564 DUP3 PUSH2 0x1E4E JUMP JUMPDEST SWAP2 POP PUSH2 0x256F DUP4 PUSH2 0x1E4E JUMP JUMPDEST SWAP3 POP DUP3 DUP3 MUL PUSH2 0x257D DUP2 PUSH2 0x1E4E JUMP JUMPDEST SWAP2 POP DUP3 DUP3 DIV DUP5 EQ DUP4 ISZERO OR PUSH2 0x2594 JUMPI PUSH2 0x2593 PUSH2 0x248A JUMP JUMPDEST JUMPDEST POP SWAP3 SWAP2 POP POP JUMP JUMPDEST PUSH32 0x5468652062696420616D6F756E742073656E7420697320746F6F206C6F770000 PUSH1 0x0 DUP3 ADD MSTORE POP JUMP JUMPDEST PUSH1 0x0 PUSH2 0x25D1 PUSH1 0x1E DUP4 PUSH2 0x2264 JUMP JUMPDEST SWAP2 POP PUSH2 0x25DC DUP3 PUSH2 0x259B JUMP JUMPDEST PUSH1 0x20 DUP3 ADD SWAP1 POP SWAP2 SWAP1 POP JUMP JUMPDEST PUSH1 0x0 PUSH1 0x20 DUP3 ADD SWAP1 POP DUP2 DUP2 SUB PUSH1 0x0 DUP4 ADD MSTORE PUSH2 0x2600 DUP2 PUSH2 0x25C4 JUMP JUMPDEST SWAP1 POP SWAP2 SWAP1 POP JUMP JUMPDEST PUSH1 0x0 PUSH1 0x40 DUP3 ADD SWAP1 POP PUSH2 0x261C PUSH1 0x0 DUP4 ADD DUP6 PUSH2 0x1F5A JUMP JUMPDEST PUSH2 0x2629 PUSH1 0x20 DUP4 ADD DUP5 PUSH2 0x1F5A JUMP JUMPDEST SWAP4 SWAP3 POP POP POP JUMP JUMPDEST PUSH1 0x0 DUP2 MLOAD SWAP1 POP PUSH2 0x263F DUP2 PUSH2 0x1F01 JUMP JUMPDEST SWAP3 SWAP2 POP POP JUMP JUMPDEST PUSH1 0x0 PUSH1 0x20 DUP3 DUP5 SUB SLT ISZERO PUSH2 0x265B JUMPI PUSH2 0x265A PUSH2 0x1E8C JUMP JUMPDEST JUMPDEST PUSH1 0x0 PUSH2 0x2669 DUP5 DUP3 DUP6 ADD PUSH2 0x2630 JUMP JUMPDEST SWAP2 POP POP SWAP3 SWAP2 POP POP JUMP JUMPDEST PUSH32 0x42696420616D6F756E742061636365707465642C206275742062696420666169 PUSH1 0x0 DUP3 ADD MSTORE PUSH32 0x6C65642062656361757365206E6F7420656E6F7567682062616C616E63652074 PUSH1 0x20 DUP3 ADD MSTORE PUSH32 0x6F207472616E7366657220657263323020746F6B656E00000000000000000000 PUSH1 0x40 DUP3 ADD MSTORE POP JUMP JUMPDEST PUSH1 0x0 PUSH2 0x26F4 PUSH1 0x56 DUP4 PUSH2 0x2264 JUMP JUMPDEST SWAP2 POP PUSH2 0x26FF DUP3 PUSH2 0x2672 JUMP JUMPDEST PUSH1 0x60 DUP3 ADD SWAP1 POP SWAP2 SWAP1 POP JUMP JUMPDEST PUSH1 0x0 PUSH1 0x20 DUP3 ADD SWAP1 POP DUP2 DUP2 SUB PUSH1 0x0 DUP4 ADD MSTORE PUSH2 0x2723 DUP2 PUSH2 0x26E7 JUMP JUMPDEST SWAP1 POP SWAP2 SWAP1 POP JUMP JUMPDEST PUSH1 0x0 PUSH1 0x60 DUP3 ADD SWAP1 POP PUSH2 0x273F PUSH1 0x0 DUP4 ADD DUP7 PUSH2 0x1F5A JUMP JUMPDEST PUSH2 0x274C PUSH1 0x20 DUP4 ADD DUP6 PUSH2 0x1F5A JUMP JUMPDEST PUSH2 0x2759 PUSH1 0x40 DUP4 ADD DUP5 PUSH2 0x1E58 JUMP JUMPDEST SWAP5 SWAP4 POP POP POP POP JUMP JUMPDEST PUSH2 0x276A DUP2 PUSH2 0x215A JUMP JUMPDEST DUP2 EQ PUSH2 0x2775 JUMPI PUSH1 0x0 DUP1 REVERT JUMPDEST POP JUMP JUMPDEST PUSH1 0x0 DUP2 MLOAD SWAP1 POP PUSH2 0x2787 DUP2 PUSH2 0x2761 JUMP JUMPDEST SWAP3 SWAP2 POP POP JUMP JUMPDEST PUSH1 0x0 PUSH1 0x20 DUP3 DUP5 SUB SLT ISZERO PUSH2 0x27A3 JUMPI PUSH2 0x27A2 PUSH2 0x1E8C JUMP JUMPDEST JUMPDEST PUSH1 0x0 PUSH2 0x27B1 DUP5 DUP3 DUP6 ADD PUSH2 0x2778 JUMP JUMPDEST SWAP2 POP POP SWAP3 SWAP2 POP POP JUMP JUMPDEST PUSH32 0x555550535570677261646561626C653A206D757374206E6F742062652063616C PUSH1 0x0 DUP3 ADD MSTORE PUSH32 0x6C6564207468726F7567682064656C656761746563616C6C0000000000000000 PUSH1 0x20 DUP3 ADD MSTORE POP JUMP JUMPDEST PUSH1 0x0 PUSH2 0x2816 PUSH1 0x38 DUP4 PUSH2 0x2264 JUMP JUMPDEST SWAP2 POP PUSH2 0x2821 DUP3 PUSH2 0x27BA JUMP JUMPDEST PUSH1 0x40 DUP3 ADD SWAP1 POP SWAP2 SWAP1 POP JUMP JUMPDEST PUSH1 0x0 PUSH1 0x20 DUP3 ADD SWAP1 POP DUP2 DUP2 SUB PUSH1 0x0 DUP4 ADD MSTORE PUSH2 0x2845 DUP2 PUSH2 0x2809 JUMP JUMPDEST SWAP1 POP SWAP2 SWAP1 POP JUMP JUMPDEST PUSH32 0x496E697469616C697A61626C653A20636F6E747261637420697320616C726561 PUSH1 0x0 DUP3 ADD MSTORE PUSH32 0x647920696E697469616C697A6564000000000000000000000000000000000000 PUSH1 0x20 DUP3 ADD MSTORE POP JUMP JUMPDEST PUSH1 0x0 PUSH2 0x28A8 PUSH1 0x2E DUP4 PUSH2 0x2264 JUMP JUMPDEST SWAP2 POP PUSH2 0x28B3 DUP3 PUSH2 0x284C JUMP JUMPDEST PUSH1 0x40 DUP3 ADD SWAP1 POP SWAP2 SWAP1 POP JUMP JUMPDEST PUSH1 0x0 PUSH1 0x20 DUP3 ADD SWAP1 POP DUP2 DUP2 SUB PUSH1 0x0 DUP4 ADD MSTORE PUSH2 0x28D7 DUP2 PUSH2 0x289B JUMP JUMPDEST SWAP1 POP SWAP2 SWAP1 POP JUMP JUMPDEST PUSH1 0x0 PUSH2 0x28E9 DUP3 PUSH2 0x1E4E JUMP JUMPDEST SWAP2 POP PUSH2 0x28F4 DUP4 PUSH2 0x1E4E JUMP JUMPDEST SWAP3 POP DUP3 DUP3 ADD SWAP1 POP DUP1 DUP3 GT ISZERO PUSH2 0x290C JUMPI PUSH2 0x290B PUSH2 0x248A JUMP JUMPDEST JUMPDEST SWAP3 SWAP2 POP POP JUMP JUMPDEST PUSH1 0x0 DUP2 SWAP1 POP SWAP2 SWAP1 POP JUMP JUMPDEST PUSH1 0x0 PUSH1 0xFF DUP3 AND SWAP1 POP SWAP2 SWAP1 POP JUMP JUMPDEST PUSH1 0x0 PUSH2 0x2944 PUSH2 0x293F PUSH2 0x293A DUP5 PUSH2 0x2912 JUMP JUMPDEST PUSH2 0x1DD4 JUMP JUMPDEST PUSH2 0x291C JUMP JUMPDEST SWAP1 POP SWAP2 SWAP1 POP JUMP JUMPDEST PUSH2 0x2954 DUP2 PUSH2 0x2929 JUMP JUMPDEST DUP3 MSTORE POP POP JUMP JUMPDEST PUSH1 0x0 PUSH1 0x20 DUP3 ADD SWAP1 POP PUSH2 0x296F PUSH1 0x0 DUP4 ADD DUP5 PUSH2 0x294B JUMP JUMPDEST SWAP3 SWAP2 POP POP JUMP JUMPDEST PUSH32 0x4E487B7100000000000000000000000000000000000000000000000000000000 PUSH1 0x0 MSTORE PUSH1 0x22 PUSH1 0x4 MSTORE PUSH1 0x24 PUSH1 0x0 REVERT JUMPDEST PUSH1 0x0 PUSH1 0x2 DUP3 DIV SWAP1 POP PUSH1 0x1 DUP3 AND DUP1 PUSH2 0x29BC JUMPI PUSH1 0x7F DUP3 AND SWAP2 POP JUMPDEST PUSH1 0x20 DUP3 LT DUP2 SUB PUSH2 0x29CF JUMPI PUSH2 0x29CE PUSH2 0x2975 JUMP JUMPDEST JUMPDEST POP SWAP2 SWAP1 POP JUMP JUMPDEST PUSH32 0x4F776E61626C653A206E6577206F776E657220697320746865207A65726F2061 PUSH1 0x0 DUP3 ADD MSTORE PUSH32 0x6464726573730000000000000000000000000000000000000000000000000000 PUSH1 0x20 DUP3 ADD MSTORE POP JUMP JUMPDEST PUSH1 0x0 PUSH2 0x2A31 PUSH1 0x26 DUP4 PUSH2 0x2264 JUMP JUMPDEST SWAP2 POP PUSH2 0x2A3C DUP3 PUSH2 0x29D5 JUMP JUMPDEST PUSH1 0x40 DUP3 ADD SWAP1 POP SWAP2 SWAP1 POP JUMP JUMPDEST PUSH1 0x0 PUSH1 0x20 DUP3 ADD SWAP1 POP DUP2 DUP2 SUB PUSH1 0x0 DUP4 ADD MSTORE PUSH2 0x2A60 DUP2 PUSH2 0x2A24 JUMP JUMPDEST SWAP1 POP SWAP2 SWAP1 POP JUMP JUMPDEST PUSH2 0x2A70 DUP2 PUSH2 0x2126 JUMP JUMPDEST DUP2 EQ PUSH2 0x2A7B JUMPI PUSH1 0x0 DUP1 REVERT JUMPDEST POP JUMP JUMPDEST PUSH1 0x0 DUP2 MLOAD SWAP1 POP PUSH2 0x2A8D DUP2 PUSH2 0x2A67 JUMP JUMPDEST SWAP3 SWAP2 POP POP JUMP JUMPDEST PUSH1 0x0 PUSH1 0x20 DUP3 DUP5 SUB SLT ISZERO PUSH2 0x2AA9 JUMPI PUSH2 0x2AA8 PUSH2 0x1E8C JUMP JUMPDEST JUMPDEST PUSH1 0x0 PUSH2 0x2AB7 DUP5 DUP3 DUP6 ADD PUSH2 0x2A7E JUMP JUMPDEST SWAP2 POP POP SWAP3 SWAP2 POP POP JUMP JUMPDEST PUSH32 0x45524331393637557067726164653A206E657720696D706C656D656E74617469 PUSH1 0x0 DUP3 ADD MSTORE PUSH32 0x6F6E206973206E6F742055555053000000000000000000000000000000000000 PUSH1 0x20 DUP3 ADD MSTORE POP JUMP JUMPDEST PUSH1 0x0 PUSH2 0x2B1C PUSH1 0x2E DUP4 PUSH2 0x2264 JUMP JUMPDEST SWAP2 POP PUSH2 0x2B27 DUP3 PUSH2 0x2AC0 JUMP JUMPDEST PUSH1 0x40 DUP3 ADD SWAP1 POP SWAP2 SWAP1 POP JUMP JUMPDEST PUSH1 0x0 PUSH1 0x20 DUP3 ADD SWAP1 POP DUP2 DUP2 SUB PUSH1 0x0 DUP4 ADD MSTORE PUSH2 0x2B4B DUP2 PUSH2 0x2B0F JUMP JUMPDEST SWAP1 POP SWAP2 SWAP1 POP JUMP JUMPDEST PUSH32 0x45524331393637557067726164653A20756E737570706F727465642070726F78 PUSH1 0x0 DUP3 ADD MSTORE PUSH32 0x6961626C65555549440000000000000000000000000000000000000000000000 PUSH1 0x20 DUP3 ADD MSTORE POP JUMP JUMPDEST PUSH1 0x0 PUSH2 0x2BAE PUSH1 0x29 DUP4 PUSH2 0x2264 JUMP JUMPDEST SWAP2 POP PUSH2 0x2BB9 DUP3 PUSH2 0x2B52 JUMP JUMPDEST PUSH1 0x40 DUP3 ADD SWAP1 POP SWAP2 SWAP1 POP JUMP JUMPDEST PUSH1 0x0 PUSH1 0x20 DUP3 ADD SWAP1 POP DUP2 DUP2 SUB PUSH1 0x0 DUP4 ADD MSTORE PUSH2 0x2BDD DUP2 PUSH2 0x2BA1 JUMP JUMPDEST SWAP1 POP SWAP2 SWAP1 POP JUMP JUMPDEST PUSH32 0x4F776E61626C653A2063616C6C6572206973206E6F7420746865206F776E6572 PUSH1 0x0 DUP3 ADD MSTORE POP JUMP JUMPDEST PUSH1 0x0 PUSH2 0x2C1A PUSH1 0x20 DUP4 PUSH2 0x2264 JUMP JUMPDEST SWAP2 POP PUSH2 0x2C25 DUP3 PUSH2 0x2BE4 JUMP JUMPDEST PUSH1 0x20 DUP3 ADD SWAP1 POP SWAP2 SWAP1 POP JUMP JUMPDEST PUSH1 0x0 PUSH1 0x20 DUP3 ADD SWAP1 POP DUP2 DUP2 SUB PUSH1 0x0 DUP4 ADD MSTORE PUSH2 0x2C49 DUP2 PUSH2 0x2C0D JUMP JUMPDEST SWAP1 POP SWAP2 SWAP1 POP JUMP JUMPDEST PUSH32 0x496E697469616C697A61626C653A20636F6E7472616374206973206E6F742069 PUSH1 0x0 DUP3 ADD MSTORE PUSH32 0x6E697469616C697A696E67000000000000000000000000000000000000000000 PUSH1 0x20 DUP3 ADD MSTORE POP JUMP JUMPDEST PUSH1 0x0 PUSH2 0x2CAC PUSH1 0x2B DUP4 PUSH2 0x2264 JUMP JUMPDEST SWAP2 POP PUSH2 0x2CB7 DUP3 PUSH2 0x2C50 JUMP JUMPDEST PUSH1 0x40 DUP3 ADD SWAP1 POP SWAP2 SWAP1 POP JUMP JUMPDEST PUSH1 0x0 PUSH1 0x20 DUP3 ADD SWAP1 POP DUP2 DUP2 SUB PUSH1 0x0 DUP4 ADD MSTORE PUSH2 0x2CDB DUP2 PUSH2 0x2C9F JUMP JUMPDEST SWAP1 POP SWAP2 SWAP1 POP JUMP JUMPDEST PUSH32 0x455243313936373A206E657720696D706C656D656E746174696F6E206973206E PUSH1 0x0 DUP3 ADD MSTORE PUSH32 0x6F74206120636F6E747261637400000000000000000000000000000000000000 PUSH1 0x20 DUP3 ADD MSTORE POP JUMP JUMPDEST PUSH1 0x0 PUSH2 0x2D3E PUSH1 0x2D DUP4 PUSH2 0x2264 JUMP JUMPDEST SWAP2 POP PUSH2 0x2D49 DUP3 PUSH2 0x2CE2 JUMP JUMPDEST PUSH1 0x40 DUP3 ADD SWAP1 POP SWAP2 SWAP1 POP JUMP JUMPDEST PUSH1 0x0 PUSH1 0x20 DUP3 ADD SWAP1 POP DUP2 DUP2 SUB PUSH1 0x0 DUP4 ADD MSTORE PUSH2 0x2D6D DUP2 PUSH2 0x2D31 JUMP JUMPDEST SWAP1 POP SWAP2 SWAP1 POP JUMP JUMPDEST PUSH1 0x0 DUP2 MLOAD SWAP1 POP SWAP2 SWAP1 POP JUMP JUMPDEST PUSH1 0x0 DUP2 SWAP1 POP SWAP3 SWAP2 POP POP JUMP JUMPDEST PUSH1 0x0 PUSH2 0x2D95 DUP3 PUSH2 0x2D74 JUMP JUMPDEST PUSH2 0x2D9F DUP2 DUP6 PUSH2 0x2D7F JUMP JUMPDEST SWAP4 POP PUSH2 0x2DAF DUP2 DUP6 PUSH1 0x20 DUP7 ADD PUSH2 0x2275 JUMP JUMPDEST DUP1 DUP5 ADD SWAP2 POP POP SWAP3 SWAP2 POP POP JUMP JUMPDEST PUSH1 0x0 PUSH2 0x2DC7 DUP3 DUP5 PUSH2 0x2D8A JUMP JUMPDEST SWAP2 POP DUP2 SWAP1 POP SWAP3 SWAP2 POP POP JUMP JUMPDEST PUSH32 0x416464726573733A2063616C6C20746F206E6F6E2D636F6E7472616374000000 PUSH1 0x0 DUP3 ADD MSTORE POP JUMP JUMPDEST PUSH1 0x0 PUSH2 0x2E08 PUSH1 0x1D DUP4 PUSH2 0x2264 JUMP JUMPDEST SWAP2 POP PUSH2 0x2E13 DUP3 PUSH2 0x2DD2 JUMP JUMPDEST PUSH1 0x20 DUP3 ADD SWAP1 POP SWAP2 SWAP1 POP JUMP JUMPDEST PUSH1 0x0 PUSH1 0x20 DUP3 ADD SWAP1 POP DUP2 DUP2 SUB PUSH1 0x0 DUP4 ADD MSTORE PUSH2 0x2E37 DUP2 PUSH2 0x2DFB JUMP JUMPDEST SWAP1 POP SWAP2 SWAP1 POP JUMP INVALID COINBASE PUSH5 0x6472657373 GASPRICE KECCAK256 PUSH13 0x6F772D6C6576656C2064656C65 PUSH8 0x6174652063616C6C KECCAK256 PUSH7 0x61696C6564A264 PUSH10 0x70667358221220EDA62B 0x5C SWAP14 0xD 0xC2 CODECOPY 0xCD 0xD1 ISZERO MOD 0x29 DUP3 PUSH15 0x9AD5B48993D0E30C0D9D8C47DE2918 DUP9 DUP12 PUSH5 0x736F6C6343 STOP ADDMOD SGT STOP CALLER "},"methodIdentifiers":{"auctionEnded()":"86433374","bid(uint256)":"454a2ab3","bidderTokens(address)":"30a01258","bidders(uint256)":"cff29dfd","endsAtBlockNumber()":"a7b7dcfd","erc20TokenReference()":"eb0d1e92","finalPrice()":"a6b513ee","getCurrentPrice()":"eb91d37e","initialPrice()":"1d0806ae","initialize(address,address,uint256,uint256,uint256,uint256)":"86489ba9","nftTokenId()":"7e830574","nfterc721Reference()":"0c298750","numBlocksAuctionOpen()":"3103ea62","offerPriceDecrement()":"d3642a88","owner()":"8da5cb5b","proxiableUUID()":"52d1902d","renounceOwnership()":"715018a6","reservePrice()":"db2e1eed","startAtBlockNumber()":"56eeb3b0","totalBidTokens()":"4362237e","transferOwnership(address)":"f2fde38b","upgradeNumber()":"eb8bf84d","upgradeTo(address)":"3659cfe6","upgradeToAndCall(address,bytes)":"4f1ef286"}},"storageLayout":{"storage":[{"astId":503,"contract":"contracts/NFT_ERC20.sol:NFTDutchAuction_ERC20Bids","label":"_initialized","offset":0,"slot":"0","type":"t_uint8"},{"astId":506,"contract":"contracts/NFT_ERC20.sol:NFTDutchAuction_ERC20Bids","label":"_initializing","offset":1,"slot":"0","type":"t_bool"},{"astId":1172,"contract":"contracts/NFT_ERC20.sol:NFTDutchAuction_ERC20Bids","label":"__gap","offset":0,"slot":"1","type":"t_array(t_uint256)50_storage"},{"astId":10,"contract":"contracts/NFT_ERC20.sol:NFTDutchAuction_ERC20Bids","label":"_owner","offset":0,"slot":"51","type":"t_address"},{"astId":130,"contract":"contracts/NFT_ERC20.sol:NFTDutchAuction_ERC20Bids","label":"__gap","offset":0,"slot":"52","type":"t_array(t_uint256)49_storage"},{"astId":485,"contract":"contracts/NFT_ERC20.sol:NFTDutchAuction_ERC20Bids","label":"__gap","offset":0,"slot":"101","type":"t_array(t_uint256)50_storage"},{"astId":800,"contract":"contracts/NFT_ERC20.sol:NFTDutchAuction_ERC20Bids","label":"__gap","offset":0,"slot":"151","type":"t_array(t_uint256)50_storage"},{"astId":5815,"contract":"contracts/NFT_ERC20.sol:NFTDutchAuction_ERC20Bids","label":"_tokenIdCounter","offset":0,"slot":"201","type":"t_struct(Counter)4209_storage"},{"astId":5818,"contract":"contracts/NFT_ERC20.sol:NFTDutchAuction_ERC20Bids","label":"nfterc721Reference","offset":0,"slot":"202","type":"t_contract(IERC721)3265"},{"astId":5821,"contract":"contracts/NFT_ERC20.sol:NFTDutchAuction_ERC20Bids","label":"erc20TokenReference","offset":0,"slot":"203","type":"t_contract(IERC20)2197"},{"astId":5823,"contract":"contracts/NFT_ERC20.sol:NFTDutchAuction_ERC20Bids","label":"nftTokenId","offset":0,"slot":"204","type":"t_uint256"},{"astId":5825,"contract":"contracts/NFT_ERC20.sol:NFTDutchAuction_ERC20Bids","label":"reservePrice","offset":0,"slot":"205","type":"t_uint256"},{"astId":5827,"contract":"contracts/NFT_ERC20.sol:NFTDutchAuction_ERC20Bids","label":"numBlocksAuctionOpen","offset":0,"slot":"206","type":"t_uint256"},{"astId":5829,"contract":"contracts/NFT_ERC20.sol:NFTDutchAuction_ERC20Bids","label":"offerPriceDecrement","offset":0,"slot":"207","type":"t_uint256"},{"astId":5831,"contract":"contracts/NFT_ERC20.sol:NFTDutchAuction_ERC20Bids","label":"startAtBlockNumber","offset":0,"slot":"208","type":"t_uint256"},{"astId":5833,"contract":"contracts/NFT_ERC20.sol:NFTDutchAuction_ERC20Bids","label":"endsAtBlockNumber","offset":0,"slot":"209","type":"t_uint256"},{"astId":5835,"contract":"contracts/NFT_ERC20.sol:NFTDutchAuction_ERC20Bids","label":"initialPrice","offset":0,"slot":"210","type":"t_uint256"},{"astId":5837,"contract":"contracts/NFT_ERC20.sol:NFTDutchAuction_ERC20Bids","label":"finalPrice","offset":0,"slot":"211","type":"t_uint256"},{"astId":5841,"contract":"contracts/NFT_ERC20.sol:NFTDutchAuction_ERC20Bids","label":"bidderTokens","offset":0,"slot":"212","type":"t_mapping(t_address,t_uint256)"},{"astId":5844,"contract":"contracts/NFT_ERC20.sol:NFTDutchAuction_ERC20Bids","label":"bidders","offset":0,"slot":"213","type":"t_array(t_address)dyn_storage"},{"astId":5846,"contract":"contracts/NFT_ERC20.sol:NFTDutchAuction_ERC20Bids","label":"totalBidTokens","offset":0,"slot":"214","type":"t_uint256"},{"astId":5848,"contract":"contracts/NFT_ERC20.sol:NFTDutchAuction_ERC20Bids","label":"auctionEnded","offset":0,"slot":"215","type":"t_bool"},{"astId":5850,"contract":"contracts/NFT_ERC20.sol:NFTDutchAuction_ERC20Bids","label":"upgradeNumber","offset":0,"slot":"216","type":"t_string_storage"}],"types":{"t_address":{"encoding":"inplace","label":"address","numberOfBytes":"20"},"t_array(t_address)dyn_storage":{"base":"t_address","encoding":"dynamic_array","label":"address[]","numberOfBytes":"32"},"t_array(t_uint256)49_storage":{"base":"t_uint256","encoding":"inplace","label":"uint256[49]","numberOfBytes":"1568"},"t_array(t_uint256)50_storage":{"base":"t_uint256","encoding":"inplace","label":"uint256[50]","numberOfBytes":"1600"},"t_bool":{"encoding":"inplace","label":"bool","numberOfBytes":"1"},"t_contract(IERC20)2197":{"encoding":"inplace","label":"contract IERC20","numberOfBytes":"20"},"t_contract(IERC721)3265":{"encoding":"inplace","label":"contract IERC721","numberOfBytes":"20"},"t_mapping(t_address,t_uint256)":{"encoding":"mapping","key":"t_address","label":"mapping(address => uint256)","numberOfBytes":"32","value":"t_uint256"},"t_string_storage":{"encoding":"bytes","label":"string","numberOfBytes":"32"},"t_struct(Counter)4209_storage":{"encoding":"inplace","label":"struct Counters.Counter","members":[{"astId":4208,"contract":"contracts/NFT_ERC20.sol:NFTDutchAuction_ERC20Bids","label":"_value","offset":0,"slot":"0","type":"t_uint256"}],"numberOfBytes":"32"},"t_uint256":{"encoding":"inplace","label":"uint256","numberOfBytes":"32"},"t_uint8":{"encoding":"inplace","label":"uint8","numberOfBytes":"1"}}}}}}