{"contracts/NFT_ERC20.sol":{"NFTDutchAuction_ERC20Bids":{"abi":[{"anonymous":false,"inputs":[{"indexed":false,"internalType":"address","name":"previousAdmin","type":"address"},{"indexed":false,"internalType":"address","name":"newAdmin","type":"address"}],"name":"AdminChanged","type":"event"},{"anonymous":false,"inputs":[{"indexed":true,"internalType":"address","name":"beacon","type":"address"}],"name":"BeaconUpgraded","type":"event"},{"anonymous":false,"inputs":[{"indexed":false,"internalType":"uint8","name":"version","type":"uint8"}],"name":"Initialized","type":"event"},{"anonymous":false,"inputs":[{"indexed":true,"internalType":"address","name":"previousOwner","type":"address"},{"indexed":true,"internalType":"address","name":"newOwner","type":"address"}],"name":"OwnershipTransferred","type":"event"},{"anonymous":false,"inputs":[{"indexed":true,"internalType":"address","name":"implementation","type":"address"}],"name":"Upgraded","type":"event"},{"inputs":[],"name":"auctionEnded","outputs":[{"internalType":"bool","name":"","type":"bool"}],"stateMutability":"view","type":"function"},{"inputs":[{"internalType":"uint256","name":"bidAmount","type":"uint256"}],"name":"bid","outputs":[{"internalType":"address","name":"","type":"address"}],"stateMutability":"nonpayable","type":"function"},{"inputs":[{"internalType":"address","name":"","type":"address"}],"name":"bidderTokens","outputs":[{"internalType":"uint256","name":"","type":"uint256"}],"stateMutability":"view","type":"function"},{"inputs":[{"internalType":"uint256","name":"","type":"uint256"}],"name":"bidders","outputs":[{"internalType":"address","name":"","type":"address"}],"stateMutability":"view","type":"function"},{"inputs":[],"name":"endsAtBlockNumber","outputs":[{"internalType":"uint256","name":"","type":"uint256"}],"stateMutability":"view","type":"function"},{"inputs":[],"name":"erc20TokenReference","outputs":[{"internalType":"contract IERC20","name":"","type":"address"}],"stateMutability":"view","type":"function"},{"inputs":[],"name":"finalPrice","outputs":[{"internalType":"uint256","name":"","type":"uint256"}],"stateMutability":"view","type":"function"},{"inputs":[],"name":"getCurrentPrice","outputs":[{"internalType":"uint256","name":"","type":"uint256"}],"stateMutability":"view","type":"function"},{"inputs":[],"name":"initialPrice","outputs":[{"internalType":"uint256","name":"","type":"uint256"}],"stateMutability":"view","type":"function"},{"inputs":[{"internalType":"address","name":"erc20TokenAddress","type":"address"},{"internalType":"address","name":"erc721TokenAddress","type":"address"},{"internalType":"uint256","name":"_nftTokenId","type":"uint256"},{"internalType":"uint256","name":"_reservePrice","type":"uint256"},{"internalType":"uint256","name":"_numBlocksAuctionOpen","type":"uint256"},{"internalType":"uint256","name":"_offerPriceDecrement","type":"uint256"}],"name":"initialize","outputs":[],"stateMutability":"nonpayable","type":"function"},{"inputs":[],"name":"nftTokenId","outputs":[{"internalType":"uint256","name":"","type":"uint256"}],"stateMutability":"view","type":"function"},{"inputs":[],"name":"nfterc721Reference","outputs":[{"internalType":"contract IERC721","name":"","type":"address"}],"stateMutability":"view","type":"function"},{"inputs":[],"name":"numBlocksAuctionOpen","outputs":[{"internalType":"uint256","name":"","type":"uint256"}],"stateMutability":"view","type":"function"},{"inputs":[],"name":"offerPriceDecrement","outputs":[{"internalType":"uint256","name":"","type":"uint256"}],"stateMutability":"view","type":"function"},{"inputs":[],"name":"owner","outputs":[{"internalType":"address","name":"","type":"address"}],"stateMutability":"view","type":"function"},{"inputs":[],"name":"proxiableUUID","outputs":[{"internalType":"bytes32","name":"","type":"bytes32"}],"stateMutability":"view","type":"function"},{"inputs":[],"name":"renounceOwnership","outputs":[],"stateMutability":"nonpayable","type":"function"},{"inputs":[],"name":"reservePrice","outputs":[{"internalType":"uint256","name":"","type":"uint256"}],"stateMutability":"view","type":"function"},{"inputs":[],"name":"startAtBlockNumber","outputs":[{"internalType":"uint256","name":"","type":"uint256"}],"stateMutability":"view","type":"function"},{"inputs":[],"name":"totalBidTokens","outputs":[{"internalType":"uint256","name":"","type":"uint256"}],"stateMutability":"view","type":"function"},{"inputs":[{"internalType":"address","name":"newOwner","type":"address"}],"name":"transferOwnership","outputs":[],"stateMutability":"nonpayable","type":"function"},{"inputs":[],"name":"upgradeNumber","outputs":[{"internalType":"string","name":"","type":"string"}],"stateMutability":"view","type":"function"},{"inputs":[{"internalType":"address","name":"newImplementation","type":"address"}],"name":"upgradeTo","outputs":[],"stateMutability":"nonpayable","type":"function"},{"inputs":[{"internalType":"address","name":"newImplementation","type":"address"},{"internalType":"bytes","name":"data","type":"bytes"}],"name":"upgradeToAndCall","outputs":[],"stateMutability":"payable","type":"function"}],"evm":{"bytecode":{"linkReferences":{},"object":"60a06040523073ffffffffffffffffffffffffffffffffffffffff1660809073ffffffffffffffffffffffffffffffffffffffff1681525034801561004357600080fd5b50608051612e8961007b600039600081816105b10152818161063f01528181610d7f01528181610e0d0152610ebd0152612e896000f3fe60806040526004361061014b5760003560e01c806386433374116100b6578063d3642a881161006f578063d3642a8814610465578063db2e1eed14610490578063eb0d1e92146104bb578063eb8bf84d146104e6578063eb91d37e14610511578063f2fde38b1461053c5761014b565b8063864333741461035357806386489ba91461037e5780638da5cb5b146103a7578063a6b513ee146103d2578063a7b7dcfd146103fd578063cff29dfd146104285761014b565b8063454a2ab311610108578063454a2ab3146102625780634f1ef2861461029f57806352d1902d146102bb57806356eeb3b0146102e6578063715018a6146103115780637e830574146103285761014b565b80630c298750146101505780631d0806ae1461017b57806330a01258146101a65780633103ea62146101e35780633659cfe61461020e5780634362237e14610237575b600080fd5b34801561015c57600080fd5b50610165610565565b6040516101729190611e21565b60405180910390f35b34801561018757600080fd5b5061019061058b565b60405161019d9190611e55565b60405180910390f35b3480156101b257600080fd5b506101cd60048036038101906101c89190611ec2565b610591565b6040516101da9190611e55565b60405180910390f35b3480156101ef57600080fd5b506101f86105a9565b6040516102059190611e55565b60405180910390f35b34801561021a57600080fd5b5061023560048036038101906102309190611ec2565b6105af565b005b34801561024357600080fd5b5061024c610737565b6040516102599190611e55565b60405180910390f35b34801561026e57600080fd5b5061028960048036038101906102849190611f1b565b61073d565b6040516102969190611f57565b60405180910390f35b6102b960048036038101906102b491906120b8565b610d7d565b005b3480156102c757600080fd5b506102d0610eb9565b6040516102dd919061212d565b60405180910390f35b3480156102f257600080fd5b506102fb610f72565b6040516103089190611e55565b60405180910390f35b34801561031d57600080fd5b50610326610f78565b005b34801561033457600080fd5b5061033d610f8c565b60405161034a9190611e55565b60405180910390f35b34801561035f57600080fd5b50610368610f92565b6040516103759190612163565b60405180910390f35b34801561038a57600080fd5b506103a560048036038101906103a0919061217e565b610fa5565b005b3480156103b357600080fd5b506103bc61137b565b6040516103c99190611f57565b60405180910390f35b3480156103de57600080fd5b506103e76113a5565b6040516103f49190611e55565b60405180910390f35b34801561040957600080fd5b506104126113ab565b60405161041f9190611e55565b60405180910390f35b34801561043457600080fd5b5061044f600480360381019061044a9190611f1b565b6113b1565b60405161045c9190611f57565b60405180910390f35b34801561047157600080fd5b5061047a6113f0565b6040516104879190611e55565b60405180910390f35b34801561049c57600080fd5b506104a56113f6565b6040516104b29190611e55565b60405180910390f35b3480156104c757600080fd5b506104d06113fc565b6040516104dd919061222c565b60405180910390f35b3480156104f257600080fd5b506104fb611422565b60405161050891906122c6565b60405180910390f35b34801561051d57600080fd5b506105266114b0565b6040516105339190611e55565b60405180910390f35b34801561054857600080fd5b50610563600480360381019061055e9190611ec2565b6115d6565b005b60ca60009054906101000a900473ffffffffffffffffffffffffffffffffffffffff1681565b60d25481565b60d46020528060005260406000206000915090505481565b60ce5481565b7f000000000000000000000000000000000000000000000000000000000000000073ffffffffffffffffffffffffffffffffffffffff163073ffffffffffffffffffffffffffffffffffffffff160361063d576040517f08c379a00000000000000000000000000000000000000000000000000000000081526004016106349061235a565b60405180910390fd5b7f000000000000000000000000000000000000000000000000000000000000000073ffffffffffffffffffffffffffffffffffffffff1661067c611659565b73ffffffffffffffffffffffffffffffffffffffff16146106d2576040517f08c379a00000000000000000000000000000000000000000000000000000000081526004016106c9906123ec565b60405180910390fd5b6106db816116b0565b61073481600067ffffffffffffffff8111156106fa576106f9611f8d565b5b6040519080825280601f01601f19166020018201604052801561072c5781602001600182028036833780820191505090505b5060006116f7565b50565b60d65481565b600061075367a790558533be0dee60c01b611865565b61076767bc4e67a16c98659f60c01b611865565b61077b67c8de7c0062bc51a760c01b611865565b61078f678b4f64ae7fd816a260c01b611865565b60d760009054906101000a900460ff16156107df576040517f08c379a00000000000000000000000000000000000000000000000000000000081526004016107d690612458565b60405180910390fd5b6107f367134e67cc6de8e8ce60c01b611865565b610807673df468ee6aab34df60c01b611865565b61081b67f2dc4ac296b271c360c01b611865565b60ce5460d0544361082c91906124a7565b111561087a5761084667560525adb7895d0160c01b611865565b61085a67b41dac99936c077260c01b611865565b600160d760006101000a81548160ff02191690831515021790555061088f565b61088e67687673974f662a8060c01b611865565b5b6108a3670dd7a11186aadfbb60c01b611865565b6108b767b39eea05a6c8b55a60c01b611865565b6108cb67741dab03408a6c6c60c01b611865565b60ce5460d054436108dc91906124a7565b111561091d576040517f08c379a000000000000000000000000000000000000000000000000000000000815260040161091490612527565b60405180910390fd5b6109316791bd68e30bf0443960c01b611865565b61094567e6c7d7dfd54a87a460c01b611865565b610959674ecd27c4508ad6eb60c01b611865565b600060d0544361096991906124a7565b905061097f67ed519d8d1442468160c01b611865565b61099367d0b5773a5afefc4760c01b611865565b6000600160cf54836109a59190612547565b6109af91906124a7565b60d2546109bc91906124a7565b90506109d2673e7156524a781b8c60c01b611865565b6109e667ff0d0576224c6ead60c01b611865565b6109fa6757ec4a6f8e9d97d960c01b611865565b80841015610a3d576040517f08c379a0000000000000000000000000000000000000000000000000000000008152600401610a34906125d5565b60405180910390fd5b610a5167492859cd4c4b342160c01b611865565b610a6567bebc2b1005ecb36b60c01b611865565b610a79675a253b48013c4d4160c01b611865565b610a8d67cae972032d081d4f60c01b611865565b60cb60009054906101000a900473ffffffffffffffffffffffffffffffffffffffff1673ffffffffffffffffffffffffffffffffffffffff1663dd62ed3e610ad361137b565b306040518363ffffffff1660e01b8152600401610af19291906125f5565b602060405180830381865afa158015610b0e573d6000803e3d6000fd5b505050506040513d601f19601f82011682018060405250810190610b329190612633565b841115610b74576040517f08c379a0000000000000000000000000000000000000000000000000000000008152600401610b6b906126f8565b60405180910390fd5b610b8867948f2093eade29b560c01b611865565b610b9c67d5fd92c1eb224c0160c01b611865565b610bb0679128deb940fcbfde60c01b611865565b60ca60009054906101000a900473ffffffffffffffffffffffffffffffffffffffff1673ffffffffffffffffffffffffffffffffffffffff166323b872dd610bf661137b565b3360cc546040518463ffffffff1660e01b8152600401610c1893929190612718565b600060405180830381600087803b158015610c3257600080fd5b505af1158015610c46573d6000803e3d6000fd5b50505050610c5e67f6a89b801e9e4db460c01b611865565b610c72673e70bbe5687ecdec60c01b611865565b60cb60009054906101000a900473ffffffffffffffffffffffffffffffffffffffff1673ffffffffffffffffffffffffffffffffffffffff166323b872dd33610cb961137b565b876040518463ffffffff1660e01b8152600401610cd893929190612718565b6020604051808303816000875af1158015610cf7573d6000803e3d6000fd5b505050506040513d601f19601f82011682018060405250810190610d1b919061277b565b50610d3067d1254e3573d7cdfc60c01b611865565b600160d760006101000a81548160ff021916908315150217905550610d5f67ea5fe9528357e4b060c01b611865565b610d7367f4b130350a266b6e60c01b611865565b3392505050919050565b7f000000000000000000000000000000000000000000000000000000000000000073ffffffffffffffffffffffffffffffffffffffff163073ffffffffffffffffffffffffffffffffffffffff1603610e0b576040517f08c379a0000000000000000000000000000000000000000000000000000000008152600401610e029061235a565b60405180910390fd5b7f000000000000000000000000000000000000000000000000000000000000000073ffffffffffffffffffffffffffffffffffffffff16610e4a611659565b73ffffffffffffffffffffffffffffffffffffffff1614610ea0576040517f08c379a0000000000000000000000000000000000000000000000000000000008152600401610e97906123ec565b60405180910390fd5b610ea9826116b0565b610eb5828260016116f7565b5050565b60007f000000000000000000000000000000000000000000000000000000000000000073ffffffffffffffffffffffffffffffffffffffff163073ffffffffffffffffffffffffffffffffffffffff1614610f49576040517f08c379a0000000000000000000000000000000000000000000000000000000008152600401610f409061281a565b60405180910390fd5b7f360894a13ba1a3210667c828492db98dca3e2076cc3735a920a3ca505d382bbc60001b905090565b60d05481565b610f80611868565b610f8a60006118e6565b565b60cc5481565b60d760009054906101000a900460ff1681565b610fb9673531fb82be0746b560c01b611865565b60008060019054906101000a900460ff16159050808015610fea5750600160008054906101000a900460ff1660ff16105b806110175750610ff9306119ac565b1580156110165750600160008054906101000a900460ff1660ff16145b5b611056576040517f08c379a000000000000000000000000000000000000000000000000000000000815260040161104d906128ac565b60405180910390fd5b60016000806101000a81548160ff021916908360ff1602179055508015611093576001600060016101000a81548160ff0219169083151502179055505b6110a767992377cf723548e060c01b611865565b6110bb67608026f5937ea73460c01b611865565b6110cf6756598630fd939c2460c01b611865565b6110e3670172323ccf68160b60c01b611865565b6110eb6119cf565b6110ff67697a7a724c6c5c1060c01b611865565b611113670391de0a79f2ab3f60c01b611865565b61111b611a28565b61112f6776f1e49ea896c9f160c01b611865565b61114367e81335b699ac2c3060c01b611865565b61114c336118e6565b611160679a25ca0e8e433a2e60c01b611865565b8560ca60006101000a81548173ffffffffffffffffffffffffffffffffffffffff021916908373ffffffffffffffffffffffffffffffffffffffff1602179055506111b5677bc270e884a6b97360c01b611865565b8660cb60006101000a81548173ffffffffffffffffffffffffffffffffffffffff021916908373ffffffffffffffffffffffffffffffffffffffff16021790555061120a672c388457fd44af4760c01b611865565b8460cc8190555061122567e3f756d7670138fd60c01b611865565b8360cd819055506112406709614378f82f465360c01b611865565b8260ce8190555061125b67aaa4b9416c554ac960c01b611865565b8160cf819055506112766766fbe7b2a3df531960c01b611865565b4360d081905550611291674e2484547580a5b660c01b611865565b60ce5460d0546112a191906128cc565b60d1819055506112bb67be0f45b66728838260c01b611865565b600160cf5460ce546112cd9190612547565b6112d791906124a7565b60cd546112e491906128cc565b60d2819055506112fe6753be996441ff37e760c01b611865565b600060d760006101000a81548160ff02191690831515021790555080156113725760008060016101000a81548160ff0219169083151502179055507f7f26b83ff96e1f2b6a682f133852f6798a09c465da95921460cefb384740249860016040516113699190612948565b60405180910390a15b50505050505050565b6000603360009054906101000a900473ffffffffffffffffffffffffffffffffffffffff16905090565b60d35481565b60d15481565b60d581815481106113c157600080fd5b906000526020600020016000915054906101000a900473ffffffffffffffffffffffffffffffffffffffff1681565b60cf5481565b60cd5481565b60cb60009054906101000a900473ffffffffffffffffffffffffffffffffffffffff1681565b60d8805461142f90612992565b80601f016020809104026020016040519081016040528092919081815260200182805461145b90612992565b80156114a85780601f1061147d576101008083540402835291602001916114a8565b820191906000526020600020905b81548152906001019060200180831161148b57829003601f168201915b505050505081565b60006114c667455f140ec1ea898d60c01b611865565b6114da67cb070dc9e483d96860c01b611865565b6114ee679f9f06a1bbd6bdde60c01b611865565b600060d054436114fe91906124a7565b90506115146786c7663762f389d060c01b611865565b61152867bf7f0b60387889b260c01b611865565b60ce5481106115785761154567661c3ac6d6a978ea60c01b611865565b61155967151999811010615860c01b611865565b61156d678c5818526ebf7f1c60c01b611865565b60cd549150506115d3565b61158c670175c995e0e8328160c01b611865565b6115a0675346f3248d41b20860c01b611865565b6115b467638fe0cc800c174960c01b611865565b60cf54816115c29190612547565b60d2546115cf91906124a7565b9150505b90565b6115de611868565b600073ffffffffffffffffffffffffffffffffffffffff168173ffffffffffffffffffffffffffffffffffffffff160361164d576040517f08c379a000000000000000000000000000000000000000000000000000000000815260040161164490612a35565b60405180910390fd5b611656816118e6565b50565b60006116877f360894a13ba1a3210667c828492db98dca3e2076cc3735a920a3ca505d382bbc60001b611a79565b60000160009054906101000a900473ffffffffffffffffffffffffffffffffffffffff16905090565b6116c467f7cac3fca5afa14060c01b611865565b6116cc611868565b6116e0673f80f60f172edeaf60c01b611865565b6116f467d73e7d5df766119f60c01b611865565b50565b6117237f4910fdfa16fed3260ed0e7147f7cc6da11a60208b5b9406d12a635614ffd914360001b611a83565b60000160009054906101000a900460ff16156117475761174283611a8d565b611860565b8273ffffffffffffffffffffffffffffffffffffffff166352d1902d6040518163ffffffff1660e01b8152600401602060405180830381865afa9250505080156117af57506040513d601f19601f820116820180604052508101906117ac9190612a81565b60015b6117ee576040517f08c379a00000000000000000000000000000000000000000000000000000000081526004016117e590612b20565b60405180910390fd5b7f360894a13ba1a3210667c828492db98dca3e2076cc3735a920a3ca505d382bbc60001b8114611853576040517f08c379a000000000000000000000000000000000000000000000000000000000815260040161184a90612bb2565b60405180910390fd5b5061185f838383611b46565b5b505050565b50565b611870611b72565b73ffffffffffffffffffffffffffffffffffffffff1661188e61137b565b73ffffffffffffffffffffffffffffffffffffffff16146118e4576040517f08c379a00000000000000000000000000000000000000000000000000000000081526004016118db90612c1e565b60405180910390fd5b565b6000603360009054906101000a900473ffffffffffffffffffffffffffffffffffffffff16905081603360006101000a81548173ffffffffffffffffffffffffffffffffffffffff021916908373ffffffffffffffffffffffffffffffffffffffff1602179055508173ffffffffffffffffffffffffffffffffffffffff168173ffffffffffffffffffffffffffffffffffffffff167f8be0079c531659141344cd1fd0a4f28419497f9722a3daafe3b4186f6b6457e060405160405180910390a35050565b6000808273ffffffffffffffffffffffffffffffffffffffff163b119050919050565b600060019054906101000a900460ff16611a1e576040517f08c379a0000000000000000000000000000000000000000000000000000000008152600401611a1590612cb0565b60405180910390fd5b611a26611b7a565b565b600060019054906101000a900460ff16611a77576040517f08c379a0000000000000000000000000000000000000000000000000000000008152600401611a6e90612cb0565b60405180910390fd5b565b6000819050919050565b6000819050919050565b611a96816119ac565b611ad5576040517f08c379a0000000000000000000000000000000000000000000000000000000008152600401611acc90612d42565b60405180910390fd5b80611b027f360894a13ba1a3210667c828492db98dca3e2076cc3735a920a3ca505d382bbc60001b611a79565b60000160006101000a81548173ffffffffffffffffffffffffffffffffffffffff021916908373ffffffffffffffffffffffffffffffffffffffff16021790555050565b611b4f83611bdb565b600082511180611b5c5750805b15611b6d57611b6b8383611c2a565b505b505050565b600033905090565b600060019054906101000a900460ff16611bc9576040517f08c379a0000000000000000000000000000000000000000000000000000000008152600401611bc090612cb0565b60405180910390fd5b611bd9611bd4611b72565b6118e6565b565b611be481611a8d565b8073ffffffffffffffffffffffffffffffffffffffff167fbc7cd75a20ee27fd9adebab32041f755214dbc6bffa90cc0225b39da2e5c2d3b60405160405180910390a250565b6060611c4f8383604051806060016040528060278152602001612e2d60279139611c57565b905092915050565b60606000808573ffffffffffffffffffffffffffffffffffffffff1685604051611c819190612da9565b600060405180830381855af49150503d8060008114611cbc576040519150601f19603f3d011682016040523d82523d6000602084013e611cc1565b606091505b5091509150611cd286838387611cdd565b925050509392505050565b60608315611d3f576000835103611d3757611cf7856119ac565b611d36576040517f08c379a0000000000000000000000000000000000000000000000000000000008152600401611d2d90612e0c565b60405180910390fd5b5b829050611d4a565b611d498383611d52565b5b949350505050565b600082511115611d655781518083602001fd5b806040517f08c379a0000000000000000000000000000000000000000000000000000000008152600401611d9991906122c6565b60405180910390fd5b600073ffffffffffffffffffffffffffffffffffffffff82169050919050565b6000819050919050565b6000611de7611de2611ddd84611da2565b611dc2565b611da2565b9050919050565b6000611df982611dcc565b9050919050565b6000611e0b82611dee565b9050919050565b611e1b81611e00565b82525050565b6000602082019050611e366000830184611e12565b92915050565b6000819050919050565b611e4f81611e3c565b82525050565b6000602082019050611e6a6000830184611e46565b92915050565b6000604051905090565b600080fd5b600080fd5b6000611e8f82611da2565b9050919050565b611e9f81611e84565b8114611eaa57600080fd5b50565b600081359050611ebc81611e96565b92915050565b600060208284031215611ed857611ed7611e7a565b5b6000611ee684828501611ead565b91505092915050565b611ef881611e3c565b8114611f0357600080fd5b50565b600081359050611f1581611eef565b92915050565b600060208284031215611f3157611f30611e7a565b5b6000611f3f84828501611f06565b91505092915050565b611f5181611e84565b82525050565b6000602082019050611f6c6000830184611f48565b92915050565b600080fd5b600080fd5b6000601f19601f8301169050919050565b7f4e487b7100000000000000000000000000000000000000000000000000000000600052604160045260246000fd5b611fc582611f7c565b810181811067ffffffffffffffff82111715611fe457611fe3611f8d565b5b80604052505050565b6000611ff7611e70565b90506120038282611fbc565b919050565b600067ffffffffffffffff82111561202357612022611f8d565b5b61202c82611f7c565b9050602081019050919050565b82818337600083830152505050565b600061205b61205684612008565b611fed565b90508281526020810184848401111561207757612076611f77565b5b612082848285612039565b509392505050565b600082601f83011261209f5761209e611f72565b5b81356120af848260208601612048565b91505092915050565b600080604083850312156120cf576120ce611e7a565b5b60006120dd85828601611ead565b925050602083013567ffffffffffffffff8111156120fe576120fd611e7f565b5b61210a8582860161208a565b9150509250929050565b6000819050919050565b61212781612114565b82525050565b6000602082019050612142600083018461211e565b92915050565b60008115159050919050565b61215d81612148565b82525050565b60006020820190506121786000830184612154565b92915050565b60008060008060008060c0878903121561219b5761219a611e7a565b5b60006121a989828a01611ead565b96505060206121ba89828a01611ead565b95505060406121cb89828a01611f06565b94505060606121dc89828a01611f06565b93505060806121ed89828a01611f06565b92505060a06121fe89828a01611f06565b9150509295509295509295565b600061221682611dee565b9050919050565b6122268161220b565b82525050565b6000602082019050612241600083018461221d565b92915050565b600081519050919050565b600082825260208201905092915050565b60005b83811015612281578082015181840152602081019050612266565b60008484015250505050565b600061229882612247565b6122a28185612252565b93506122b2818560208601612263565b6122bb81611f7c565b840191505092915050565b600060208201905081810360008301526122e0818461228d565b905092915050565b7f46756e6374696f6e206d7573742062652063616c6c6564207468726f7567682060008201527f64656c656761746563616c6c0000000000000000000000000000000000000000602082015250565b6000612344602c83612252565b915061234f826122e8565b604082019050919050565b6000602082019050818103600083015261237381612337565b9050919050565b7f46756e6374696f6e206d7573742062652063616c6c6564207468726f7567682060008201527f6163746976652070726f78790000000000000000000000000000000000000000602082015250565b60006123d6602c83612252565b91506123e18261237a565b604082019050919050565b60006020820190508181036000830152612405816123c9565b9050919050565b7f41756374696f6e2068617320616c726561647920656e64656400000000000000600082015250565b6000612442601983612252565b915061244d8261240c565b602082019050919050565b6000602082019050818103600083015261247181612435565b9050919050565b7f4e487b7100000000000000000000000000000000000000000000000000000000600052601160045260246000fd5b60006124b282611e3c565b91506124bd83611e3c565b92508282039050818111156124d5576124d4612478565b5b92915050565b7f41756374696f6e20456e64656400000000000000000000000000000000000000600082015250565b6000612511600d83612252565b915061251c826124db565b602082019050919050565b6000602082019050818103600083015261254081612504565b9050919050565b600061255282611e3c565b915061255d83611e3c565b925082820261256b81611e3c565b9150828204841483151761258257612581612478565b5b5092915050565b7f5468652062696420616d6f756e742073656e7420697320746f6f206c6f770000600082015250565b60006125bf601e83612252565b91506125ca82612589565b602082019050919050565b600060208201905081810360008301526125ee816125b2565b9050919050565b600060408201905061260a6000830185611f48565b6126176020830184611f48565b9392505050565b60008151905061262d81611eef565b92915050565b60006020828403121561264957612648611e7a565b5b60006126578482850161261e565b91505092915050565b7f42696420616d6f756e742061636365707465642c20627574206269642066616960008201527f6c65642062656361757365206e6f7420656e6f7567682062616c616e6365207460208201527f6f207472616e7366657220657263323020746f6b656e00000000000000000000604082015250565b60006126e2605683612252565b91506126ed82612660565b606082019050919050565b60006020820190508181036000830152612711816126d5565b9050919050565b600060608201905061272d6000830186611f48565b61273a6020830185611f48565b6127476040830184611e46565b949350505050565b61275881612148565b811461276357600080fd5b50565b6000815190506127758161274f565b92915050565b60006020828403121561279157612790611e7a565b5b600061279f84828501612766565b91505092915050565b7f555550535570677261646561626c653a206d757374206e6f742062652063616c60008201527f6c6564207468726f7567682064656c656761746563616c6c0000000000000000602082015250565b6000612804603883612252565b915061280f826127a8565b604082019050919050565b60006020820190508181036000830152612833816127f7565b9050919050565b7f496e697469616c697a61626c653a20636f6e747261637420697320616c72656160008201527f647920696e697469616c697a6564000000000000000000000000000000000000602082015250565b6000612896602e83612252565b91506128a18261283a565b604082019050919050565b600060208201905081810360008301526128c581612889565b9050919050565b60006128d782611e3c565b91506128e283611e3c565b92508282019050808211156128fa576128f9612478565b5b92915050565b6000819050919050565b600060ff82169050919050565b600061293261292d61292884612900565b611dc2565b61290a565b9050919050565b61294281612917565b82525050565b600060208201905061295d6000830184612939565b92915050565b7f4e487b7100000000000000000000000000000000000000000000000000000000600052602260045260246000fd5b600060028204905060018216806129aa57607f821691505b6020821081036129bd576129bc612963565b5b50919050565b7f4f776e61626c653a206e6577206f776e657220697320746865207a65726f206160008201527f6464726573730000000000000000000000000000000000000000000000000000602082015250565b6000612a1f602683612252565b9150612a2a826129c3565b604082019050919050565b60006020820190508181036000830152612a4e81612a12565b9050919050565b612a5e81612114565b8114612a6957600080fd5b50565b600081519050612a7b81612a55565b92915050565b600060208284031215612a9757612a96611e7a565b5b6000612aa584828501612a6c565b91505092915050565b7f45524331393637557067726164653a206e657720696d706c656d656e7461746960008201527f6f6e206973206e6f742055555053000000000000000000000000000000000000602082015250565b6000612b0a602e83612252565b9150612b1582612aae565b604082019050919050565b60006020820190508181036000830152612b3981612afd565b9050919050565b7f45524331393637557067726164653a20756e737570706f727465642070726f7860008201527f6961626c65555549440000000000000000000000000000000000000000000000602082015250565b6000612b9c602983612252565b9150612ba782612b40565b604082019050919050565b60006020820190508181036000830152612bcb81612b8f565b9050919050565b7f4f776e61626c653a2063616c6c6572206973206e6f7420746865206f776e6572600082015250565b6000612c08602083612252565b9150612c1382612bd2565b602082019050919050565b60006020820190508181036000830152612c3781612bfb565b9050919050565b7f496e697469616c697a61626c653a20636f6e7472616374206973206e6f74206960008201527f6e697469616c697a696e67000000000000000000000000000000000000000000602082015250565b6000612c9a602b83612252565b9150612ca582612c3e565b604082019050919050565b60006020820190508181036000830152612cc981612c8d565b9050919050565b7f455243313936373a206e657720696d706c656d656e746174696f6e206973206e60008201527f6f74206120636f6e747261637400000000000000000000000000000000000000602082015250565b6000612d2c602d83612252565b9150612d3782612cd0565b604082019050919050565b60006020820190508181036000830152612d5b81612d1f565b9050919050565b600081519050919050565b600081905092915050565b6000612d8382612d62565b612d8d8185612d6d565b9350612d9d818560208601612263565b80840191505092915050565b6000612db58284612d78565b915081905092915050565b7f416464726573733a2063616c6c20746f206e6f6e2d636f6e7472616374000000600082015250565b6000612df6601d83612252565b9150612e0182612dc0565b602082019050919050565b60006020820190508181036000830152612e2581612de9565b905091905056fe416464726573733a206c6f772d6c6576656c2064656c65676174652063616c6c206661696c6564a264697066735822122045eaf8bd64c427e0eb5aa1f91e98501b17064ecba5ef3b1268eba8841877ed3a64736f6c63430008120033","opcodes":"PUSH1 0xA0 PUSH1 0x40 MSTORE ADDRESS PUSH20 0xFFFFFFFFFFFFFFFFFFFFFFFFFFFFFFFFFFFFFFFF AND PUSH1 0x80 SWAP1 PUSH20 0xFFFFFFFFFFFFFFFFFFFFFFFFFFFFFFFFFFFFFFFF AND DUP2 MSTORE POP CALLVALUE DUP1 ISZERO PUSH2 0x43 JUMPI PUSH1 0x0 DUP1 REVERT JUMPDEST POP PUSH1 0x80 MLOAD PUSH2 0x2E89 PUSH2 0x7B PUSH1 0x0 CODECOPY PUSH1 0x0 DUP2 DUP2 PUSH2 0x5B1 ADD MSTORE DUP2 DUP2 PUSH2 0x63F ADD MSTORE DUP2 DUP2 PUSH2 0xD7F ADD MSTORE DUP2 DUP2 PUSH2 0xE0D ADD MSTORE PUSH2 0xEBD ADD MSTORE PUSH2 0x2E89 PUSH1 0x0 RETURN INVALID PUSH1 0x80 PUSH1 0x40 MSTORE PUSH1 0x4 CALLDATASIZE LT PUSH2 0x14B JUMPI PUSH1 0x0 CALLDATALOAD PUSH1 0xE0 SHR DUP1 PUSH4 0x86433374 GT PUSH2 0xB6 JUMPI DUP1 PUSH4 0xD3642A88 GT PUSH2 0x6F JUMPI DUP1 PUSH4 0xD3642A88 EQ PUSH2 0x465 JUMPI DUP1 PUSH4 0xDB2E1EED EQ PUSH2 0x490 JUMPI DUP1 PUSH4 0xEB0D1E92 EQ PUSH2 0x4BB JUMPI DUP1 PUSH4 0xEB8BF84D EQ PUSH2 0x4E6 JUMPI DUP1 PUSH4 0xEB91D37E EQ PUSH2 0x511 JUMPI DUP1 PUSH4 0xF2FDE38B EQ PUSH2 0x53C JUMPI PUSH2 0x14B JUMP JUMPDEST DUP1 PUSH4 0x86433374 EQ PUSH2 0x353 JUMPI DUP1 PUSH4 0x86489BA9 EQ PUSH2 0x37E JUMPI DUP1 PUSH4 0x8DA5CB5B EQ PUSH2 0x3A7 JUMPI DUP1 PUSH4 0xA6B513EE EQ PUSH2 0x3D2 JUMPI DUP1 PUSH4 0xA7B7DCFD EQ PUSH2 0x3FD JUMPI DUP1 PUSH4 0xCFF29DFD EQ PUSH2 0x428 JUMPI PUSH2 0x14B JUMP JUMPDEST DUP1 PUSH4 0x454A2AB3 GT PUSH2 0x108 JUMPI DUP1 PUSH4 0x454A2AB3 EQ PUSH2 0x262 JUMPI DUP1 PUSH4 0x4F1EF286 EQ PUSH2 0x29F JUMPI DUP1 PUSH4 0x52D1902D EQ PUSH2 0x2BB JUMPI DUP1 PUSH4 0x56EEB3B0 EQ PUSH2 0x2E6 JUMPI DUP1 PUSH4 0x715018A6 EQ PUSH2 0x311 JUMPI DUP1 PUSH4 0x7E830574 EQ PUSH2 0x328 JUMPI PUSH2 0x14B JUMP JUMPDEST DUP1 PUSH4 0xC298750 EQ PUSH2 0x150 JUMPI DUP1 PUSH4 0x1D0806AE EQ PUSH2 0x17B JUMPI DUP1 PUSH4 0x30A01258 EQ PUSH2 0x1A6 JUMPI DUP1 PUSH4 0x3103EA62 EQ PUSH2 0x1E3 JUMPI DUP1 PUSH4 0x3659CFE6 EQ PUSH2 0x20E JUMPI DUP1 PUSH4 0x4362237E EQ PUSH2 0x237 JUMPI JUMPDEST PUSH1 0x0 DUP1 REVERT JUMPDEST CALLVALUE DUP1 ISZERO PUSH2 0x15C JUMPI PUSH1 0x0 DUP1 REVERT JUMPDEST POP PUSH2 0x165 PUSH2 0x565 JUMP JUMPDEST PUSH1 0x40 MLOAD PUSH2 0x172 SWAP2 SWAP1 PUSH2 0x1E21 JUMP JUMPDEST PUSH1 0x40 MLOAD DUP1 SWAP2 SUB SWAP1 RETURN JUMPDEST CALLVALUE DUP1 ISZERO PUSH2 0x187 JUMPI PUSH1 0x0 DUP1 REVERT JUMPDEST POP PUSH2 0x190 PUSH2 0x58B JUMP JUMPDEST PUSH1 0x40 MLOAD PUSH2 0x19D SWAP2 SWAP1 PUSH2 0x1E55 JUMP JUMPDEST PUSH1 0x40 MLOAD DUP1 SWAP2 SUB SWAP1 RETURN JUMPDEST CALLVALUE DUP1 ISZERO PUSH2 0x1B2 JUMPI PUSH1 0x0 DUP1 REVERT JUMPDEST POP PUSH2 0x1CD PUSH1 0x4 DUP1 CALLDATASIZE SUB DUP2 ADD SWAP1 PUSH2 0x1C8 SWAP2 SWAP1 PUSH2 0x1EC2 JUMP JUMPDEST PUSH2 0x591 JUMP JUMPDEST PUSH1 0x40 MLOAD PUSH2 0x1DA SWAP2 SWAP1 PUSH2 0x1E55 JUMP JUMPDEST PUSH1 0x40 MLOAD DUP1 SWAP2 SUB SWAP1 RETURN JUMPDEST CALLVALUE DUP1 ISZERO PUSH2 0x1EF JUMPI PUSH1 0x0 DUP1 REVERT JUMPDEST POP PUSH2 0x1F8 PUSH2 0x5A9 JUMP JUMPDEST PUSH1 0x40 MLOAD PUSH2 0x205 SWAP2 SWAP1 PUSH2 0x1E55 JUMP JUMPDEST PUSH1 0x40 MLOAD DUP1 SWAP2 SUB SWAP1 RETURN JUMPDEST CALLVALUE DUP1 ISZERO PUSH2 0x21A JUMPI PUSH1 0x0 DUP1 REVERT JUMPDEST POP PUSH2 0x235 PUSH1 0x4 DUP1 CALLDATASIZE SUB DUP2 ADD SWAP1 PUSH2 0x230 SWAP2 SWAP1 PUSH2 0x1EC2 JUMP JUMPDEST PUSH2 0x5AF JUMP JUMPDEST STOP JUMPDEST CALLVALUE DUP1 ISZERO PUSH2 0x243 JUMPI PUSH1 0x0 DUP1 REVERT JUMPDEST POP PUSH2 0x24C PUSH2 0x737 JUMP JUMPDEST PUSH1 0x40 MLOAD PUSH2 0x259 SWAP2 SWAP1 PUSH2 0x1E55 JUMP JUMPDEST PUSH1 0x40 MLOAD DUP1 SWAP2 SUB SWAP1 RETURN JUMPDEST CALLVALUE DUP1 ISZERO PUSH2 0x26E JUMPI PUSH1 0x0 DUP1 REVERT JUMPDEST POP PUSH2 0x289 PUSH1 0x4 DUP1 CALLDATASIZE SUB DUP2 ADD SWAP1 PUSH2 0x284 SWAP2 SWAP1 PUSH2 0x1F1B JUMP JUMPDEST PUSH2 0x73D JUMP JUMPDEST PUSH1 0x40 MLOAD PUSH2 0x296 SWAP2 SWAP1 PUSH2 0x1F57 JUMP JUMPDEST PUSH1 0x40 MLOAD DUP1 SWAP2 SUB SWAP1 RETURN JUMPDEST PUSH2 0x2B9 PUSH1 0x4 DUP1 CALLDATASIZE SUB DUP2 ADD SWAP1 PUSH2 0x2B4 SWAP2 SWAP1 PUSH2 0x20B8 JUMP JUMPDEST PUSH2 0xD7D JUMP JUMPDEST STOP JUMPDEST CALLVALUE DUP1 ISZERO PUSH2 0x2C7 JUMPI PUSH1 0x0 DUP1 REVERT JUMPDEST POP PUSH2 0x2D0 PUSH2 0xEB9 JUMP JUMPDEST PUSH1 0x40 MLOAD PUSH2 0x2DD SWAP2 SWAP1 PUSH2 0x212D JUMP JUMPDEST PUSH1 0x40 MLOAD DUP1 SWAP2 SUB SWAP1 RETURN JUMPDEST CALLVALUE DUP1 ISZERO PUSH2 0x2F2 JUMPI PUSH1 0x0 DUP1 REVERT JUMPDEST POP PUSH2 0x2FB PUSH2 0xF72 JUMP JUMPDEST PUSH1 0x40 MLOAD PUSH2 0x308 SWAP2 SWAP1 PUSH2 0x1E55 JUMP JUMPDEST PUSH1 0x40 MLOAD DUP1 SWAP2 SUB SWAP1 RETURN JUMPDEST CALLVALUE DUP1 ISZERO PUSH2 0x31D JUMPI PUSH1 0x0 DUP1 REVERT JUMPDEST POP PUSH2 0x326 PUSH2 0xF78 JUMP JUMPDEST STOP JUMPDEST CALLVALUE DUP1 ISZERO PUSH2 0x334 JUMPI PUSH1 0x0 DUP1 REVERT JUMPDEST POP PUSH2 0x33D PUSH2 0xF8C JUMP JUMPDEST PUSH1 0x40 MLOAD PUSH2 0x34A SWAP2 SWAP1 PUSH2 0x1E55 JUMP JUMPDEST PUSH1 0x40 MLOAD DUP1 SWAP2 SUB SWAP1 RETURN JUMPDEST CALLVALUE DUP1 ISZERO PUSH2 0x35F JUMPI PUSH1 0x0 DUP1 REVERT JUMPDEST POP PUSH2 0x368 PUSH2 0xF92 JUMP JUMPDEST PUSH1 0x40 MLOAD PUSH2 0x375 SWAP2 SWAP1 PUSH2 0x2163 JUMP JUMPDEST PUSH1 0x40 MLOAD DUP1 SWAP2 SUB SWAP1 RETURN JUMPDEST CALLVALUE DUP1 ISZERO PUSH2 0x38A JUMPI PUSH1 0x0 DUP1 REVERT JUMPDEST POP PUSH2 0x3A5 PUSH1 0x4 DUP1 CALLDATASIZE SUB DUP2 ADD SWAP1 PUSH2 0x3A0 SWAP2 SWAP1 PUSH2 0x217E JUMP JUMPDEST PUSH2 0xFA5 JUMP JUMPDEST STOP JUMPDEST CALLVALUE DUP1 ISZERO PUSH2 0x3B3 JUMPI PUSH1 0x0 DUP1 REVERT JUMPDEST POP PUSH2 0x3BC PUSH2 0x137B JUMP JUMPDEST PUSH1 0x40 MLOAD PUSH2 0x3C9 SWAP2 SWAP1 PUSH2 0x1F57 JUMP JUMPDEST PUSH1 0x40 MLOAD DUP1 SWAP2 SUB SWAP1 RETURN JUMPDEST CALLVALUE DUP1 ISZERO PUSH2 0x3DE JUMPI PUSH1 0x0 DUP1 REVERT JUMPDEST POP PUSH2 0x3E7 PUSH2 0x13A5 JUMP JUMPDEST PUSH1 0x40 MLOAD PUSH2 0x3F4 SWAP2 SWAP1 PUSH2 0x1E55 JUMP JUMPDEST PUSH1 0x40 MLOAD DUP1 SWAP2 SUB SWAP1 RETURN JUMPDEST CALLVALUE DUP1 ISZERO PUSH2 0x409 JUMPI PUSH1 0x0 DUP1 REVERT JUMPDEST POP PUSH2 0x412 PUSH2 0x13AB JUMP JUMPDEST PUSH1 0x40 MLOAD PUSH2 0x41F SWAP2 SWAP1 PUSH2 0x1E55 JUMP JUMPDEST PUSH1 0x40 MLOAD DUP1 SWAP2 SUB SWAP1 RETURN JUMPDEST CALLVALUE DUP1 ISZERO PUSH2 0x434 JUMPI PUSH1 0x0 DUP1 REVERT JUMPDEST POP PUSH2 0x44F PUSH1 0x4 DUP1 CALLDATASIZE SUB DUP2 ADD SWAP1 PUSH2 0x44A SWAP2 SWAP1 PUSH2 0x1F1B JUMP JUMPDEST PUSH2 0x13B1 JUMP JUMPDEST PUSH1 0x40 MLOAD PUSH2 0x45C SWAP2 SWAP1 PUSH2 0x1F57 JUMP JUMPDEST PUSH1 0x40 MLOAD DUP1 SWAP2 SUB SWAP1 RETURN JUMPDEST CALLVALUE DUP1 ISZERO PUSH2 0x471 JUMPI PUSH1 0x0 DUP1 REVERT JUMPDEST POP PUSH2 0x47A PUSH2 0x13F0 JUMP JUMPDEST PUSH1 0x40 MLOAD PUSH2 0x487 SWAP2 SWAP1 PUSH2 0x1E55 JUMP JUMPDEST PUSH1 0x40 MLOAD DUP1 SWAP2 SUB SWAP1 RETURN JUMPDEST CALLVALUE DUP1 ISZERO PUSH2 0x49C JUMPI PUSH1 0x0 DUP1 REVERT JUMPDEST POP PUSH2 0x4A5 PUSH2 0x13F6 JUMP JUMPDEST PUSH1 0x40 MLOAD PUSH2 0x4B2 SWAP2 SWAP1 PUSH2 0x1E55 JUMP JUMPDEST PUSH1 0x40 MLOAD DUP1 SWAP2 SUB SWAP1 RETURN JUMPDEST CALLVALUE DUP1 ISZERO PUSH2 0x4C7 JUMPI PUSH1 0x0 DUP1 REVERT JUMPDEST POP PUSH2 0x4D0 PUSH2 0x13FC JUMP JUMPDEST PUSH1 0x40 MLOAD PUSH2 0x4DD SWAP2 SWAP1 PUSH2 0x222C JUMP JUMPDEST PUSH1 0x40 MLOAD DUP1 SWAP2 SUB SWAP1 RETURN JUMPDEST CALLVALUE DUP1 ISZERO PUSH2 0x4F2 JUMPI PUSH1 0x0 DUP1 REVERT JUMPDEST POP PUSH2 0x4FB PUSH2 0x1422 JUMP JUMPDEST PUSH1 0x40 MLOAD PUSH2 0x508 SWAP2 SWAP1 PUSH2 0x22C6 JUMP JUMPDEST PUSH1 0x40 MLOAD DUP1 SWAP2 SUB SWAP1 RETURN JUMPDEST CALLVALUE DUP1 ISZERO PUSH2 0x51D JUMPI PUSH1 0x0 DUP1 REVERT JUMPDEST POP PUSH2 0x526 PUSH2 0x14B0 JUMP JUMPDEST PUSH1 0x40 MLOAD PUSH2 0x533 SWAP2 SWAP1 PUSH2 0x1E55 JUMP JUMPDEST PUSH1 0x40 MLOAD DUP1 SWAP2 SUB SWAP1 RETURN JUMPDEST CALLVALUE DUP1 ISZERO PUSH2 0x548 JUMPI PUSH1 0x0 DUP1 REVERT JUMPDEST POP PUSH2 0x563 PUSH1 0x4 DUP1 CALLDATASIZE SUB DUP2 ADD SWAP1 PUSH2 0x55E SWAP2 SWAP1 PUSH2 0x1EC2 JUMP JUMPDEST PUSH2 0x15D6 JUMP JUMPDEST STOP JUMPDEST PUSH1 0xCA PUSH1 0x0 SWAP1 SLOAD SWAP1 PUSH2 0x100 EXP SWAP1 DIV PUSH20 0xFFFFFFFFFFFFFFFFFFFFFFFFFFFFFFFFFFFFFFFF AND DUP2 JUMP JUMPDEST PUSH1 0xD2 SLOAD DUP2 JUMP JUMPDEST PUSH1 0xD4 PUSH1 0x20 MSTORE DUP1 PUSH1 0x0 MSTORE PUSH1 0x40 PUSH1 0x0 KECCAK256 PUSH1 0x0 SWAP2 POP SWAP1 POP SLOAD DUP2 JUMP JUMPDEST PUSH1 0xCE SLOAD DUP2 JUMP JUMPDEST PUSH32 0x0 PUSH20 0xFFFFFFFFFFFFFFFFFFFFFFFFFFFFFFFFFFFFFFFF AND ADDRESS PUSH20 0xFFFFFFFFFFFFFFFFFFFFFFFFFFFFFFFFFFFFFFFF AND SUB PUSH2 0x63D JUMPI PUSH1 0x40 MLOAD PUSH32 0x8C379A000000000000000000000000000000000000000000000000000000000 DUP2 MSTORE PUSH1 0x4 ADD PUSH2 0x634 SWAP1 PUSH2 0x235A JUMP JUMPDEST PUSH1 0x40 MLOAD DUP1 SWAP2 SUB SWAP1 REVERT JUMPDEST PUSH32 0x0 PUSH20 0xFFFFFFFFFFFFFFFFFFFFFFFFFFFFFFFFFFFFFFFF AND PUSH2 0x67C PUSH2 0x1659 JUMP JUMPDEST PUSH20 0xFFFFFFFFFFFFFFFFFFFFFFFFFFFFFFFFFFFFFFFF AND EQ PUSH2 0x6D2 JUMPI PUSH1 0x40 MLOAD PUSH32 0x8C379A000000000000000000000000000000000000000000000000000000000 DUP2 MSTORE PUSH1 0x4 ADD PUSH2 0x6C9 SWAP1 PUSH2 0x23EC JUMP JUMPDEST PUSH1 0x40 MLOAD DUP1 SWAP2 SUB SWAP1 REVERT JUMPDEST PUSH2 0x6DB DUP2 PUSH2 0x16B0 JUMP JUMPDEST PUSH2 0x734 DUP2 PUSH1 0x0 PUSH8 0xFFFFFFFFFFFFFFFF DUP2 GT ISZERO PUSH2 0x6FA JUMPI PUSH2 0x6F9 PUSH2 0x1F8D JUMP JUMPDEST JUMPDEST PUSH1 0x40 MLOAD SWAP1 DUP1 DUP3 MSTORE DUP1 PUSH1 0x1F ADD PUSH1 0x1F NOT AND PUSH1 0x20 ADD DUP3 ADD PUSH1 0x40 MSTORE DUP1 ISZERO PUSH2 0x72C JUMPI DUP2 PUSH1 0x20 ADD PUSH1 0x1 DUP3 MUL DUP1 CALLDATASIZE DUP4 CALLDATACOPY DUP1 DUP3 ADD SWAP2 POP POP SWAP1 POP JUMPDEST POP PUSH1 0x0 PUSH2 0x16F7 JUMP JUMPDEST POP JUMP JUMPDEST PUSH1 0xD6 SLOAD DUP2 JUMP JUMPDEST PUSH1 0x0 PUSH2 0x753 PUSH8 0xA790558533BE0DEE PUSH1 0xC0 SHL PUSH2 0x1865 JUMP JUMPDEST PUSH2 0x767 PUSH8 0xBC4E67A16C98659F PUSH1 0xC0 SHL PUSH2 0x1865 JUMP JUMPDEST PUSH2 0x77B PUSH8 0xC8DE7C0062BC51A7 PUSH1 0xC0 SHL PUSH2 0x1865 JUMP JUMPDEST PUSH2 0x78F PUSH8 0x8B4F64AE7FD816A2 PUSH1 0xC0 SHL PUSH2 0x1865 JUMP JUMPDEST PUSH1 0xD7 PUSH1 0x0 SWAP1 SLOAD SWAP1 PUSH2 0x100 EXP SWAP1 DIV PUSH1 0xFF AND ISZERO PUSH2 0x7DF JUMPI PUSH1 0x40 MLOAD PUSH32 0x8C379A000000000000000000000000000000000000000000000000000000000 DUP2 MSTORE PUSH1 0x4 ADD PUSH2 0x7D6 SWAP1 PUSH2 0x2458 JUMP JUMPDEST PUSH1 0x40 MLOAD DUP1 SWAP2 SUB SWAP1 REVERT JUMPDEST PUSH2 0x7F3 PUSH8 0x134E67CC6DE8E8CE PUSH1 0xC0 SHL PUSH2 0x1865 JUMP JUMPDEST PUSH2 0x807 PUSH8 0x3DF468EE6AAB34DF PUSH1 0xC0 SHL PUSH2 0x1865 JUMP JUMPDEST PUSH2 0x81B PUSH8 0xF2DC4AC296B271C3 PUSH1 0xC0 SHL PUSH2 0x1865 JUMP JUMPDEST PUSH1 0xCE SLOAD PUSH1 0xD0 SLOAD NUMBER PUSH2 0x82C SWAP2 SWAP1 PUSH2 0x24A7 JUMP JUMPDEST GT ISZERO PUSH2 0x87A JUMPI PUSH2 0x846 PUSH8 0x560525ADB7895D01 PUSH1 0xC0 SHL PUSH2 0x1865 JUMP JUMPDEST PUSH2 0x85A PUSH8 0xB41DAC99936C0772 PUSH1 0xC0 SHL PUSH2 0x1865 JUMP JUMPDEST PUSH1 0x1 PUSH1 0xD7 PUSH1 0x0 PUSH2 0x100 EXP DUP2 SLOAD DUP2 PUSH1 0xFF MUL NOT AND SWAP1 DUP4 ISZERO ISZERO MUL OR SWAP1 SSTORE POP PUSH2 0x88F JUMP JUMPDEST PUSH2 0x88E PUSH8 0x687673974F662A80 PUSH1 0xC0 SHL PUSH2 0x1865 JUMP JUMPDEST JUMPDEST PUSH2 0x8A3 PUSH8 0xDD7A11186AADFBB PUSH1 0xC0 SHL PUSH2 0x1865 JUMP JUMPDEST PUSH2 0x8B7 PUSH8 0xB39EEA05A6C8B55A PUSH1 0xC0 SHL PUSH2 0x1865 JUMP JUMPDEST PUSH2 0x8CB PUSH8 0x741DAB03408A6C6C PUSH1 0xC0 SHL PUSH2 0x1865 JUMP JUMPDEST PUSH1 0xCE SLOAD PUSH1 0xD0 SLOAD NUMBER PUSH2 0x8DC SWAP2 SWAP1 PUSH2 0x24A7 JUMP JUMPDEST GT ISZERO PUSH2 0x91D JUMPI PUSH1 0x40 MLOAD PUSH32 0x8C379A000000000000000000000000000000000000000000000000000000000 DUP2 MSTORE PUSH1 0x4 ADD PUSH2 0x914 SWAP1 PUSH2 0x2527 JUMP JUMPDEST PUSH1 0x40 MLOAD DUP1 SWAP2 SUB SWAP1 REVERT JUMPDEST PUSH2 0x931 PUSH8 0x91BD68E30BF04439 PUSH1 0xC0 SHL PUSH2 0x1865 JUMP JUMPDEST PUSH2 0x945 PUSH8 0xE6C7D7DFD54A87A4 PUSH1 0xC0 SHL PUSH2 0x1865 JUMP JUMPDEST PUSH2 0x959 PUSH8 0x4ECD27C4508AD6EB PUSH1 0xC0 SHL PUSH2 0x1865 JUMP JUMPDEST PUSH1 0x0 PUSH1 0xD0 SLOAD NUMBER PUSH2 0x969 SWAP2 SWAP1 PUSH2 0x24A7 JUMP JUMPDEST SWAP1 POP PUSH2 0x97F PUSH8 0xED519D8D14424681 PUSH1 0xC0 SHL PUSH2 0x1865 JUMP JUMPDEST PUSH2 0x993 PUSH8 0xD0B5773A5AFEFC47 PUSH1 0xC0 SHL PUSH2 0x1865 JUMP JUMPDEST PUSH1 0x0 PUSH1 0x1 PUSH1 0xCF SLOAD DUP4 PUSH2 0x9A5 SWAP2 SWAP1 PUSH2 0x2547 JUMP JUMPDEST PUSH2 0x9AF SWAP2 SWAP1 PUSH2 0x24A7 JUMP JUMPDEST PUSH1 0xD2 SLOAD PUSH2 0x9BC SWAP2 SWAP1 PUSH2 0x24A7 JUMP JUMPDEST SWAP1 POP PUSH2 0x9D2 PUSH8 0x3E7156524A781B8C PUSH1 0xC0 SHL PUSH2 0x1865 JUMP JUMPDEST PUSH2 0x9E6 PUSH8 0xFF0D0576224C6EAD PUSH1 0xC0 SHL PUSH2 0x1865 JUMP JUMPDEST PUSH2 0x9FA PUSH8 0x57EC4A6F8E9D97D9 PUSH1 0xC0 SHL PUSH2 0x1865 JUMP JUMPDEST DUP1 DUP5 LT ISZERO PUSH2 0xA3D JUMPI PUSH1 0x40 MLOAD PUSH32 0x8C379A000000000000000000000000000000000000000000000000000000000 DUP2 MSTORE PUSH1 0x4 ADD PUSH2 0xA34 SWAP1 PUSH2 0x25D5 JUMP JUMPDEST PUSH1 0x40 MLOAD DUP1 SWAP2 SUB SWAP1 REVERT JUMPDEST PUSH2 0xA51 PUSH8 0x492859CD4C4B3421 PUSH1 0xC0 SHL PUSH2 0x1865 JUMP JUMPDEST PUSH2 0xA65 PUSH8 0xBEBC2B1005ECB36B PUSH1 0xC0 SHL PUSH2 0x1865 JUMP JUMPDEST PUSH2 0xA79 PUSH8 0x5A253B48013C4D41 PUSH1 0xC0 SHL PUSH2 0x1865 JUMP JUMPDEST PUSH2 0xA8D PUSH8 0xCAE972032D081D4F PUSH1 0xC0 SHL PUSH2 0x1865 JUMP JUMPDEST PUSH1 0xCB PUSH1 0x0 SWAP1 SLOAD SWAP1 PUSH2 0x100 EXP SWAP1 DIV PUSH20 0xFFFFFFFFFFFFFFFFFFFFFFFFFFFFFFFFFFFFFFFF AND PUSH20 0xFFFFFFFFFFFFFFFFFFFFFFFFFFFFFFFFFFFFFFFF AND PUSH4 0xDD62ED3E PUSH2 0xAD3 PUSH2 0x137B JUMP JUMPDEST ADDRESS PUSH1 0x40 MLOAD DUP4 PUSH4 0xFFFFFFFF AND PUSH1 0xE0 SHL DUP2 MSTORE PUSH1 0x4 ADD PUSH2 0xAF1 SWAP3 SWAP2 SWAP1 PUSH2 0x25F5 JUMP JUMPDEST PUSH1 0x20 PUSH1 0x40 MLOAD DUP1 DUP4 SUB DUP2 DUP7 GAS STATICCALL ISZERO DUP1 ISZERO PUSH2 0xB0E JUMPI RETURNDATASIZE PUSH1 0x0 DUP1 RETURNDATACOPY RETURNDATASIZE PUSH1 0x0 REVERT JUMPDEST POP POP POP POP PUSH1 0x40 MLOAD RETURNDATASIZE PUSH1 0x1F NOT PUSH1 0x1F DUP3 ADD AND DUP3 ADD DUP1 PUSH1 0x40 MSTORE POP DUP2 ADD SWAP1 PUSH2 0xB32 SWAP2 SWAP1 PUSH2 0x2633 JUMP JUMPDEST DUP5 GT ISZERO PUSH2 0xB74 JUMPI PUSH1 0x40 MLOAD PUSH32 0x8C379A000000000000000000000000000000000000000000000000000000000 DUP2 MSTORE PUSH1 0x4 ADD PUSH2 0xB6B SWAP1 PUSH2 0x26F8 JUMP JUMPDEST PUSH1 0x40 MLOAD DUP1 SWAP2 SUB SWAP1 REVERT JUMPDEST PUSH2 0xB88 PUSH8 0x948F2093EADE29B5 PUSH1 0xC0 SHL PUSH2 0x1865 JUMP JUMPDEST PUSH2 0xB9C PUSH8 0xD5FD92C1EB224C01 PUSH1 0xC0 SHL PUSH2 0x1865 JUMP JUMPDEST PUSH2 0xBB0 PUSH8 0x9128DEB940FCBFDE PUSH1 0xC0 SHL PUSH2 0x1865 JUMP JUMPDEST PUSH1 0xCA PUSH1 0x0 SWAP1 SLOAD SWAP1 PUSH2 0x100 EXP SWAP1 DIV PUSH20 0xFFFFFFFFFFFFFFFFFFFFFFFFFFFFFFFFFFFFFFFF AND PUSH20 0xFFFFFFFFFFFFFFFFFFFFFFFFFFFFFFFFFFFFFFFF AND PUSH4 0x23B872DD PUSH2 0xBF6 PUSH2 0x137B JUMP JUMPDEST CALLER PUSH1 0xCC SLOAD PUSH1 0x40 MLOAD DUP5 PUSH4 0xFFFFFFFF AND PUSH1 0xE0 SHL DUP2 MSTORE PUSH1 0x4 ADD PUSH2 0xC18 SWAP4 SWAP3 SWAP2 SWAP1 PUSH2 0x2718 JUMP JUMPDEST PUSH1 0x0 PUSH1 0x40 MLOAD DUP1 DUP4 SUB DUP2 PUSH1 0x0 DUP8 DUP1 EXTCODESIZE ISZERO DUP1 ISZERO PUSH2 0xC32 JUMPI PUSH1 0x0 DUP1 REVERT JUMPDEST POP GAS CALL ISZERO DUP1 ISZERO PUSH2 0xC46 JUMPI RETURNDATASIZE PUSH1 0x0 DUP1 RETURNDATACOPY RETURNDATASIZE PUSH1 0x0 REVERT JUMPDEST POP POP POP POP PUSH2 0xC5E PUSH8 0xF6A89B801E9E4DB4 PUSH1 0xC0 SHL PUSH2 0x1865 JUMP JUMPDEST PUSH2 0xC72 PUSH8 0x3E70BBE5687ECDEC PUSH1 0xC0 SHL PUSH2 0x1865 JUMP JUMPDEST PUSH1 0xCB PUSH1 0x0 SWAP1 SLOAD SWAP1 PUSH2 0x100 EXP SWAP1 DIV PUSH20 0xFFFFFFFFFFFFFFFFFFFFFFFFFFFFFFFFFFFFFFFF AND PUSH20 0xFFFFFFFFFFFFFFFFFFFFFFFFFFFFFFFFFFFFFFFF AND PUSH4 0x23B872DD CALLER PUSH2 0xCB9 PUSH2 0x137B JUMP JUMPDEST DUP8 PUSH1 0x40 MLOAD DUP5 PUSH4 0xFFFFFFFF AND PUSH1 0xE0 SHL DUP2 MSTORE PUSH1 0x4 ADD PUSH2 0xCD8 SWAP4 SWAP3 SWAP2 SWAP1 PUSH2 0x2718 JUMP JUMPDEST PUSH1 0x20 PUSH1 0x40 MLOAD DUP1 DUP4 SUB DUP2 PUSH1 0x0 DUP8 GAS CALL ISZERO DUP1 ISZERO PUSH2 0xCF7 JUMPI RETURNDATASIZE PUSH1 0x0 DUP1 RETURNDATACOPY RETURNDATASIZE PUSH1 0x0 REVERT JUMPDEST POP POP POP POP PUSH1 0x40 MLOAD RETURNDATASIZE PUSH1 0x1F NOT PUSH1 0x1F DUP3 ADD AND DUP3 ADD DUP1 PUSH1 0x40 MSTORE POP DUP2 ADD SWAP1 PUSH2 0xD1B SWAP2 SWAP1 PUSH2 0x277B JUMP JUMPDEST POP PUSH2 0xD30 PUSH8 0xD1254E3573D7CDFC PUSH1 0xC0 SHL PUSH2 0x1865 JUMP JUMPDEST PUSH1 0x1 PUSH1 0xD7 PUSH1 0x0 PUSH2 0x100 EXP DUP2 SLOAD DUP2 PUSH1 0xFF MUL NOT AND SWAP1 DUP4 ISZERO ISZERO MUL OR SWAP1 SSTORE POP PUSH2 0xD5F PUSH8 0xEA5FE9528357E4B0 PUSH1 0xC0 SHL PUSH2 0x1865 JUMP JUMPDEST PUSH2 0xD73 PUSH8 0xF4B130350A266B6E PUSH1 0xC0 SHL PUSH2 0x1865 JUMP JUMPDEST CALLER SWAP3 POP POP POP SWAP2 SWAP1 POP JUMP JUMPDEST PUSH32 0x0 PUSH20 0xFFFFFFFFFFFFFFFFFFFFFFFFFFFFFFFFFFFFFFFF AND ADDRESS PUSH20 0xFFFFFFFFFFFFFFFFFFFFFFFFFFFFFFFFFFFFFFFF AND SUB PUSH2 0xE0B JUMPI PUSH1 0x40 MLOAD PUSH32 0x8C379A000000000000000000000000000000000000000000000000000000000 DUP2 MSTORE PUSH1 0x4 ADD PUSH2 0xE02 SWAP1 PUSH2 0x235A JUMP JUMPDEST PUSH1 0x40 MLOAD DUP1 SWAP2 SUB SWAP1 REVERT JUMPDEST PUSH32 0x0 PUSH20 0xFFFFFFFFFFFFFFFFFFFFFFFFFFFFFFFFFFFFFFFF AND PUSH2 0xE4A PUSH2 0x1659 JUMP JUMPDEST PUSH20 0xFFFFFFFFFFFFFFFFFFFFFFFFFFFFFFFFFFFFFFFF AND EQ PUSH2 0xEA0 JUMPI PUSH1 0x40 MLOAD PUSH32 0x8C379A000000000000000000000000000000000000000000000000000000000 DUP2 MSTORE PUSH1 0x4 ADD PUSH2 0xE97 SWAP1 PUSH2 0x23EC JUMP JUMPDEST PUSH1 0x40 MLOAD DUP1 SWAP2 SUB SWAP1 REVERT JUMPDEST PUSH2 0xEA9 DUP3 PUSH2 0x16B0 JUMP JUMPDEST PUSH2 0xEB5 DUP3 DUP3 PUSH1 0x1 PUSH2 0x16F7 JUMP JUMPDEST POP POP JUMP JUMPDEST PUSH1 0x0 PUSH32 0x0 PUSH20 0xFFFFFFFFFFFFFFFFFFFFFFFFFFFFFFFFFFFFFFFF AND ADDRESS PUSH20 0xFFFFFFFFFFFFFFFFFFFFFFFFFFFFFFFFFFFFFFFF AND EQ PUSH2 0xF49 JUMPI PUSH1 0x40 MLOAD PUSH32 0x8C379A000000000000000000000000000000000000000000000000000000000 DUP2 MSTORE PUSH1 0x4 ADD PUSH2 0xF40 SWAP1 PUSH2 0x281A JUMP JUMPDEST PUSH1 0x40 MLOAD DUP1 SWAP2 SUB SWAP1 REVERT JUMPDEST PUSH32 0x360894A13BA1A3210667C828492DB98DCA3E2076CC3735A920A3CA505D382BBC PUSH1 0x0 SHL SWAP1 POP SWAP1 JUMP JUMPDEST PUSH1 0xD0 SLOAD DUP2 JUMP JUMPDEST PUSH2 0xF80 PUSH2 0x1868 JUMP JUMPDEST PUSH2 0xF8A PUSH1 0x0 PUSH2 0x18E6 JUMP JUMPDEST JUMP JUMPDEST PUSH1 0xCC SLOAD DUP2 JUMP JUMPDEST PUSH1 0xD7 PUSH1 0x0 SWAP1 SLOAD SWAP1 PUSH2 0x100 EXP SWAP1 DIV PUSH1 0xFF AND DUP2 JUMP JUMPDEST PUSH2 0xFB9 PUSH8 0x3531FB82BE0746B5 PUSH1 0xC0 SHL PUSH2 0x1865 JUMP JUMPDEST PUSH1 0x0 DUP1 PUSH1 0x1 SWAP1 SLOAD SWAP1 PUSH2 0x100 EXP SWAP1 DIV PUSH1 0xFF AND ISZERO SWAP1 POP DUP1 DUP1 ISZERO PUSH2 0xFEA JUMPI POP PUSH1 0x1 PUSH1 0x0 DUP1 SLOAD SWAP1 PUSH2 0x100 EXP SWAP1 DIV PUSH1 0xFF AND PUSH1 0xFF AND LT JUMPDEST DUP1 PUSH2 0x1017 JUMPI POP PUSH2 0xFF9 ADDRESS PUSH2 0x19AC JUMP JUMPDEST ISZERO DUP1 ISZERO PUSH2 0x1016 JUMPI POP PUSH1 0x1 PUSH1 0x0 DUP1 SLOAD SWAP1 PUSH2 0x100 EXP SWAP1 DIV PUSH1 0xFF AND PUSH1 0xFF AND EQ JUMPDEST JUMPDEST PUSH2 0x1056 JUMPI PUSH1 0x40 MLOAD PUSH32 0x8C379A000000000000000000000000000000000000000000000000000000000 DUP2 MSTORE PUSH1 0x4 ADD PUSH2 0x104D SWAP1 PUSH2 0x28AC JUMP JUMPDEST PUSH1 0x40 MLOAD DUP1 SWAP2 SUB SWAP1 REVERT JUMPDEST PUSH1 0x1 PUSH1 0x0 DUP1 PUSH2 0x100 EXP DUP2 SLOAD DUP2 PUSH1 0xFF MUL NOT AND SWAP1 DUP4 PUSH1 0xFF AND MUL OR SWAP1 SSTORE POP DUP1 ISZERO PUSH2 0x1093 JUMPI PUSH1 0x1 PUSH1 0x0 PUSH1 0x1 PUSH2 0x100 EXP DUP2 SLOAD DUP2 PUSH1 0xFF MUL NOT AND SWAP1 DUP4 ISZERO ISZERO MUL OR SWAP1 SSTORE POP JUMPDEST PUSH2 0x10A7 PUSH8 0x992377CF723548E0 PUSH1 0xC0 SHL PUSH2 0x1865 JUMP JUMPDEST PUSH2 0x10BB PUSH8 0x608026F5937EA734 PUSH1 0xC0 SHL PUSH2 0x1865 JUMP JUMPDEST PUSH2 0x10CF PUSH8 0x56598630FD939C24 PUSH1 0xC0 SHL PUSH2 0x1865 JUMP JUMPDEST PUSH2 0x10E3 PUSH8 0x172323CCF68160B PUSH1 0xC0 SHL PUSH2 0x1865 JUMP JUMPDEST PUSH2 0x10EB PUSH2 0x19CF JUMP JUMPDEST PUSH2 0x10FF PUSH8 0x697A7A724C6C5C10 PUSH1 0xC0 SHL PUSH2 0x1865 JUMP JUMPDEST PUSH2 0x1113 PUSH8 0x391DE0A79F2AB3F PUSH1 0xC0 SHL PUSH2 0x1865 JUMP JUMPDEST PUSH2 0x111B PUSH2 0x1A28 JUMP JUMPDEST PUSH2 0x112F PUSH8 0x76F1E49EA896C9F1 PUSH1 0xC0 SHL PUSH2 0x1865 JUMP JUMPDEST PUSH2 0x1143 PUSH8 0xE81335B699AC2C30 PUSH1 0xC0 SHL PUSH2 0x1865 JUMP JUMPDEST PUSH2 0x114C CALLER PUSH2 0x18E6 JUMP JUMPDEST PUSH2 0x1160 PUSH8 0x9A25CA0E8E433A2E PUSH1 0xC0 SHL PUSH2 0x1865 JUMP JUMPDEST DUP6 PUSH1 0xCA PUSH1 0x0 PUSH2 0x100 EXP DUP2 SLOAD DUP2 PUSH20 0xFFFFFFFFFFFFFFFFFFFFFFFFFFFFFFFFFFFFFFFF MUL NOT AND SWAP1 DUP4 PUSH20 0xFFFFFFFFFFFFFFFFFFFFFFFFFFFFFFFFFFFFFFFF AND MUL OR SWAP1 SSTORE POP PUSH2 0x11B5 PUSH8 0x7BC270E884A6B973 PUSH1 0xC0 SHL PUSH2 0x1865 JUMP JUMPDEST DUP7 PUSH1 0xCB PUSH1 0x0 PUSH2 0x100 EXP DUP2 SLOAD DUP2 PUSH20 0xFFFFFFFFFFFFFFFFFFFFFFFFFFFFFFFFFFFFFFFF MUL NOT AND SWAP1 DUP4 PUSH20 0xFFFFFFFFFFFFFFFFFFFFFFFFFFFFFFFFFFFFFFFF AND MUL OR SWAP1 SSTORE POP PUSH2 0x120A PUSH8 0x2C388457FD44AF47 PUSH1 0xC0 SHL PUSH2 0x1865 JUMP JUMPDEST DUP5 PUSH1 0xCC DUP2 SWAP1 SSTORE POP PUSH2 0x1225 PUSH8 0xE3F756D7670138FD PUSH1 0xC0 SHL PUSH2 0x1865 JUMP JUMPDEST DUP4 PUSH1 0xCD DUP2 SWAP1 SSTORE POP PUSH2 0x1240 PUSH8 0x9614378F82F4653 PUSH1 0xC0 SHL PUSH2 0x1865 JUMP JUMPDEST DUP3 PUSH1 0xCE DUP2 SWAP1 SSTORE POP PUSH2 0x125B PUSH8 0xAAA4B9416C554AC9 PUSH1 0xC0 SHL PUSH2 0x1865 JUMP JUMPDEST DUP2 PUSH1 0xCF DUP2 SWAP1 SSTORE POP PUSH2 0x1276 PUSH8 0x66FBE7B2A3DF5319 PUSH1 0xC0 SHL PUSH2 0x1865 JUMP JUMPDEST NUMBER PUSH1 0xD0 DUP2 SWAP1 SSTORE POP PUSH2 0x1291 PUSH8 0x4E2484547580A5B6 PUSH1 0xC0 SHL PUSH2 0x1865 JUMP JUMPDEST PUSH1 0xCE SLOAD PUSH1 0xD0 SLOAD PUSH2 0x12A1 SWAP2 SWAP1 PUSH2 0x28CC JUMP JUMPDEST PUSH1 0xD1 DUP2 SWAP1 SSTORE POP PUSH2 0x12BB PUSH8 0xBE0F45B667288382 PUSH1 0xC0 SHL PUSH2 0x1865 JUMP JUMPDEST PUSH1 0x1 PUSH1 0xCF SLOAD PUSH1 0xCE SLOAD PUSH2 0x12CD SWAP2 SWAP1 PUSH2 0x2547 JUMP JUMPDEST PUSH2 0x12D7 SWAP2 SWAP1 PUSH2 0x24A7 JUMP JUMPDEST PUSH1 0xCD SLOAD PUSH2 0x12E4 SWAP2 SWAP1 PUSH2 0x28CC JUMP JUMPDEST PUSH1 0xD2 DUP2 SWAP1 SSTORE POP PUSH2 0x12FE PUSH8 0x53BE996441FF37E7 PUSH1 0xC0 SHL PUSH2 0x1865 JUMP JUMPDEST PUSH1 0x0 PUSH1 0xD7 PUSH1 0x0 PUSH2 0x100 EXP DUP2 SLOAD DUP2 PUSH1 0xFF MUL NOT AND SWAP1 DUP4 ISZERO ISZERO MUL OR SWAP1 SSTORE POP DUP1 ISZERO PUSH2 0x1372 JUMPI PUSH1 0x0 DUP1 PUSH1 0x1 PUSH2 0x100 EXP DUP2 SLOAD DUP2 PUSH1 0xFF MUL NOT AND SWAP1 DUP4 ISZERO ISZERO MUL OR SWAP1 SSTORE POP PUSH32 0x7F26B83FF96E1F2B6A682F133852F6798A09C465DA95921460CEFB3847402498 PUSH1 0x1 PUSH1 0x40 MLOAD PUSH2 0x1369 SWAP2 SWAP1 PUSH2 0x2948 JUMP JUMPDEST PUSH1 0x40 MLOAD DUP1 SWAP2 SUB SWAP1 LOG1 JUMPDEST POP POP POP POP POP POP POP JUMP JUMPDEST PUSH1 0x0 PUSH1 0x33 PUSH1 0x0 SWAP1 SLOAD SWAP1 PUSH2 0x100 EXP SWAP1 DIV PUSH20 0xFFFFFFFFFFFFFFFFFFFFFFFFFFFFFFFFFFFFFFFF AND SWAP1 POP SWAP1 JUMP JUMPDEST PUSH1 0xD3 SLOAD DUP2 JUMP JUMPDEST PUSH1 0xD1 SLOAD DUP2 JUMP JUMPDEST PUSH1 0xD5 DUP2 DUP2 SLOAD DUP2 LT PUSH2 0x13C1 JUMPI PUSH1 0x0 DUP1 REVERT JUMPDEST SWAP1 PUSH1 0x0 MSTORE PUSH1 0x20 PUSH1 0x0 KECCAK256 ADD PUSH1 0x0 SWAP2 POP SLOAD SWAP1 PUSH2 0x100 EXP SWAP1 DIV PUSH20 0xFFFFFFFFFFFFFFFFFFFFFFFFFFFFFFFFFFFFFFFF AND DUP2 JUMP JUMPDEST PUSH1 0xCF SLOAD DUP2 JUMP JUMPDEST PUSH1 0xCD SLOAD DUP2 JUMP JUMPDEST PUSH1 0xCB PUSH1 0x0 SWAP1 SLOAD SWAP1 PUSH2 0x100 EXP SWAP1 DIV PUSH20 0xFFFFFFFFFFFFFFFFFFFFFFFFFFFFFFFFFFFFFFFF AND DUP2 JUMP JUMPDEST PUSH1 0xD8 DUP1 SLOAD PUSH2 0x142F SWAP1 PUSH2 0x2992 JUMP JUMPDEST DUP1 PUSH1 0x1F ADD PUSH1 0x20 DUP1 SWAP2 DIV MUL PUSH1 0x20 ADD PUSH1 0x40 MLOAD SWAP1 DUP2 ADD PUSH1 0x40 MSTORE DUP1 SWAP3 SWAP2 SWAP1 DUP2 DUP2 MSTORE PUSH1 0x20 ADD DUP3 DUP1 SLOAD PUSH2 0x145B SWAP1 PUSH2 0x2992 JUMP JUMPDEST DUP1 ISZERO PUSH2 0x14A8 JUMPI DUP1 PUSH1 0x1F LT PUSH2 0x147D JUMPI PUSH2 0x100 DUP1 DUP4 SLOAD DIV MUL DUP4 MSTORE SWAP2 PUSH1 0x20 ADD SWAP2 PUSH2 0x14A8 JUMP JUMPDEST DUP3 ADD SWAP2 SWAP1 PUSH1 0x0 MSTORE PUSH1 0x20 PUSH1 0x0 KECCAK256 SWAP1 JUMPDEST DUP2 SLOAD DUP2 MSTORE SWAP1 PUSH1 0x1 ADD SWAP1 PUSH1 0x20 ADD DUP1 DUP4 GT PUSH2 0x148B JUMPI DUP3 SWAP1 SUB PUSH1 0x1F AND DUP3 ADD SWAP2 JUMPDEST POP POP POP POP POP DUP2 JUMP JUMPDEST PUSH1 0x0 PUSH2 0x14C6 PUSH8 0x455F140EC1EA898D PUSH1 0xC0 SHL PUSH2 0x1865 JUMP JUMPDEST PUSH2 0x14DA PUSH8 0xCB070DC9E483D968 PUSH1 0xC0 SHL PUSH2 0x1865 JUMP JUMPDEST PUSH2 0x14EE PUSH8 0x9F9F06A1BBD6BDDE PUSH1 0xC0 SHL PUSH2 0x1865 JUMP JUMPDEST PUSH1 0x0 PUSH1 0xD0 SLOAD NUMBER PUSH2 0x14FE SWAP2 SWAP1 PUSH2 0x24A7 JUMP JUMPDEST SWAP1 POP PUSH2 0x1514 PUSH8 0x86C7663762F389D0 PUSH1 0xC0 SHL PUSH2 0x1865 JUMP JUMPDEST PUSH2 0x1528 PUSH8 0xBF7F0B60387889B2 PUSH1 0xC0 SHL PUSH2 0x1865 JUMP JUMPDEST PUSH1 0xCE SLOAD DUP2 LT PUSH2 0x1578 JUMPI PUSH2 0x1545 PUSH8 0x661C3AC6D6A978EA PUSH1 0xC0 SHL PUSH2 0x1865 JUMP JUMPDEST PUSH2 0x1559 PUSH8 0x1519998110106158 PUSH1 0xC0 SHL PUSH2 0x1865 JUMP JUMPDEST PUSH2 0x156D PUSH8 0x8C5818526EBF7F1C PUSH1 0xC0 SHL PUSH2 0x1865 JUMP JUMPDEST PUSH1 0xCD SLOAD SWAP2 POP POP PUSH2 0x15D3 JUMP JUMPDEST PUSH2 0x158C PUSH8 0x175C995E0E83281 PUSH1 0xC0 SHL PUSH2 0x1865 JUMP JUMPDEST PUSH2 0x15A0 PUSH8 0x5346F3248D41B208 PUSH1 0xC0 SHL PUSH2 0x1865 JUMP JUMPDEST PUSH2 0x15B4 PUSH8 0x638FE0CC800C1749 PUSH1 0xC0 SHL PUSH2 0x1865 JUMP JUMPDEST PUSH1 0xCF SLOAD DUP2 PUSH2 0x15C2 SWAP2 SWAP1 PUSH2 0x2547 JUMP JUMPDEST PUSH1 0xD2 SLOAD PUSH2 0x15CF SWAP2 SWAP1 PUSH2 0x24A7 JUMP JUMPDEST SWAP2 POP POP JUMPDEST SWAP1 JUMP JUMPDEST PUSH2 0x15DE PUSH2 0x1868 JUMP JUMPDEST PUSH1 0x0 PUSH20 0xFFFFFFFFFFFFFFFFFFFFFFFFFFFFFFFFFFFFFFFF AND DUP2 PUSH20 0xFFFFFFFFFFFFFFFFFFFFFFFFFFFFFFFFFFFFFFFF AND SUB PUSH2 0x164D JUMPI PUSH1 0x40 MLOAD PUSH32 0x8C379A000000000000000000000000000000000000000000000000000000000 DUP2 MSTORE PUSH1 0x4 ADD PUSH2 0x1644 SWAP1 PUSH2 0x2A35 JUMP JUMPDEST PUSH1 0x40 MLOAD DUP1 SWAP2 SUB SWAP1 REVERT JUMPDEST PUSH2 0x1656 DUP2 PUSH2 0x18E6 JUMP JUMPDEST POP JUMP JUMPDEST PUSH1 0x0 PUSH2 0x1687 PUSH32 0x360894A13BA1A3210667C828492DB98DCA3E2076CC3735A920A3CA505D382BBC PUSH1 0x0 SHL PUSH2 0x1A79 JUMP JUMPDEST PUSH1 0x0 ADD PUSH1 0x0 SWAP1 SLOAD SWAP1 PUSH2 0x100 EXP SWAP1 DIV PUSH20 0xFFFFFFFFFFFFFFFFFFFFFFFFFFFFFFFFFFFFFFFF AND SWAP1 POP SWAP1 JUMP JUMPDEST PUSH2 0x16C4 PUSH8 0xF7CAC3FCA5AFA140 PUSH1 0xC0 SHL PUSH2 0x1865 JUMP JUMPDEST PUSH2 0x16CC PUSH2 0x1868 JUMP JUMPDEST PUSH2 0x16E0 PUSH8 0x3F80F60F172EDEAF PUSH1 0xC0 SHL PUSH2 0x1865 JUMP JUMPDEST PUSH2 0x16F4 PUSH8 0xD73E7D5DF766119F PUSH1 0xC0 SHL PUSH2 0x1865 JUMP JUMPDEST POP JUMP JUMPDEST PUSH2 0x1723 PUSH32 0x4910FDFA16FED3260ED0E7147F7CC6DA11A60208B5B9406D12A635614FFD9143 PUSH1 0x0 SHL PUSH2 0x1A83 JUMP JUMPDEST PUSH1 0x0 ADD PUSH1 0x0 SWAP1 SLOAD SWAP1 PUSH2 0x100 EXP SWAP1 DIV PUSH1 0xFF AND ISZERO PUSH2 0x1747 JUMPI PUSH2 0x1742 DUP4 PUSH2 0x1A8D JUMP JUMPDEST PUSH2 0x1860 JUMP JUMPDEST DUP3 PUSH20 0xFFFFFFFFFFFFFFFFFFFFFFFFFFFFFFFFFFFFFFFF AND PUSH4 0x52D1902D PUSH1 0x40 MLOAD DUP2 PUSH4 0xFFFFFFFF AND PUSH1 0xE0 SHL DUP2 MSTORE PUSH1 0x4 ADD PUSH1 0x20 PUSH1 0x40 MLOAD DUP1 DUP4 SUB DUP2 DUP7 GAS STATICCALL SWAP3 POP POP POP DUP1 ISZERO PUSH2 0x17AF JUMPI POP PUSH1 0x40 MLOAD RETURNDATASIZE PUSH1 0x1F NOT PUSH1 0x1F DUP3 ADD AND DUP3 ADD DUP1 PUSH1 0x40 MSTORE POP DUP2 ADD SWAP1 PUSH2 0x17AC SWAP2 SWAP1 PUSH2 0x2A81 JUMP JUMPDEST PUSH1 0x1 JUMPDEST PUSH2 0x17EE JUMPI PUSH1 0x40 MLOAD PUSH32 0x8C379A000000000000000000000000000000000000000000000000000000000 DUP2 MSTORE PUSH1 0x4 ADD PUSH2 0x17E5 SWAP1 PUSH2 0x2B20 JUMP JUMPDEST PUSH1 0x40 MLOAD DUP1 SWAP2 SUB SWAP1 REVERT JUMPDEST PUSH32 0x360894A13BA1A3210667C828492DB98DCA3E2076CC3735A920A3CA505D382BBC PUSH1 0x0 SHL DUP2 EQ PUSH2 0x1853 JUMPI PUSH1 0x40 MLOAD PUSH32 0x8C379A000000000000000000000000000000000000000000000000000000000 DUP2 MSTORE PUSH1 0x4 ADD PUSH2 0x184A SWAP1 PUSH2 0x2BB2 JUMP JUMPDEST PUSH1 0x40 MLOAD DUP1 SWAP2 SUB SWAP1 REVERT JUMPDEST POP PUSH2 0x185F DUP4 DUP4 DUP4 PUSH2 0x1B46 JUMP JUMPDEST JUMPDEST POP POP POP JUMP JUMPDEST POP JUMP JUMPDEST PUSH2 0x1870 PUSH2 0x1B72 JUMP JUMPDEST PUSH20 0xFFFFFFFFFFFFFFFFFFFFFFFFFFFFFFFFFFFFFFFF AND PUSH2 0x188E PUSH2 0x137B JUMP JUMPDEST PUSH20 0xFFFFFFFFFFFFFFFFFFFFFFFFFFFFFFFFFFFFFFFF AND EQ PUSH2 0x18E4 JUMPI PUSH1 0x40 MLOAD PUSH32 0x8C379A000000000000000000000000000000000000000000000000000000000 DUP2 MSTORE PUSH1 0x4 ADD PUSH2 0x18DB SWAP1 PUSH2 0x2C1E JUMP JUMPDEST PUSH1 0x40 MLOAD DUP1 SWAP2 SUB SWAP1 REVERT JUMPDEST JUMP JUMPDEST PUSH1 0x0 PUSH1 0x33 PUSH1 0x0 SWAP1 SLOAD SWAP1 PUSH2 0x100 EXP SWAP1 DIV PUSH20 0xFFFFFFFFFFFFFFFFFFFFFFFFFFFFFFFFFFFFFFFF AND SWAP1 POP DUP2 PUSH1 0x33 PUSH1 0x0 PUSH2 0x100 EXP DUP2 SLOAD DUP2 PUSH20 0xFFFFFFFFFFFFFFFFFFFFFFFFFFFFFFFFFFFFFFFF MUL NOT AND SWAP1 DUP4 PUSH20 0xFFFFFFFFFFFFFFFFFFFFFFFFFFFFFFFFFFFFFFFF AND MUL OR SWAP1 SSTORE POP DUP2 PUSH20 0xFFFFFFFFFFFFFFFFFFFFFFFFFFFFFFFFFFFFFFFF AND DUP2 PUSH20 0xFFFFFFFFFFFFFFFFFFFFFFFFFFFFFFFFFFFFFFFF AND PUSH32 0x8BE0079C531659141344CD1FD0A4F28419497F9722A3DAAFE3B4186F6B6457E0 PUSH1 0x40 MLOAD PUSH1 0x40 MLOAD DUP1 SWAP2 SUB SWAP1 LOG3 POP POP JUMP JUMPDEST PUSH1 0x0 DUP1 DUP3 PUSH20 0xFFFFFFFFFFFFFFFFFFFFFFFFFFFFFFFFFFFFFFFF AND EXTCODESIZE GT SWAP1 POP SWAP2 SWAP1 POP JUMP JUMPDEST PUSH1 0x0 PUSH1 0x1 SWAP1 SLOAD SWAP1 PUSH2 0x100 EXP SWAP1 DIV PUSH1 0xFF AND PUSH2 0x1A1E JUMPI PUSH1 0x40 MLOAD PUSH32 0x8C379A000000000000000000000000000000000000000000000000000000000 DUP2 MSTORE PUSH1 0x4 ADD PUSH2 0x1A15 SWAP1 PUSH2 0x2CB0 JUMP JUMPDEST PUSH1 0x40 MLOAD DUP1 SWAP2 SUB SWAP1 REVERT JUMPDEST PUSH2 0x1A26 PUSH2 0x1B7A JUMP JUMPDEST JUMP JUMPDEST PUSH1 0x0 PUSH1 0x1 SWAP1 SLOAD SWAP1 PUSH2 0x100 EXP SWAP1 DIV PUSH1 0xFF AND PUSH2 0x1A77 JUMPI PUSH1 0x40 MLOAD PUSH32 0x8C379A000000000000000000000000000000000000000000000000000000000 DUP2 MSTORE PUSH1 0x4 ADD PUSH2 0x1A6E SWAP1 PUSH2 0x2CB0 JUMP JUMPDEST PUSH1 0x40 MLOAD DUP1 SWAP2 SUB SWAP1 REVERT JUMPDEST JUMP JUMPDEST PUSH1 0x0 DUP2 SWAP1 POP SWAP2 SWAP1 POP JUMP JUMPDEST PUSH1 0x0 DUP2 SWAP1 POP SWAP2 SWAP1 POP JUMP JUMPDEST PUSH2 0x1A96 DUP2 PUSH2 0x19AC JUMP JUMPDEST PUSH2 0x1AD5 JUMPI PUSH1 0x40 MLOAD PUSH32 0x8C379A000000000000000000000000000000000000000000000000000000000 DUP2 MSTORE PUSH1 0x4 ADD PUSH2 0x1ACC SWAP1 PUSH2 0x2D42 JUMP JUMPDEST PUSH1 0x40 MLOAD DUP1 SWAP2 SUB SWAP1 REVERT JUMPDEST DUP1 PUSH2 0x1B02 PUSH32 0x360894A13BA1A3210667C828492DB98DCA3E2076CC3735A920A3CA505D382BBC PUSH1 0x0 SHL PUSH2 0x1A79 JUMP JUMPDEST PUSH1 0x0 ADD PUSH1 0x0 PUSH2 0x100 EXP DUP2 SLOAD DUP2 PUSH20 0xFFFFFFFFFFFFFFFFFFFFFFFFFFFFFFFFFFFFFFFF MUL NOT AND SWAP1 DUP4 PUSH20 0xFFFFFFFFFFFFFFFFFFFFFFFFFFFFFFFFFFFFFFFF AND MUL OR SWAP1 SSTORE POP POP JUMP JUMPDEST PUSH2 0x1B4F DUP4 PUSH2 0x1BDB JUMP JUMPDEST PUSH1 0x0 DUP3 MLOAD GT DUP1 PUSH2 0x1B5C JUMPI POP DUP1 JUMPDEST ISZERO PUSH2 0x1B6D JUMPI PUSH2 0x1B6B DUP4 DUP4 PUSH2 0x1C2A JUMP JUMPDEST POP JUMPDEST POP POP POP JUMP JUMPDEST PUSH1 0x0 CALLER SWAP1 POP SWAP1 JUMP JUMPDEST PUSH1 0x0 PUSH1 0x1 SWAP1 SLOAD SWAP1 PUSH2 0x100 EXP SWAP1 DIV PUSH1 0xFF AND PUSH2 0x1BC9 JUMPI PUSH1 0x40 MLOAD PUSH32 0x8C379A000000000000000000000000000000000000000000000000000000000 DUP2 MSTORE PUSH1 0x4 ADD PUSH2 0x1BC0 SWAP1 PUSH2 0x2CB0 JUMP JUMPDEST PUSH1 0x40 MLOAD DUP1 SWAP2 SUB SWAP1 REVERT JUMPDEST PUSH2 0x1BD9 PUSH2 0x1BD4 PUSH2 0x1B72 JUMP JUMPDEST PUSH2 0x18E6 JUMP JUMPDEST JUMP JUMPDEST PUSH2 0x1BE4 DUP2 PUSH2 0x1A8D JUMP JUMPDEST DUP1 PUSH20 0xFFFFFFFFFFFFFFFFFFFFFFFFFFFFFFFFFFFFFFFF AND PUSH32 0xBC7CD75A20EE27FD9ADEBAB32041F755214DBC6BFFA90CC0225B39DA2E5C2D3B PUSH1 0x40 MLOAD PUSH1 0x40 MLOAD DUP1 SWAP2 SUB SWAP1 LOG2 POP JUMP JUMPDEST PUSH1 0x60 PUSH2 0x1C4F DUP4 DUP4 PUSH1 0x40 MLOAD DUP1 PUSH1 0x60 ADD PUSH1 0x40 MSTORE DUP1 PUSH1 0x27 DUP2 MSTORE PUSH1 0x20 ADD PUSH2 0x2E2D PUSH1 0x27 SWAP2 CODECOPY PUSH2 0x1C57 JUMP JUMPDEST SWAP1 POP SWAP3 SWAP2 POP POP JUMP JUMPDEST PUSH1 0x60 PUSH1 0x0 DUP1 DUP6 PUSH20 0xFFFFFFFFFFFFFFFFFFFFFFFFFFFFFFFFFFFFFFFF AND DUP6 PUSH1 0x40 MLOAD PUSH2 0x1C81 SWAP2 SWAP1 PUSH2 0x2DA9 JUMP JUMPDEST PUSH1 0x0 PUSH1 0x40 MLOAD DUP1 DUP4 SUB DUP2 DUP6 GAS DELEGATECALL SWAP2 POP POP RETURNDATASIZE DUP1 PUSH1 0x0 DUP2 EQ PUSH2 0x1CBC JUMPI PUSH1 0x40 MLOAD SWAP2 POP PUSH1 0x1F NOT PUSH1 0x3F RETURNDATASIZE ADD AND DUP3 ADD PUSH1 0x40 MSTORE RETURNDATASIZE DUP3 MSTORE RETURNDATASIZE PUSH1 0x0 PUSH1 0x20 DUP5 ADD RETURNDATACOPY PUSH2 0x1CC1 JUMP JUMPDEST PUSH1 0x60 SWAP2 POP JUMPDEST POP SWAP2 POP SWAP2 POP PUSH2 0x1CD2 DUP7 DUP4 DUP4 DUP8 PUSH2 0x1CDD JUMP JUMPDEST SWAP3 POP POP POP SWAP4 SWAP3 POP POP POP JUMP JUMPDEST PUSH1 0x60 DUP4 ISZERO PUSH2 0x1D3F JUMPI PUSH1 0x0 DUP4 MLOAD SUB PUSH2 0x1D37 JUMPI PUSH2 0x1CF7 DUP6 PUSH2 0x19AC JUMP JUMPDEST PUSH2 0x1D36 JUMPI PUSH1 0x40 MLOAD PUSH32 0x8C379A000000000000000000000000000000000000000000000000000000000 DUP2 MSTORE PUSH1 0x4 ADD PUSH2 0x1D2D SWAP1 PUSH2 0x2E0C JUMP JUMPDEST PUSH1 0x40 MLOAD DUP1 SWAP2 SUB SWAP1 REVERT JUMPDEST JUMPDEST DUP3 SWAP1 POP PUSH2 0x1D4A JUMP JUMPDEST PUSH2 0x1D49 DUP4 DUP4 PUSH2 0x1D52 JUMP JUMPDEST JUMPDEST SWAP5 SWAP4 POP POP POP POP JUMP JUMPDEST PUSH1 0x0 DUP3 MLOAD GT ISZERO PUSH2 0x1D65 JUMPI DUP2 MLOAD DUP1 DUP4 PUSH1 0x20 ADD REVERT JUMPDEST DUP1 PUSH1 0x40 MLOAD PUSH32 0x8C379A000000000000000000000000000000000000000000000000000000000 DUP2 MSTORE PUSH1 0x4 ADD PUSH2 0x1D99 SWAP2 SWAP1 PUSH2 0x22C6 JUMP JUMPDEST PUSH1 0x40 MLOAD DUP1 SWAP2 SUB SWAP1 REVERT JUMPDEST PUSH1 0x0 PUSH20 0xFFFFFFFFFFFFFFFFFFFFFFFFFFFFFFFFFFFFFFFF DUP3 AND SWAP1 POP SWAP2 SWAP1 POP JUMP JUMPDEST PUSH1 0x0 DUP2 SWAP1 POP SWAP2 SWAP1 POP JUMP JUMPDEST PUSH1 0x0 PUSH2 0x1DE7 PUSH2 0x1DE2 PUSH2 0x1DDD DUP5 PUSH2 0x1DA2 JUMP JUMPDEST PUSH2 0x1DC2 JUMP JUMPDEST PUSH2 0x1DA2 JUMP JUMPDEST SWAP1 POP SWAP2 SWAP1 POP JUMP JUMPDEST PUSH1 0x0 PUSH2 0x1DF9 DUP3 PUSH2 0x1DCC JUMP JUMPDEST SWAP1 POP SWAP2 SWAP1 POP JUMP JUMPDEST PUSH1 0x0 PUSH2 0x1E0B DUP3 PUSH2 0x1DEE JUMP JUMPDEST SWAP1 POP SWAP2 SWAP1 POP JUMP JUMPDEST PUSH2 0x1E1B DUP2 PUSH2 0x1E00 JUMP JUMPDEST DUP3 MSTORE POP POP JUMP JUMPDEST PUSH1 0x0 PUSH1 0x20 DUP3 ADD SWAP1 POP PUSH2 0x1E36 PUSH1 0x0 DUP4 ADD DUP5 PUSH2 0x1E12 JUMP JUMPDEST SWAP3 SWAP2 POP POP JUMP JUMPDEST PUSH1 0x0 DUP2 SWAP1 POP SWAP2 SWAP1 POP JUMP JUMPDEST PUSH2 0x1E4F DUP2 PUSH2 0x1E3C JUMP JUMPDEST DUP3 MSTORE POP POP JUMP JUMPDEST PUSH1 0x0 PUSH1 0x20 DUP3 ADD SWAP1 POP PUSH2 0x1E6A PUSH1 0x0 DUP4 ADD DUP5 PUSH2 0x1E46 JUMP JUMPDEST SWAP3 SWAP2 POP POP JUMP JUMPDEST PUSH1 0x0 PUSH1 0x40 MLOAD SWAP1 POP SWAP1 JUMP JUMPDEST PUSH1 0x0 DUP1 REVERT JUMPDEST PUSH1 0x0 DUP1 REVERT JUMPDEST PUSH1 0x0 PUSH2 0x1E8F DUP3 PUSH2 0x1DA2 JUMP JUMPDEST SWAP1 POP SWAP2 SWAP1 POP JUMP JUMPDEST PUSH2 0x1E9F DUP2 PUSH2 0x1E84 JUMP JUMPDEST DUP2 EQ PUSH2 0x1EAA JUMPI PUSH1 0x0 DUP1 REVERT JUMPDEST POP JUMP JUMPDEST PUSH1 0x0 DUP2 CALLDATALOAD SWAP1 POP PUSH2 0x1EBC DUP2 PUSH2 0x1E96 JUMP JUMPDEST SWAP3 SWAP2 POP POP JUMP JUMPDEST PUSH1 0x0 PUSH1 0x20 DUP3 DUP5 SUB SLT ISZERO PUSH2 0x1ED8 JUMPI PUSH2 0x1ED7 PUSH2 0x1E7A JUMP JUMPDEST JUMPDEST PUSH1 0x0 PUSH2 0x1EE6 DUP5 DUP3 DUP6 ADD PUSH2 0x1EAD JUMP JUMPDEST SWAP2 POP POP SWAP3 SWAP2 POP POP JUMP JUMPDEST PUSH2 0x1EF8 DUP2 PUSH2 0x1E3C JUMP JUMPDEST DUP2 EQ PUSH2 0x1F03 JUMPI PUSH1 0x0 DUP1 REVERT JUMPDEST POP JUMP JUMPDEST PUSH1 0x0 DUP2 CALLDATALOAD SWAP1 POP PUSH2 0x1F15 DUP2 PUSH2 0x1EEF JUMP JUMPDEST SWAP3 SWAP2 POP POP JUMP JUMPDEST PUSH1 0x0 PUSH1 0x20 DUP3 DUP5 SUB SLT ISZERO PUSH2 0x1F31 JUMPI PUSH2 0x1F30 PUSH2 0x1E7A JUMP JUMPDEST JUMPDEST PUSH1 0x0 PUSH2 0x1F3F DUP5 DUP3 DUP6 ADD PUSH2 0x1F06 JUMP JUMPDEST SWAP2 POP POP SWAP3 SWAP2 POP POP JUMP JUMPDEST PUSH2 0x1F51 DUP2 PUSH2 0x1E84 JUMP JUMPDEST DUP3 MSTORE POP POP JUMP JUMPDEST PUSH1 0x0 PUSH1 0x20 DUP3 ADD SWAP1 POP PUSH2 0x1F6C PUSH1 0x0 DUP4 ADD DUP5 PUSH2 0x1F48 JUMP JUMPDEST SWAP3 SWAP2 POP POP JUMP JUMPDEST PUSH1 0x0 DUP1 REVERT JUMPDEST PUSH1 0x0 DUP1 REVERT JUMPDEST PUSH1 0x0 PUSH1 0x1F NOT PUSH1 0x1F DUP4 ADD AND SWAP1 POP SWAP2 SWAP1 POP JUMP JUMPDEST PUSH32 0x4E487B7100000000000000000000000000000000000000000000000000000000 PUSH1 0x0 MSTORE PUSH1 0x41 PUSH1 0x4 MSTORE PUSH1 0x24 PUSH1 0x0 REVERT JUMPDEST PUSH2 0x1FC5 DUP3 PUSH2 0x1F7C JUMP JUMPDEST DUP2 ADD DUP2 DUP2 LT PUSH8 0xFFFFFFFFFFFFFFFF DUP3 GT OR ISZERO PUSH2 0x1FE4 JUMPI PUSH2 0x1FE3 PUSH2 0x1F8D JUMP JUMPDEST JUMPDEST DUP1 PUSH1 0x40 MSTORE POP POP POP JUMP JUMPDEST PUSH1 0x0 PUSH2 0x1FF7 PUSH2 0x1E70 JUMP JUMPDEST SWAP1 POP PUSH2 0x2003 DUP3 DUP3 PUSH2 0x1FBC JUMP JUMPDEST SWAP2 SWAP1 POP JUMP JUMPDEST PUSH1 0x0 PUSH8 0xFFFFFFFFFFFFFFFF DUP3 GT ISZERO PUSH2 0x2023 JUMPI PUSH2 0x2022 PUSH2 0x1F8D JUMP JUMPDEST JUMPDEST PUSH2 0x202C DUP3 PUSH2 0x1F7C JUMP JUMPDEST SWAP1 POP PUSH1 0x20 DUP2 ADD SWAP1 POP SWAP2 SWAP1 POP JUMP JUMPDEST DUP3 DUP2 DUP4 CALLDATACOPY PUSH1 0x0 DUP4 DUP4 ADD MSTORE POP POP POP JUMP JUMPDEST PUSH1 0x0 PUSH2 0x205B PUSH2 0x2056 DUP5 PUSH2 0x2008 JUMP JUMPDEST PUSH2 0x1FED JUMP JUMPDEST SWAP1 POP DUP3 DUP2 MSTORE PUSH1 0x20 DUP2 ADD DUP5 DUP5 DUP5 ADD GT ISZERO PUSH2 0x2077 JUMPI PUSH2 0x2076 PUSH2 0x1F77 JUMP JUMPDEST JUMPDEST PUSH2 0x2082 DUP5 DUP3 DUP6 PUSH2 0x2039 JUMP JUMPDEST POP SWAP4 SWAP3 POP POP POP JUMP JUMPDEST PUSH1 0x0 DUP3 PUSH1 0x1F DUP4 ADD SLT PUSH2 0x209F JUMPI PUSH2 0x209E PUSH2 0x1F72 JUMP JUMPDEST JUMPDEST DUP2 CALLDATALOAD PUSH2 0x20AF DUP5 DUP3 PUSH1 0x20 DUP7 ADD PUSH2 0x2048 JUMP JUMPDEST SWAP2 POP POP SWAP3 SWAP2 POP POP JUMP JUMPDEST PUSH1 0x0 DUP1 PUSH1 0x40 DUP4 DUP6 SUB SLT ISZERO PUSH2 0x20CF JUMPI PUSH2 0x20CE PUSH2 0x1E7A JUMP JUMPDEST JUMPDEST PUSH1 0x0 PUSH2 0x20DD DUP6 DUP3 DUP7 ADD PUSH2 0x1EAD JUMP JUMPDEST SWAP3 POP POP PUSH1 0x20 DUP4 ADD CALLDATALOAD PUSH8 0xFFFFFFFFFFFFFFFF DUP2 GT ISZERO PUSH2 0x20FE JUMPI PUSH2 0x20FD PUSH2 0x1E7F JUMP JUMPDEST JUMPDEST PUSH2 0x210A DUP6 DUP3 DUP7 ADD PUSH2 0x208A JUMP JUMPDEST SWAP2 POP POP SWAP3 POP SWAP3 SWAP1 POP JUMP JUMPDEST PUSH1 0x0 DUP2 SWAP1 POP SWAP2 SWAP1 POP JUMP JUMPDEST PUSH2 0x2127 DUP2 PUSH2 0x2114 JUMP JUMPDEST DUP3 MSTORE POP POP JUMP JUMPDEST PUSH1 0x0 PUSH1 0x20 DUP3 ADD SWAP1 POP PUSH2 0x2142 PUSH1 0x0 DUP4 ADD DUP5 PUSH2 0x211E JUMP JUMPDEST SWAP3 SWAP2 POP POP JUMP JUMPDEST PUSH1 0x0 DUP2 ISZERO ISZERO SWAP1 POP SWAP2 SWAP1 POP JUMP JUMPDEST PUSH2 0x215D DUP2 PUSH2 0x2148 JUMP JUMPDEST DUP3 MSTORE POP POP JUMP JUMPDEST PUSH1 0x0 PUSH1 0x20 DUP3 ADD SWAP1 POP PUSH2 0x2178 PUSH1 0x0 DUP4 ADD DUP5 PUSH2 0x2154 JUMP JUMPDEST SWAP3 SWAP2 POP POP JUMP JUMPDEST PUSH1 0x0 DUP1 PUSH1 0x0 DUP1 PUSH1 0x0 DUP1 PUSH1 0xC0 DUP8 DUP10 SUB SLT ISZERO PUSH2 0x219B JUMPI PUSH2 0x219A PUSH2 0x1E7A JUMP JUMPDEST JUMPDEST PUSH1 0x0 PUSH2 0x21A9 DUP10 DUP3 DUP11 ADD PUSH2 0x1EAD JUMP JUMPDEST SWAP7 POP POP PUSH1 0x20 PUSH2 0x21BA DUP10 DUP3 DUP11 ADD PUSH2 0x1EAD JUMP JUMPDEST SWAP6 POP POP PUSH1 0x40 PUSH2 0x21CB DUP10 DUP3 DUP11 ADD PUSH2 0x1F06 JUMP JUMPDEST SWAP5 POP POP PUSH1 0x60 PUSH2 0x21DC DUP10 DUP3 DUP11 ADD PUSH2 0x1F06 JUMP JUMPDEST SWAP4 POP POP PUSH1 0x80 PUSH2 0x21ED DUP10 DUP3 DUP11 ADD PUSH2 0x1F06 JUMP JUMPDEST SWAP3 POP POP PUSH1 0xA0 PUSH2 0x21FE DUP10 DUP3 DUP11 ADD PUSH2 0x1F06 JUMP JUMPDEST SWAP2 POP POP SWAP3 SWAP6 POP SWAP3 SWAP6 POP SWAP3 SWAP6 JUMP JUMPDEST PUSH1 0x0 PUSH2 0x2216 DUP3 PUSH2 0x1DEE JUMP JUMPDEST SWAP1 POP SWAP2 SWAP1 POP JUMP JUMPDEST PUSH2 0x2226 DUP2 PUSH2 0x220B JUMP JUMPDEST DUP3 MSTORE POP POP JUMP JUMPDEST PUSH1 0x0 PUSH1 0x20 DUP3 ADD SWAP1 POP PUSH2 0x2241 PUSH1 0x0 DUP4 ADD DUP5 PUSH2 0x221D JUMP JUMPDEST SWAP3 SWAP2 POP POP JUMP JUMPDEST PUSH1 0x0 DUP2 MLOAD SWAP1 POP SWAP2 SWAP1 POP JUMP JUMPDEST PUSH1 0x0 DUP3 DUP3 MSTORE PUSH1 0x20 DUP3 ADD SWAP1 POP SWAP3 SWAP2 POP POP JUMP JUMPDEST PUSH1 0x0 JUMPDEST DUP4 DUP2 LT ISZERO PUSH2 0x2281 JUMPI DUP1 DUP3 ADD MLOAD DUP2 DUP5 ADD MSTORE PUSH1 0x20 DUP2 ADD SWAP1 POP PUSH2 0x2266 JUMP JUMPDEST PUSH1 0x0 DUP5 DUP5 ADD MSTORE POP POP POP POP JUMP JUMPDEST PUSH1 0x0 PUSH2 0x2298 DUP3 PUSH2 0x2247 JUMP JUMPDEST PUSH2 0x22A2 DUP2 DUP6 PUSH2 0x2252 JUMP JUMPDEST SWAP4 POP PUSH2 0x22B2 DUP2 DUP6 PUSH1 0x20 DUP7 ADD PUSH2 0x2263 JUMP JUMPDEST PUSH2 0x22BB DUP2 PUSH2 0x1F7C JUMP JUMPDEST DUP5 ADD SWAP2 POP POP SWAP3 SWAP2 POP POP JUMP JUMPDEST PUSH1 0x0 PUSH1 0x20 DUP3 ADD SWAP1 POP DUP2 DUP2 SUB PUSH1 0x0 DUP4 ADD MSTORE PUSH2 0x22E0 DUP2 DUP5 PUSH2 0x228D JUMP JUMPDEST SWAP1 POP SWAP3 SWAP2 POP POP JUMP JUMPDEST PUSH32 0x46756E6374696F6E206D7573742062652063616C6C6564207468726F75676820 PUSH1 0x0 DUP3 ADD MSTORE PUSH32 0x64656C656761746563616C6C0000000000000000000000000000000000000000 PUSH1 0x20 DUP3 ADD MSTORE POP JUMP JUMPDEST PUSH1 0x0 PUSH2 0x2344 PUSH1 0x2C DUP4 PUSH2 0x2252 JUMP JUMPDEST SWAP2 POP PUSH2 0x234F DUP3 PUSH2 0x22E8 JUMP JUMPDEST PUSH1 0x40 DUP3 ADD SWAP1 POP SWAP2 SWAP1 POP JUMP JUMPDEST PUSH1 0x0 PUSH1 0x20 DUP3 ADD SWAP1 POP DUP2 DUP2 SUB PUSH1 0x0 DUP4 ADD MSTORE PUSH2 0x2373 DUP2 PUSH2 0x2337 JUMP JUMPDEST SWAP1 POP SWAP2 SWAP1 POP JUMP JUMPDEST PUSH32 0x46756E6374696F6E206D7573742062652063616C6C6564207468726F75676820 PUSH1 0x0 DUP3 ADD MSTORE PUSH32 0x6163746976652070726F78790000000000000000000000000000000000000000 PUSH1 0x20 DUP3 ADD MSTORE POP JUMP JUMPDEST PUSH1 0x0 PUSH2 0x23D6 PUSH1 0x2C DUP4 PUSH2 0x2252 JUMP JUMPDEST SWAP2 POP PUSH2 0x23E1 DUP3 PUSH2 0x237A JUMP JUMPDEST PUSH1 0x40 DUP3 ADD SWAP1 POP SWAP2 SWAP1 POP JUMP JUMPDEST PUSH1 0x0 PUSH1 0x20 DUP3 ADD SWAP1 POP DUP2 DUP2 SUB PUSH1 0x0 DUP4 ADD MSTORE PUSH2 0x2405 DUP2 PUSH2 0x23C9 JUMP JUMPDEST SWAP1 POP SWAP2 SWAP1 POP JUMP JUMPDEST PUSH32 0x41756374696F6E2068617320616C726561647920656E64656400000000000000 PUSH1 0x0 DUP3 ADD MSTORE POP JUMP JUMPDEST PUSH1 0x0 PUSH2 0x2442 PUSH1 0x19 DUP4 PUSH2 0x2252 JUMP JUMPDEST SWAP2 POP PUSH2 0x244D DUP3 PUSH2 0x240C JUMP JUMPDEST PUSH1 0x20 DUP3 ADD SWAP1 POP SWAP2 SWAP1 POP JUMP JUMPDEST PUSH1 0x0 PUSH1 0x20 DUP3 ADD SWAP1 POP DUP2 DUP2 SUB PUSH1 0x0 DUP4 ADD MSTORE PUSH2 0x2471 DUP2 PUSH2 0x2435 JUMP JUMPDEST SWAP1 POP SWAP2 SWAP1 POP JUMP JUMPDEST PUSH32 0x4E487B7100000000000000000000000000000000000000000000000000000000 PUSH1 0x0 MSTORE PUSH1 0x11 PUSH1 0x4 MSTORE PUSH1 0x24 PUSH1 0x0 REVERT JUMPDEST PUSH1 0x0 PUSH2 0x24B2 DUP3 PUSH2 0x1E3C JUMP JUMPDEST SWAP2 POP PUSH2 0x24BD DUP4 PUSH2 0x1E3C JUMP JUMPDEST SWAP3 POP DUP3 DUP3 SUB SWAP1 POP DUP2 DUP2 GT ISZERO PUSH2 0x24D5 JUMPI PUSH2 0x24D4 PUSH2 0x2478 JUMP JUMPDEST JUMPDEST SWAP3 SWAP2 POP POP JUMP JUMPDEST PUSH32 0x41756374696F6E20456E64656400000000000000000000000000000000000000 PUSH1 0x0 DUP3 ADD MSTORE POP JUMP JUMPDEST PUSH1 0x0 PUSH2 0x2511 PUSH1 0xD DUP4 PUSH2 0x2252 JUMP JUMPDEST SWAP2 POP PUSH2 0x251C DUP3 PUSH2 0x24DB JUMP JUMPDEST PUSH1 0x20 DUP3 ADD SWAP1 POP SWAP2 SWAP1 POP JUMP JUMPDEST PUSH1 0x0 PUSH1 0x20 DUP3 ADD SWAP1 POP DUP2 DUP2 SUB PUSH1 0x0 DUP4 ADD MSTORE PUSH2 0x2540 DUP2 PUSH2 0x2504 JUMP JUMPDEST SWAP1 POP SWAP2 SWAP1 POP JUMP JUMPDEST PUSH1 0x0 PUSH2 0x2552 DUP3 PUSH2 0x1E3C JUMP JUMPDEST SWAP2 POP PUSH2 0x255D DUP4 PUSH2 0x1E3C JUMP JUMPDEST SWAP3 POP DUP3 DUP3 MUL PUSH2 0x256B DUP2 PUSH2 0x1E3C JUMP JUMPDEST SWAP2 POP DUP3 DUP3 DIV DUP5 EQ DUP4 ISZERO OR PUSH2 0x2582 JUMPI PUSH2 0x2581 PUSH2 0x2478 JUMP JUMPDEST JUMPDEST POP SWAP3 SWAP2 POP POP JUMP JUMPDEST PUSH32 0x5468652062696420616D6F756E742073656E7420697320746F6F206C6F770000 PUSH1 0x0 DUP3 ADD MSTORE POP JUMP JUMPDEST PUSH1 0x0 PUSH2 0x25BF PUSH1 0x1E DUP4 PUSH2 0x2252 JUMP JUMPDEST SWAP2 POP PUSH2 0x25CA DUP3 PUSH2 0x2589 JUMP JUMPDEST PUSH1 0x20 DUP3 ADD SWAP1 POP SWAP2 SWAP1 POP JUMP JUMPDEST PUSH1 0x0 PUSH1 0x20 DUP3 ADD SWAP1 POP DUP2 DUP2 SUB PUSH1 0x0 DUP4 ADD MSTORE PUSH2 0x25EE DUP2 PUSH2 0x25B2 JUMP JUMPDEST SWAP1 POP SWAP2 SWAP1 POP JUMP JUMPDEST PUSH1 0x0 PUSH1 0x40 DUP3 ADD SWAP1 POP PUSH2 0x260A PUSH1 0x0 DUP4 ADD DUP6 PUSH2 0x1F48 JUMP JUMPDEST PUSH2 0x2617 PUSH1 0x20 DUP4 ADD DUP5 PUSH2 0x1F48 JUMP JUMPDEST SWAP4 SWAP3 POP POP POP JUMP JUMPDEST PUSH1 0x0 DUP2 MLOAD SWAP1 POP PUSH2 0x262D DUP2 PUSH2 0x1EEF JUMP JUMPDEST SWAP3 SWAP2 POP POP JUMP JUMPDEST PUSH1 0x0 PUSH1 0x20 DUP3 DUP5 SUB SLT ISZERO PUSH2 0x2649 JUMPI PUSH2 0x2648 PUSH2 0x1E7A JUMP JUMPDEST JUMPDEST PUSH1 0x0 PUSH2 0x2657 DUP5 DUP3 DUP6 ADD PUSH2 0x261E JUMP JUMPDEST SWAP2 POP POP SWAP3 SWAP2 POP POP JUMP JUMPDEST PUSH32 0x42696420616D6F756E742061636365707465642C206275742062696420666169 PUSH1 0x0 DUP3 ADD MSTORE PUSH32 0x6C65642062656361757365206E6F7420656E6F7567682062616C616E63652074 PUSH1 0x20 DUP3 ADD MSTORE PUSH32 0x6F207472616E7366657220657263323020746F6B656E00000000000000000000 PUSH1 0x40 DUP3 ADD MSTORE POP JUMP JUMPDEST PUSH1 0x0 PUSH2 0x26E2 PUSH1 0x56 DUP4 PUSH2 0x2252 JUMP JUMPDEST SWAP2 POP PUSH2 0x26ED DUP3 PUSH2 0x2660 JUMP JUMPDEST PUSH1 0x60 DUP3 ADD SWAP1 POP SWAP2 SWAP1 POP JUMP JUMPDEST PUSH1 0x0 PUSH1 0x20 DUP3 ADD SWAP1 POP DUP2 DUP2 SUB PUSH1 0x0 DUP4 ADD MSTORE PUSH2 0x2711 DUP2 PUSH2 0x26D5 JUMP JUMPDEST SWAP1 POP SWAP2 SWAP1 POP JUMP JUMPDEST PUSH1 0x0 PUSH1 0x60 DUP3 ADD SWAP1 POP PUSH2 0x272D PUSH1 0x0 DUP4 ADD DUP7 PUSH2 0x1F48 JUMP JUMPDEST PUSH2 0x273A PUSH1 0x20 DUP4 ADD DUP6 PUSH2 0x1F48 JUMP JUMPDEST PUSH2 0x2747 PUSH1 0x40 DUP4 ADD DUP5 PUSH2 0x1E46 JUMP JUMPDEST SWAP5 SWAP4 POP POP POP POP JUMP JUMPDEST PUSH2 0x2758 DUP2 PUSH2 0x2148 JUMP JUMPDEST DUP2 EQ PUSH2 0x2763 JUMPI PUSH1 0x0 DUP1 REVERT JUMPDEST POP JUMP JUMPDEST PUSH1 0x0 DUP2 MLOAD SWAP1 POP PUSH2 0x2775 DUP2 PUSH2 0x274F JUMP JUMPDEST SWAP3 SWAP2 POP POP JUMP JUMPDEST PUSH1 0x0 PUSH1 0x20 DUP3 DUP5 SUB SLT ISZERO PUSH2 0x2791 JUMPI PUSH2 0x2790 PUSH2 0x1E7A JUMP JUMPDEST JUMPDEST PUSH1 0x0 PUSH2 0x279F DUP5 DUP3 DUP6 ADD PUSH2 0x2766 JUMP JUMPDEST SWAP2 POP POP SWAP3 SWAP2 POP POP JUMP JUMPDEST PUSH32 0x555550535570677261646561626C653A206D757374206E6F742062652063616C PUSH1 0x0 DUP3 ADD MSTORE PUSH32 0x6C6564207468726F7567682064656C656761746563616C6C0000000000000000 PUSH1 0x20 DUP3 ADD MSTORE POP JUMP JUMPDEST PUSH1 0x0 PUSH2 0x2804 PUSH1 0x38 DUP4 PUSH2 0x2252 JUMP JUMPDEST SWAP2 POP PUSH2 0x280F DUP3 PUSH2 0x27A8 JUMP JUMPDEST PUSH1 0x40 DUP3 ADD SWAP1 POP SWAP2 SWAP1 POP JUMP JUMPDEST PUSH1 0x0 PUSH1 0x20 DUP3 ADD SWAP1 POP DUP2 DUP2 SUB PUSH1 0x0 DUP4 ADD MSTORE PUSH2 0x2833 DUP2 PUSH2 0x27F7 JUMP JUMPDEST SWAP1 POP SWAP2 SWAP1 POP JUMP JUMPDEST PUSH32 0x496E697469616C697A61626C653A20636F6E747261637420697320616C726561 PUSH1 0x0 DUP3 ADD MSTORE PUSH32 0x647920696E697469616C697A6564000000000000000000000000000000000000 PUSH1 0x20 DUP3 ADD MSTORE POP JUMP JUMPDEST PUSH1 0x0 PUSH2 0x2896 PUSH1 0x2E DUP4 PUSH2 0x2252 JUMP JUMPDEST SWAP2 POP PUSH2 0x28A1 DUP3 PUSH2 0x283A JUMP JUMPDEST PUSH1 0x40 DUP3 ADD SWAP1 POP SWAP2 SWAP1 POP JUMP JUMPDEST PUSH1 0x0 PUSH1 0x20 DUP3 ADD SWAP1 POP DUP2 DUP2 SUB PUSH1 0x0 DUP4 ADD MSTORE PUSH2 0x28C5 DUP2 PUSH2 0x2889 JUMP JUMPDEST SWAP1 POP SWAP2 SWAP1 POP JUMP JUMPDEST PUSH1 0x0 PUSH2 0x28D7 DUP3 PUSH2 0x1E3C JUMP JUMPDEST SWAP2 POP PUSH2 0x28E2 DUP4 PUSH2 0x1E3C JUMP JUMPDEST SWAP3 POP DUP3 DUP3 ADD SWAP1 POP DUP1 DUP3 GT ISZERO PUSH2 0x28FA JUMPI PUSH2 0x28F9 PUSH2 0x2478 JUMP JUMPDEST JUMPDEST SWAP3 SWAP2 POP POP JUMP JUMPDEST PUSH1 0x0 DUP2 SWAP1 POP SWAP2 SWAP1 POP JUMP JUMPDEST PUSH1 0x0 PUSH1 0xFF DUP3 AND SWAP1 POP SWAP2 SWAP1 POP JUMP JUMPDEST PUSH1 0x0 PUSH2 0x2932 PUSH2 0x292D PUSH2 0x2928 DUP5 PUSH2 0x2900 JUMP JUMPDEST PUSH2 0x1DC2 JUMP JUMPDEST PUSH2 0x290A JUMP JUMPDEST SWAP1 POP SWAP2 SWAP1 POP JUMP JUMPDEST PUSH2 0x2942 DUP2 PUSH2 0x2917 JUMP JUMPDEST DUP3 MSTORE POP POP JUMP JUMPDEST PUSH1 0x0 PUSH1 0x20 DUP3 ADD SWAP1 POP PUSH2 0x295D PUSH1 0x0 DUP4 ADD DUP5 PUSH2 0x2939 JUMP JUMPDEST SWAP3 SWAP2 POP POP JUMP JUMPDEST PUSH32 0x4E487B7100000000000000000000000000000000000000000000000000000000 PUSH1 0x0 MSTORE PUSH1 0x22 PUSH1 0x4 MSTORE PUSH1 0x24 PUSH1 0x0 REVERT JUMPDEST PUSH1 0x0 PUSH1 0x2 DUP3 DIV SWAP1 POP PUSH1 0x1 DUP3 AND DUP1 PUSH2 0x29AA JUMPI PUSH1 0x7F DUP3 AND SWAP2 POP JUMPDEST PUSH1 0x20 DUP3 LT DUP2 SUB PUSH2 0x29BD JUMPI PUSH2 0x29BC PUSH2 0x2963 JUMP JUMPDEST JUMPDEST POP SWAP2 SWAP1 POP JUMP JUMPDEST PUSH32 0x4F776E61626C653A206E6577206F776E657220697320746865207A65726F2061 PUSH1 0x0 DUP3 ADD MSTORE PUSH32 0x6464726573730000000000000000000000000000000000000000000000000000 PUSH1 0x20 DUP3 ADD MSTORE POP JUMP JUMPDEST PUSH1 0x0 PUSH2 0x2A1F PUSH1 0x26 DUP4 PUSH2 0x2252 JUMP JUMPDEST SWAP2 POP PUSH2 0x2A2A DUP3 PUSH2 0x29C3 JUMP JUMPDEST PUSH1 0x40 DUP3 ADD SWAP1 POP SWAP2 SWAP1 POP JUMP JUMPDEST PUSH1 0x0 PUSH1 0x20 DUP3 ADD SWAP1 POP DUP2 DUP2 SUB PUSH1 0x0 DUP4 ADD MSTORE PUSH2 0x2A4E DUP2 PUSH2 0x2A12 JUMP JUMPDEST SWAP1 POP SWAP2 SWAP1 POP JUMP JUMPDEST PUSH2 0x2A5E DUP2 PUSH2 0x2114 JUMP JUMPDEST DUP2 EQ PUSH2 0x2A69 JUMPI PUSH1 0x0 DUP1 REVERT JUMPDEST POP JUMP JUMPDEST PUSH1 0x0 DUP2 MLOAD SWAP1 POP PUSH2 0x2A7B DUP2 PUSH2 0x2A55 JUMP JUMPDEST SWAP3 SWAP2 POP POP JUMP JUMPDEST PUSH1 0x0 PUSH1 0x20 DUP3 DUP5 SUB SLT ISZERO PUSH2 0x2A97 JUMPI PUSH2 0x2A96 PUSH2 0x1E7A JUMP JUMPDEST JUMPDEST PUSH1 0x0 PUSH2 0x2AA5 DUP5 DUP3 DUP6 ADD PUSH2 0x2A6C JUMP JUMPDEST SWAP2 POP POP SWAP3 SWAP2 POP POP JUMP JUMPDEST PUSH32 0x45524331393637557067726164653A206E657720696D706C656D656E74617469 PUSH1 0x0 DUP3 ADD MSTORE PUSH32 0x6F6E206973206E6F742055555053000000000000000000000000000000000000 PUSH1 0x20 DUP3 ADD MSTORE POP JUMP JUMPDEST PUSH1 0x0 PUSH2 0x2B0A PUSH1 0x2E DUP4 PUSH2 0x2252 JUMP JUMPDEST SWAP2 POP PUSH2 0x2B15 DUP3 PUSH2 0x2AAE JUMP JUMPDEST PUSH1 0x40 DUP3 ADD SWAP1 POP SWAP2 SWAP1 POP JUMP JUMPDEST PUSH1 0x0 PUSH1 0x20 DUP3 ADD SWAP1 POP DUP2 DUP2 SUB PUSH1 0x0 DUP4 ADD MSTORE PUSH2 0x2B39 DUP2 PUSH2 0x2AFD JUMP JUMPDEST SWAP1 POP SWAP2 SWAP1 POP JUMP JUMPDEST PUSH32 0x45524331393637557067726164653A20756E737570706F727465642070726F78 PUSH1 0x0 DUP3 ADD MSTORE PUSH32 0x6961626C65555549440000000000000000000000000000000000000000000000 PUSH1 0x20 DUP3 ADD MSTORE POP JUMP JUMPDEST PUSH1 0x0 PUSH2 0x2B9C PUSH1 0x29 DUP4 PUSH2 0x2252 JUMP JUMPDEST SWAP2 POP PUSH2 0x2BA7 DUP3 PUSH2 0x2B40 JUMP JUMPDEST PUSH1 0x40 DUP3 ADD SWAP1 POP SWAP2 SWAP1 POP JUMP JUMPDEST PUSH1 0x0 PUSH1 0x20 DUP3 ADD SWAP1 POP DUP2 DUP2 SUB PUSH1 0x0 DUP4 ADD MSTORE PUSH2 0x2BCB DUP2 PUSH2 0x2B8F JUMP JUMPDEST SWAP1 POP SWAP2 SWAP1 POP JUMP JUMPDEST PUSH32 0x4F776E61626C653A2063616C6C6572206973206E6F7420746865206F776E6572 PUSH1 0x0 DUP3 ADD MSTORE POP JUMP JUMPDEST PUSH1 0x0 PUSH2 0x2C08 PUSH1 0x20 DUP4 PUSH2 0x2252 JUMP JUMPDEST SWAP2 POP PUSH2 0x2C13 DUP3 PUSH2 0x2BD2 JUMP JUMPDEST PUSH1 0x20 DUP3 ADD SWAP1 POP SWAP2 SWAP1 POP JUMP JUMPDEST PUSH1 0x0 PUSH1 0x20 DUP3 ADD SWAP1 POP DUP2 DUP2 SUB PUSH1 0x0 DUP4 ADD MSTORE PUSH2 0x2C37 DUP2 PUSH2 0x2BFB JUMP JUMPDEST SWAP1 POP SWAP2 SWAP1 POP JUMP JUMPDEST PUSH32 0x496E697469616C697A61626C653A20636F6E7472616374206973206E6F742069 PUSH1 0x0 DUP3 ADD MSTORE PUSH32 0x6E697469616C697A696E67000000000000000000000000000000000000000000 PUSH1 0x20 DUP3 ADD MSTORE POP JUMP JUMPDEST PUSH1 0x0 PUSH2 0x2C9A PUSH1 0x2B DUP4 PUSH2 0x2252 JUMP JUMPDEST SWAP2 POP PUSH2 0x2CA5 DUP3 PUSH2 0x2C3E JUMP JUMPDEST PUSH1 0x40 DUP3 ADD SWAP1 POP SWAP2 SWAP1 POP JUMP JUMPDEST PUSH1 0x0 PUSH1 0x20 DUP3 ADD SWAP1 POP DUP2 DUP2 SUB PUSH1 0x0 DUP4 ADD MSTORE PUSH2 0x2CC9 DUP2 PUSH2 0x2C8D JUMP JUMPDEST SWAP1 POP SWAP2 SWAP1 POP JUMP JUMPDEST PUSH32 0x455243313936373A206E657720696D706C656D656E746174696F6E206973206E PUSH1 0x0 DUP3 ADD MSTORE PUSH32 0x6F74206120636F6E747261637400000000000000000000000000000000000000 PUSH1 0x20 DUP3 ADD MSTORE POP JUMP JUMPDEST PUSH1 0x0 PUSH2 0x2D2C PUSH1 0x2D DUP4 PUSH2 0x2252 JUMP JUMPDEST SWAP2 POP PUSH2 0x2D37 DUP3 PUSH2 0x2CD0 JUMP JUMPDEST PUSH1 0x40 DUP3 ADD SWAP1 POP SWAP2 SWAP1 POP JUMP JUMPDEST PUSH1 0x0 PUSH1 0x20 DUP3 ADD SWAP1 POP DUP2 DUP2 SUB PUSH1 0x0 DUP4 ADD MSTORE PUSH2 0x2D5B DUP2 PUSH2 0x2D1F JUMP JUMPDEST SWAP1 POP SWAP2 SWAP1 POP JUMP JUMPDEST PUSH1 0x0 DUP2 MLOAD SWAP1 POP SWAP2 SWAP1 POP JUMP JUMPDEST PUSH1 0x0 DUP2 SWAP1 POP SWAP3 SWAP2 POP POP JUMP JUMPDEST PUSH1 0x0 PUSH2 0x2D83 DUP3 PUSH2 0x2D62 JUMP JUMPDEST PUSH2 0x2D8D DUP2 DUP6 PUSH2 0x2D6D JUMP JUMPDEST SWAP4 POP PUSH2 0x2D9D DUP2 DUP6 PUSH1 0x20 DUP7 ADD PUSH2 0x2263 JUMP JUMPDEST DUP1 DUP5 ADD SWAP2 POP POP SWAP3 SWAP2 POP POP JUMP JUMPDEST PUSH1 0x0 PUSH2 0x2DB5 DUP3 DUP5 PUSH2 0x2D78 JUMP JUMPDEST SWAP2 POP DUP2 SWAP1 POP SWAP3 SWAP2 POP POP JUMP JUMPDEST PUSH32 0x416464726573733A2063616C6C20746F206E6F6E2D636F6E7472616374000000 PUSH1 0x0 DUP3 ADD MSTORE POP JUMP JUMPDEST PUSH1 0x0 PUSH2 0x2DF6 PUSH1 0x1D DUP4 PUSH2 0x2252 JUMP JUMPDEST SWAP2 POP PUSH2 0x2E01 DUP3 PUSH2 0x2DC0 JUMP JUMPDEST PUSH1 0x20 DUP3 ADD SWAP1 POP SWAP2 SWAP1 POP JUMP JUMPDEST PUSH1 0x0 PUSH1 0x20 DUP3 ADD SWAP1 POP DUP2 DUP2 SUB PUSH1 0x0 DUP4 ADD MSTORE PUSH2 0x2E25 DUP2 PUSH2 0x2DE9 JUMP JUMPDEST SWAP1 POP SWAP2 SWAP1 POP JUMP INVALID COINBASE PUSH5 0x6472657373 GASPRICE KECCAK256 PUSH13 0x6F772D6C6576656C2064656C65 PUSH8 0x6174652063616C6C KECCAK256 PUSH7 0x61696C6564A264 PUSH10 0x7066735822122045EAF8 0xBD PUSH5 0xC427E0EB5A LOG1 0xF9 0x1E SWAP9 POP SHL OR MOD 0x4E 0xCB 0xA5 0xEF EXTCODESIZE SLT PUSH9 0xEBA8841877ED3A6473 PUSH16 0x6C634300081200330000000000000000 "},"methodIdentifiers":{"auctionEnded()":"86433374","bid(uint256)":"454a2ab3","bidderTokens(address)":"30a01258","bidders(uint256)":"cff29dfd","endsAtBlockNumber()":"a7b7dcfd","erc20TokenReference()":"eb0d1e92","finalPrice()":"a6b513ee","getCurrentPrice()":"eb91d37e","initialPrice()":"1d0806ae","initialize(address,address,uint256,uint256,uint256,uint256)":"86489ba9","nftTokenId()":"7e830574","nfterc721Reference()":"0c298750","numBlocksAuctionOpen()":"3103ea62","offerPriceDecrement()":"d3642a88","owner()":"8da5cb5b","proxiableUUID()":"52d1902d","renounceOwnership()":"715018a6","reservePrice()":"db2e1eed","startAtBlockNumber()":"56eeb3b0","totalBidTokens()":"4362237e","transferOwnership(address)":"f2fde38b","upgradeNumber()":"eb8bf84d","upgradeTo(address)":"3659cfe6","upgradeToAndCall(address,bytes)":"4f1ef286"}}}}}