{
  "_format": "hh-sol-artifact-1",
  "contractName": "NFTDutchAuction_ERC20Bids",
  "sourceName": "contracts/NFT_ERC20.sol",
  "abi": [
    {
      "anonymous": false,
      "inputs": [
        {
          "indexed": false,
          "internalType": "address",
          "name": "previousAdmin",
          "type": "address"
        },
        {
          "indexed": false,
          "internalType": "address",
          "name": "newAdmin",
          "type": "address"
        }
      ],
      "name": "AdminChanged",
      "type": "event"
    },
    {
      "anonymous": false,
      "inputs": [
        {
          "indexed": true,
          "internalType": "address",
          "name": "beacon",
          "type": "address"
        }
      ],
      "name": "BeaconUpgraded",
      "type": "event"
    },
    {
      "anonymous": false,
      "inputs": [
        {
          "indexed": false,
          "internalType": "uint8",
          "name": "version",
          "type": "uint8"
        }
      ],
      "name": "Initialized",
      "type": "event"
    },
    {
      "anonymous": false,
      "inputs": [
        {
          "indexed": true,
          "internalType": "address",
          "name": "previousOwner",
          "type": "address"
        },
        {
          "indexed": true,
          "internalType": "address",
          "name": "newOwner",
          "type": "address"
        }
      ],
      "name": "OwnershipTransferred",
      "type": "event"
    },
    {
      "anonymous": false,
      "inputs": [
        {
          "indexed": true,
          "internalType": "address",
          "name": "implementation",
          "type": "address"
        }
      ],
      "name": "Upgraded",
      "type": "event"
    },
    {
      "inputs": [],
      "name": "auctionEnded",
      "outputs": [
        {
          "internalType": "bool",
          "name": "",
          "type": "bool"
        }
      ],
      "stateMutability": "view",
      "type": "function"
    },
    {
      "inputs": [
        {
          "internalType": "uint256",
          "name": "bidAmount",
          "type": "uint256"
        }
      ],
      "name": "bid",
      "outputs": [
        {
          "internalType": "address",
          "name": "",
          "type": "address"
        }
      ],
      "stateMutability": "nonpayable",
      "type": "function"
    },
    {
      "inputs": [
        {
          "internalType": "address",
          "name": "",
          "type": "address"
        }
      ],
      "name": "bidderTokens",
      "outputs": [
        {
          "internalType": "uint256",
          "name": "",
          "type": "uint256"
        }
      ],
      "stateMutability": "view",
      "type": "function"
    },
    {
      "inputs": [
        {
          "internalType": "uint256",
          "name": "",
          "type": "uint256"
        }
      ],
      "name": "bidders",
      "outputs": [
        {
          "internalType": "address",
          "name": "",
          "type": "address"
        }
      ],
      "stateMutability": "view",
      "type": "function"
    },
    {
      "inputs": [],
      "name": "endsAtBlockNumber",
      "outputs": [
        {
          "internalType": "uint256",
          "name": "",
          "type": "uint256"
        }
      ],
      "stateMutability": "view",
      "type": "function"
    },
    {
      "inputs": [],
      "name": "erc20TokenReference",
      "outputs": [
        {
          "internalType": "contract IERC20",
          "name": "",
          "type": "address"
        }
      ],
      "stateMutability": "view",
      "type": "function"
    },
    {
      "inputs": [],
      "name": "finalPrice",
      "outputs": [
        {
          "internalType": "uint256",
          "name": "",
          "type": "uint256"
        }
      ],
      "stateMutability": "view",
      "type": "function"
    },
    {
      "inputs": [],
      "name": "getCurrentPrice",
      "outputs": [
        {
          "internalType": "uint256",
          "name": "",
          "type": "uint256"
        }
      ],
      "stateMutability": "view",
      "type": "function"
    },
    {
      "inputs": [],
      "name": "initialPrice",
      "outputs": [
        {
          "internalType": "uint256",
          "name": "",
          "type": "uint256"
        }
      ],
      "stateMutability": "view",
      "type": "function"
    },
    {
      "inputs": [
        {
          "internalType": "address",
          "name": "erc20TokenAddress",
          "type": "address"
        },
        {
          "internalType": "address",
          "name": "erc721TokenAddress",
          "type": "address"
        },
        {
          "internalType": "uint256",
          "name": "_nftTokenId",
          "type": "uint256"
        },
        {
          "internalType": "uint256",
          "name": "_reservePrice",
          "type": "uint256"
        },
        {
          "internalType": "uint256",
          "name": "_numBlocksAuctionOpen",
          "type": "uint256"
        },
        {
          "internalType": "uint256",
          "name": "_offerPriceDecrement",
          "type": "uint256"
        }
      ],
      "name": "initialize",
      "outputs": [],
      "stateMutability": "nonpayable",
      "type": "function"
    },
    {
      "inputs": [],
      "name": "nftTokenId",
      "outputs": [
        {
          "internalType": "uint256",
          "name": "",
          "type": "uint256"
        }
      ],
      "stateMutability": "view",
      "type": "function"
    },
    {
      "inputs": [],
      "name": "nfterc721Reference",
      "outputs": [
        {
          "internalType": "contract IERC721",
          "name": "",
          "type": "address"
        }
      ],
      "stateMutability": "view",
      "type": "function"
    },
    {
      "inputs": [],
      "name": "numBlocksAuctionOpen",
      "outputs": [
        {
          "internalType": "uint256",
          "name": "",
          "type": "uint256"
        }
      ],
      "stateMutability": "view",
      "type": "function"
    },
    {
      "inputs": [],
      "name": "offerPriceDecrement",
      "outputs": [
        {
          "internalType": "uint256",
          "name": "",
          "type": "uint256"
        }
      ],
      "stateMutability": "view",
      "type": "function"
    },
    {
      "inputs": [],
      "name": "owner",
      "outputs": [
        {
          "internalType": "address",
          "name": "",
          "type": "address"
        }
      ],
      "stateMutability": "view",
      "type": "function"
    },
    {
      "inputs": [],
      "name": "proxiableUUID",
      "outputs": [
        {
          "internalType": "bytes32",
          "name": "",
          "type": "bytes32"
        }
      ],
      "stateMutability": "view",
      "type": "function"
    },
    {
      "inputs": [],
      "name": "renounceOwnership",
      "outputs": [],
      "stateMutability": "nonpayable",
      "type": "function"
    },
    {
      "inputs": [],
      "name": "reservePrice",
      "outputs": [
        {
          "internalType": "uint256",
          "name": "",
          "type": "uint256"
        }
      ],
      "stateMutability": "view",
      "type": "function"
    },
    {
      "inputs": [],
      "name": "startAtBlockNumber",
      "outputs": [
        {
          "internalType": "uint256",
          "name": "",
          "type": "uint256"
        }
      ],
      "stateMutability": "view",
      "type": "function"
    },
    {
      "inputs": [],
      "name": "totalBidTokens",
      "outputs": [
        {
          "internalType": "uint256",
          "name": "",
          "type": "uint256"
        }
      ],
      "stateMutability": "view",
      "type": "function"
    },
    {
      "inputs": [
        {
          "internalType": "address",
          "name": "newOwner",
          "type": "address"
        }
      ],
      "name": "transferOwnership",
      "outputs": [],
      "stateMutability": "nonpayable",
      "type": "function"
    },
    {
      "inputs": [],
      "name": "upgradeNumber",
      "outputs": [
        {
          "internalType": "string",
          "name": "",
          "type": "string"
        }
      ],
      "stateMutability": "view",
      "type": "function"
    },
    {
      "inputs": [
        {
          "internalType": "address",
          "name": "newImplementation",
          "type": "address"
        }
      ],
      "name": "upgradeTo",
      "outputs": [],
      "stateMutability": "nonpayable",
      "type": "function"
    },
    {
      "inputs": [
        {
          "internalType": "address",
          "name": "newImplementation",
          "type": "address"
        },
        {
          "internalType": "bytes",
          "name": "data",
          "type": "bytes"
        }
      ],
      "name": "upgradeToAndCall",
      "outputs": [],
      "stateMutability": "payable",
      "type": "function"
    }
  ],
  "bytecode": "0x60a06040523073ffffffffffffffffffffffffffffffffffffffff1660809073ffffffffffffffffffffffffffffffffffffffff1681525034801561004357600080fd5b50608051612e8961007b600039600081816105b10152818161063f01528181610d7f01528181610e0d0152610ebd0152612e896000f3fe60806040526004361061014b5760003560e01c806386433374116100b6578063d3642a881161006f578063d3642a8814610465578063db2e1eed14610490578063eb0d1e92146104bb578063eb8bf84d146104e6578063eb91d37e14610511578063f2fde38b1461053c5761014b565b8063864333741461035357806386489ba91461037e5780638da5cb5b146103a7578063a6b513ee146103d2578063a7b7dcfd146103fd578063cff29dfd146104285761014b565b8063454a2ab311610108578063454a2ab3146102625780634f1ef2861461029f57806352d1902d146102bb57806356eeb3b0146102e6578063715018a6146103115780637e830574146103285761014b565b80630c298750146101505780631d0806ae1461017b57806330a01258146101a65780633103ea62146101e35780633659cfe61461020e5780634362237e14610237575b600080fd5b34801561015c57600080fd5b50610165610565565b6040516101729190611e21565b60405180910390f35b34801561018757600080fd5b5061019061058b565b60405161019d9190611e55565b60405180910390f35b3480156101b257600080fd5b506101cd60048036038101906101c89190611ec2565b610591565b6040516101da9190611e55565b60405180910390f35b3480156101ef57600080fd5b506101f86105a9565b6040516102059190611e55565b60405180910390f35b34801561021a57600080fd5b5061023560048036038101906102309190611ec2565b6105af565b005b34801561024357600080fd5b5061024c610737565b6040516102599190611e55565b60405180910390f35b34801561026e57600080fd5b5061028960048036038101906102849190611f1b565b61073d565b6040516102969190611f57565b60405180910390f35b6102b960048036038101906102b491906120b8565b610d7d565b005b3480156102c757600080fd5b506102d0610eb9565b6040516102dd919061212d565b60405180910390f35b3480156102f257600080fd5b506102fb610f72565b6040516103089190611e55565b60405180910390f35b34801561031d57600080fd5b50610326610f78565b005b34801561033457600080fd5b5061033d610f8c565b60405161034a9190611e55565b60405180910390f35b34801561035f57600080fd5b50610368610f92565b6040516103759190612163565b60405180910390f35b34801561038a57600080fd5b506103a560048036038101906103a0919061217e565b610fa5565b005b3480156103b357600080fd5b506103bc61137b565b6040516103c99190611f57565b60405180910390f35b3480156103de57600080fd5b506103e76113a5565b6040516103f49190611e55565b60405180910390f35b34801561040957600080fd5b506104126113ab565b60405161041f9190611e55565b60405180910390f35b34801561043457600080fd5b5061044f600480360381019061044a9190611f1b565b6113b1565b60405161045c9190611f57565b60405180910390f35b34801561047157600080fd5b5061047a6113f0565b6040516104879190611e55565b60405180910390f35b34801561049c57600080fd5b506104a56113f6565b6040516104b29190611e55565b60405180910390f35b3480156104c757600080fd5b506104d06113fc565b6040516104dd919061222c565b60405180910390f35b3480156104f257600080fd5b506104fb611422565b60405161050891906122c6565b60405180910390f35b34801561051d57600080fd5b506105266114b0565b6040516105339190611e55565b60405180910390f35b34801561054857600080fd5b50610563600480360381019061055e9190611ec2565b6115d6565b005b60ca60009054906101000a900473ffffffffffffffffffffffffffffffffffffffff1681565b60d25481565b60d46020528060005260406000206000915090505481565b60ce5481565b7f000000000000000000000000000000000000000000000000000000000000000073ffffffffffffffffffffffffffffffffffffffff163073ffffffffffffffffffffffffffffffffffffffff160361063d576040517f08c379a00000000000000000000000000000000000000000000000000000000081526004016106349061235a565b60405180910390fd5b7f000000000000000000000000000000000000000000000000000000000000000073ffffffffffffffffffffffffffffffffffffffff1661067c611659565b73ffffffffffffffffffffffffffffffffffffffff16146106d2576040517f08c379a00000000000000000000000000000000000000000000000000000000081526004016106c9906123ec565b60405180910390fd5b6106db816116b0565b61073481600067ffffffffffffffff8111156106fa576106f9611f8d565b5b6040519080825280601f01601f19166020018201604052801561072c5781602001600182028036833780820191505090505b5060006116f7565b50565b60d65481565b600061075367a790558533be0dee60c01b611865565b61076767bc4e67a16c98659f60c01b611865565b61077b67c8de7c0062bc51a760c01b611865565b61078f678b4f64ae7fd816a260c01b611865565b60d760009054906101000a900460ff16156107df576040517f08c379a00000000000000000000000000000000000000000000000000000000081526004016107d690612458565b60405180910390fd5b6107f367134e67cc6de8e8ce60c01b611865565b610807673df468ee6aab34df60c01b611865565b61081b67f2dc4ac296b271c360c01b611865565b60ce5460d0544361082c91906124a7565b111561087a5761084667560525adb7895d0160c01b611865565b61085a67b41dac99936c077260c01b611865565b600160d760006101000a81548160ff02191690831515021790555061088f565b61088e67687673974f662a8060c01b611865565b5b6108a3670dd7a11186aadfbb60c01b611865565b6108b767b39eea05a6c8b55a60c01b611865565b6108cb67741dab03408a6c6c60c01b611865565b60ce5460d054436108dc91906124a7565b111561091d576040517f08c379a000000000000000000000000000000000000000000000000000000000815260040161091490612527565b60405180910390fd5b6109316791bd68e30bf0443960c01b611865565b61094567e6c7d7dfd54a87a460c01b611865565b610959674ecd27c4508ad6eb60c01b611865565b600060d0544361096991906124a7565b905061097f67ed519d8d1442468160c01b611865565b61099367d0b5773a5afefc4760c01b611865565b6000600160cf54836109a59190612547565b6109af91906124a7565b60d2546109bc91906124a7565b90506109d2673e7156524a781b8c60c01b611865565b6109e667ff0d0576224c6ead60c01b611865565b6109fa6757ec4a6f8e9d97d960c01b611865565b80841015610a3d576040517f08c379a0000000000000000000000000000000000000000000000000000000008152600401610a34906125d5565b60405180910390fd5b610a5167492859cd4c4b342160c01b611865565b610a6567bebc2b1005ecb36b60c01b611865565b610a79675a253b48013c4d4160c01b611865565b610a8d67cae972032d081d4f60c01b611865565b60cb60009054906101000a900473ffffffffffffffffffffffffffffffffffffffff1673ffffffffffffffffffffffffffffffffffffffff1663dd62ed3e610ad361137b565b306040518363ffffffff1660e01b8152600401610af19291906125f5565b602060405180830381865afa158015610b0e573d6000803e3d6000fd5b505050506040513d601f19601f82011682018060405250810190610b329190612633565b841115610b74576040517f08c379a0000000000000000000000000000000000000000000000000000000008152600401610b6b906126f8565b60405180910390fd5b610b8867948f2093eade29b560c01b611865565b610b9c67d5fd92c1eb224c0160c01b611865565b610bb0679128deb940fcbfde60c01b611865565b60ca60009054906101000a900473ffffffffffffffffffffffffffffffffffffffff1673ffffffffffffffffffffffffffffffffffffffff166323b872dd610bf661137b565b3360cc546040518463ffffffff1660e01b8152600401610c1893929190612718565b600060405180830381600087803b158015610c3257600080fd5b505af1158015610c46573d6000803e3d6000fd5b50505050610c5e67f6a89b801e9e4db460c01b611865565b610c72673e70bbe5687ecdec60c01b611865565b60cb60009054906101000a900473ffffffffffffffffffffffffffffffffffffffff1673ffffffffffffffffffffffffffffffffffffffff166323b872dd33610cb961137b565b876040518463ffffffff1660e01b8152600401610cd893929190612718565b6020604051808303816000875af1158015610cf7573d6000803e3d6000fd5b505050506040513d601f19601f82011682018060405250810190610d1b919061277b565b50610d3067d1254e3573d7cdfc60c01b611865565b600160d760006101000a81548160ff021916908315150217905550610d5f67ea5fe9528357e4b060c01b611865565b610d7367f4b130350a266b6e60c01b611865565b3392505050919050565b7f000000000000000000000000000000000000000000000000000000000000000073ffffffffffffffffffffffffffffffffffffffff163073ffffffffffffffffffffffffffffffffffffffff1603610e0b576040517f08c379a0000000000000000000000000000000000000000000000000000000008152600401610e029061235a565b60405180910390fd5b7f000000000000000000000000000000000000000000000000000000000000000073ffffffffffffffffffffffffffffffffffffffff16610e4a611659565b73ffffffffffffffffffffffffffffffffffffffff1614610ea0576040517f08c379a0000000000000000000000000000000000000000000000000000000008152600401610e97906123ec565b60405180910390fd5b610ea9826116b0565b610eb5828260016116f7565b5050565b60007f000000000000000000000000000000000000000000000000000000000000000073ffffffffffffffffffffffffffffffffffffffff163073ffffffffffffffffffffffffffffffffffffffff1614610f49576040517f08c379a0000000000000000000000000000000000000000000000000000000008152600401610f409061281a565b60405180910390fd5b7f360894a13ba1a3210667c828492db98dca3e2076cc3735a920a3ca505d382bbc60001b905090565b60d05481565b610f80611868565b610f8a60006118e6565b565b60cc5481565b60d760009054906101000a900460ff1681565b610fb9673531fb82be0746b560c01b611865565b60008060019054906101000a900460ff16159050808015610fea5750600160008054906101000a900460ff1660ff16105b806110175750610ff9306119ac565b1580156110165750600160008054906101000a900460ff1660ff16145b5b611056576040517f08c379a000000000000000000000000000000000000000000000000000000000815260040161104d906128ac565b60405180910390fd5b60016000806101000a81548160ff021916908360ff1602179055508015611093576001600060016101000a81548160ff0219169083151502179055505b6110a767992377cf723548e060c01b611865565b6110bb67608026f5937ea73460c01b611865565b6110cf6756598630fd939c2460c01b611865565b6110e3670172323ccf68160b60c01b611865565b6110eb6119cf565b6110ff67697a7a724c6c5c1060c01b611865565b611113670391de0a79f2ab3f60c01b611865565b61111b611a28565b61112f6776f1e49ea896c9f160c01b611865565b61114367e81335b699ac2c3060c01b611865565b61114c336118e6565b611160679a25ca0e8e433a2e60c01b611865565b8560ca60006101000a81548173ffffffffffffffffffffffffffffffffffffffff021916908373ffffffffffffffffffffffffffffffffffffffff1602179055506111b5677bc270e884a6b97360c01b611865565b8660cb60006101000a81548173ffffffffffffffffffffffffffffffffffffffff021916908373ffffffffffffffffffffffffffffffffffffffff16021790555061120a672c388457fd44af4760c01b611865565b8460cc8190555061122567e3f756d7670138fd60c01b611865565b8360cd819055506112406709614378f82f465360c01b611865565b8260ce8190555061125b67aaa4b9416c554ac960c01b611865565b8160cf819055506112766766fbe7b2a3df531960c01b611865565b4360d081905550611291674e2484547580a5b660c01b611865565b60ce5460d0546112a191906128cc565b60d1819055506112bb67be0f45b66728838260c01b611865565b600160cf5460ce546112cd9190612547565b6112d791906124a7565b60cd546112e491906128cc565b60d2819055506112fe6753be996441ff37e760c01b611865565b600060d760006101000a81548160ff02191690831515021790555080156113725760008060016101000a81548160ff0219169083151502179055507f7f26b83ff96e1f2b6a682f133852f6798a09c465da95921460cefb384740249860016040516113699190612948565b60405180910390a15b50505050505050565b6000603360009054906101000a900473ffffffffffffffffffffffffffffffffffffffff16905090565b60d35481565b60d15481565b60d581815481106113c157600080fd5b906000526020600020016000915054906101000a900473ffffffffffffffffffffffffffffffffffffffff1681565b60cf5481565b60cd5481565b60cb60009054906101000a900473ffffffffffffffffffffffffffffffffffffffff1681565b60d8805461142f90612992565b80601f016020809104026020016040519081016040528092919081815260200182805461145b90612992565b80156114a85780601f1061147d576101008083540402835291602001916114a8565b820191906000526020600020905b81548152906001019060200180831161148b57829003601f168201915b505050505081565b60006114c667455f140ec1ea898d60c01b611865565b6114da67cb070dc9e483d96860c01b611865565b6114ee679f9f06a1bbd6bdde60c01b611865565b600060d054436114fe91906124a7565b90506115146786c7663762f389d060c01b611865565b61152867bf7f0b60387889b260c01b611865565b60ce5481106115785761154567661c3ac6d6a978ea60c01b611865565b61155967151999811010615860c01b611865565b61156d678c5818526ebf7f1c60c01b611865565b60cd549150506115d3565b61158c670175c995e0e8328160c01b611865565b6115a0675346f3248d41b20860c01b611865565b6115b467638fe0cc800c174960c01b611865565b60cf54816115c29190612547565b60d2546115cf91906124a7565b9150505b90565b6115de611868565b600073ffffffffffffffffffffffffffffffffffffffff168173ffffffffffffffffffffffffffffffffffffffff160361164d576040517f08c379a000000000000000000000000000000000000000000000000000000000815260040161164490612a35565b60405180910390fd5b611656816118e6565b50565b60006116877f360894a13ba1a3210667c828492db98dca3e2076cc3735a920a3ca505d382bbc60001b611a79565b60000160009054906101000a900473ffffffffffffffffffffffffffffffffffffffff16905090565b6116c467f7cac3fca5afa14060c01b611865565b6116cc611868565b6116e0673f80f60f172edeaf60c01b611865565b6116f467d73e7d5df766119f60c01b611865565b50565b6117237f4910fdfa16fed3260ed0e7147f7cc6da11a60208b5b9406d12a635614ffd914360001b611a83565b60000160009054906101000a900460ff16156117475761174283611a8d565b611860565b8273ffffffffffffffffffffffffffffffffffffffff166352d1902d6040518163ffffffff1660e01b8152600401602060405180830381865afa9250505080156117af57506040513d601f19601f820116820180604052508101906117ac9190612a81565b60015b6117ee576040517f08c379a00000000000000000000000000000000000000000000000000000000081526004016117e590612b20565b60405180910390fd5b7f360894a13ba1a3210667c828492db98dca3e2076cc3735a920a3ca505d382bbc60001b8114611853576040517f08c379a000000000000000000000000000000000000000000000000000000000815260040161184a90612bb2565b60405180910390fd5b5061185f838383611b46565b5b505050565b50565b611870611b72565b73ffffffffffffffffffffffffffffffffffffffff1661188e61137b565b73ffffffffffffffffffffffffffffffffffffffff16146118e4576040517f08c379a00000000000000000000000000000000000000000000000000000000081526004016118db90612c1e565b60405180910390fd5b565b6000603360009054906101000a900473ffffffffffffffffffffffffffffffffffffffff16905081603360006101000a81548173ffffffffffffffffffffffffffffffffffffffff021916908373ffffffffffffffffffffffffffffffffffffffff1602179055508173ffffffffffffffffffffffffffffffffffffffff168173ffffffffffffffffffffffffffffffffffffffff167f8be0079c531659141344cd1fd0a4f28419497f9722a3daafe3b4186f6b6457e060405160405180910390a35050565b6000808273ffffffffffffffffffffffffffffffffffffffff163b119050919050565b600060019054906101000a900460ff16611a1e576040517f08c379a0000000000000000000000000000000000000000000000000000000008152600401611a1590612cb0565b60405180910390fd5b611a26611b7a565b565b600060019054906101000a900460ff16611a77576040517f08c379a0000000000000000000000000000000000000000000000000000000008152600401611a6e90612cb0565b60405180910390fd5b565b6000819050919050565b6000819050919050565b611a96816119ac565b611ad5576040517f08c379a0000000000000000000000000000000000000000000000000000000008152600401611acc90612d42565b60405180910390fd5b80611b027f360894a13ba1a3210667c828492db98dca3e2076cc3735a920a3ca505d382bbc60001b611a79565b60000160006101000a81548173ffffffffffffffffffffffffffffffffffffffff021916908373ffffffffffffffffffffffffffffffffffffffff16021790555050565b611b4f83611bdb565b600082511180611b5c5750805b15611b6d57611b6b8383611c2a565b505b505050565b600033905090565b600060019054906101000a900460ff16611bc9576040517f08c379a0000000000000000000000000000000000000000000000000000000008152600401611bc090612cb0565b60405180910390fd5b611bd9611bd4611b72565b6118e6565b565b611be481611a8d565b8073ffffffffffffffffffffffffffffffffffffffff167fbc7cd75a20ee27fd9adebab32041f755214dbc6bffa90cc0225b39da2e5c2d3b60405160405180910390a250565b6060611c4f8383604051806060016040528060278152602001612e2d60279139611c57565b905092915050565b60606000808573ffffffffffffffffffffffffffffffffffffffff1685604051611c819190612da9565b600060405180830381855af49150503d8060008114611cbc576040519150601f19603f3d011682016040523d82523d6000602084013e611cc1565b606091505b5091509150611cd286838387611cdd565b925050509392505050565b60608315611d3f576000835103611d3757611cf7856119ac565b611d36576040517f08c379a0000000000000000000000000000000000000000000000000000000008152600401611d2d90612e0c565b60405180910390fd5b5b829050611d4a565b611d498383611d52565b5b949350505050565b600082511115611d655781518083602001fd5b806040517f08c379a0000000000000000000000000000000000000000000000000000000008152600401611d9991906122c6565b60405180910390fd5b600073ffffffffffffffffffffffffffffffffffffffff82169050919050565b6000819050919050565b6000611de7611de2611ddd84611da2565b611dc2565b611da2565b9050919050565b6000611df982611dcc565b9050919050565b6000611e0b82611dee565b9050919050565b611e1b81611e00565b82525050565b6000602082019050611e366000830184611e12565b92915050565b6000819050919050565b611e4f81611e3c565b82525050565b6000602082019050611e6a6000830184611e46565b92915050565b6000604051905090565b600080fd5b600080fd5b6000611e8f82611da2565b9050919050565b611e9f81611e84565b8114611eaa57600080fd5b50565b600081359050611ebc81611e96565b92915050565b600060208284031215611ed857611ed7611e7a565b5b6000611ee684828501611ead565b91505092915050565b611ef881611e3c565b8114611f0357600080fd5b50565b600081359050611f1581611eef565b92915050565b600060208284031215611f3157611f30611e7a565b5b6000611f3f84828501611f06565b91505092915050565b611f5181611e84565b82525050565b6000602082019050611f6c6000830184611f48565b92915050565b600080fd5b600080fd5b6000601f19601f8301169050919050565b7f4e487b7100000000000000000000000000000000000000000000000000000000600052604160045260246000fd5b611fc582611f7c565b810181811067ffffffffffffffff82111715611fe457611fe3611f8d565b5b80604052505050565b6000611ff7611e70565b90506120038282611fbc565b919050565b600067ffffffffffffffff82111561202357612022611f8d565b5b61202c82611f7c565b9050602081019050919050565b82818337600083830152505050565b600061205b61205684612008565b611fed565b90508281526020810184848401111561207757612076611f77565b5b612082848285612039565b509392505050565b600082601f83011261209f5761209e611f72565b5b81356120af848260208601612048565b91505092915050565b600080604083850312156120cf576120ce611e7a565b5b60006120dd85828601611ead565b925050602083013567ffffffffffffffff8111156120fe576120fd611e7f565b5b61210a8582860161208a565b9150509250929050565b6000819050919050565b61212781612114565b82525050565b6000602082019050612142600083018461211e565b92915050565b60008115159050919050565b61215d81612148565b82525050565b60006020820190506121786000830184612154565b92915050565b60008060008060008060c0878903121561219b5761219a611e7a565b5b60006121a989828a01611ead565b96505060206121ba89828a01611ead565b95505060406121cb89828a01611f06565b94505060606121dc89828a01611f06565b93505060806121ed89828a01611f06565b92505060a06121fe89828a01611f06565b9150509295509295509295565b600061221682611dee565b9050919050565b6122268161220b565b82525050565b6000602082019050612241600083018461221d565b92915050565b600081519050919050565b600082825260208201905092915050565b60005b83811015612281578082015181840152602081019050612266565b60008484015250505050565b600061229882612247565b6122a28185612252565b93506122b2818560208601612263565b6122bb81611f7c565b840191505092915050565b600060208201905081810360008301526122e0818461228d565b905092915050565b7f46756e6374696f6e206d7573742062652063616c6c6564207468726f7567682060008201527f64656c656761746563616c6c0000000000000000000000000000000000000000602082015250565b6000612344602c83612252565b915061234f826122e8565b604082019050919050565b6000602082019050818103600083015261237381612337565b9050919050565b7f46756e6374696f6e206d7573742062652063616c6c6564207468726f7567682060008201527f6163746976652070726f78790000000000000000000000000000000000000000602082015250565b60006123d6602c83612252565b91506123e18261237a565b604082019050919050565b60006020820190508181036000830152612405816123c9565b9050919050565b7f41756374696f6e2068617320616c726561647920656e64656400000000000000600082015250565b6000612442601983612252565b915061244d8261240c565b602082019050919050565b6000602082019050818103600083015261247181612435565b9050919050565b7f4e487b7100000000000000000000000000000000000000000000000000000000600052601160045260246000fd5b60006124b282611e3c565b91506124bd83611e3c565b92508282039050818111156124d5576124d4612478565b5b92915050565b7f41756374696f6e20456e64656400000000000000000000000000000000000000600082015250565b6000612511600d83612252565b915061251c826124db565b602082019050919050565b6000602082019050818103600083015261254081612504565b9050919050565b600061255282611e3c565b915061255d83611e3c565b925082820261256b81611e3c565b9150828204841483151761258257612581612478565b5b5092915050565b7f5468652062696420616d6f756e742073656e7420697320746f6f206c6f770000600082015250565b60006125bf601e83612252565b91506125ca82612589565b602082019050919050565b600060208201905081810360008301526125ee816125b2565b9050919050565b600060408201905061260a6000830185611f48565b6126176020830184611f48565b9392505050565b60008151905061262d81611eef565b92915050565b60006020828403121561264957612648611e7a565b5b60006126578482850161261e565b91505092915050565b7f42696420616d6f756e742061636365707465642c20627574206269642066616960008201527f6c65642062656361757365206e6f7420656e6f7567682062616c616e6365207460208201527f6f207472616e7366657220657263323020746f6b656e00000000000000000000604082015250565b60006126e2605683612252565b91506126ed82612660565b606082019050919050565b60006020820190508181036000830152612711816126d5565b9050919050565b600060608201905061272d6000830186611f48565b61273a6020830185611f48565b6127476040830184611e46565b949350505050565b61275881612148565b811461276357600080fd5b50565b6000815190506127758161274f565b92915050565b60006020828403121561279157612790611e7a565b5b600061279f84828501612766565b91505092915050565b7f555550535570677261646561626c653a206d757374206e6f742062652063616c60008201527f6c6564207468726f7567682064656c656761746563616c6c0000000000000000602082015250565b6000612804603883612252565b915061280f826127a8565b604082019050919050565b60006020820190508181036000830152612833816127f7565b9050919050565b7f496e697469616c697a61626c653a20636f6e747261637420697320616c72656160008201527f647920696e697469616c697a6564000000000000000000000000000000000000602082015250565b6000612896602e83612252565b91506128a18261283a565b604082019050919050565b600060208201905081810360008301526128c581612889565b9050919050565b60006128d782611e3c565b91506128e283611e3c565b92508282019050808211156128fa576128f9612478565b5b92915050565b6000819050919050565b600060ff82169050919050565b600061293261292d61292884612900565b611dc2565b61290a565b9050919050565b61294281612917565b82525050565b600060208201905061295d6000830184612939565b92915050565b7f4e487b7100000000000000000000000000000000000000000000000000000000600052602260045260246000fd5b600060028204905060018216806129aa57607f821691505b6020821081036129bd576129bc612963565b5b50919050565b7f4f776e61626c653a206e6577206f776e657220697320746865207a65726f206160008201527f6464726573730000000000000000000000000000000000000000000000000000602082015250565b6000612a1f602683612252565b9150612a2a826129c3565b604082019050919050565b60006020820190508181036000830152612a4e81612a12565b9050919050565b612a5e81612114565b8114612a6957600080fd5b50565b600081519050612a7b81612a55565b92915050565b600060208284031215612a9757612a96611e7a565b5b6000612aa584828501612a6c565b91505092915050565b7f45524331393637557067726164653a206e657720696d706c656d656e7461746960008201527f6f6e206973206e6f742055555053000000000000000000000000000000000000602082015250565b6000612b0a602e83612252565b9150612b1582612aae565b604082019050919050565b60006020820190508181036000830152612b3981612afd565b9050919050565b7f45524331393637557067726164653a20756e737570706f727465642070726f7860008201527f6961626c65555549440000000000000000000000000000000000000000000000602082015250565b6000612b9c602983612252565b9150612ba782612b40565b604082019050919050565b60006020820190508181036000830152612bcb81612b8f565b9050919050565b7f4f776e61626c653a2063616c6c6572206973206e6f7420746865206f776e6572600082015250565b6000612c08602083612252565b9150612c1382612bd2565b602082019050919050565b60006020820190508181036000830152612c3781612bfb565b9050919050565b7f496e697469616c697a61626c653a20636f6e7472616374206973206e6f74206960008201527f6e697469616c697a696e67000000000000000000000000000000000000000000602082015250565b6000612c9a602b83612252565b9150612ca582612c3e565b604082019050919050565b60006020820190508181036000830152612cc981612c8d565b9050919050565b7f455243313936373a206e657720696d706c656d656e746174696f6e206973206e60008201527f6f74206120636f6e747261637400000000000000000000000000000000000000602082015250565b6000612d2c602d83612252565b9150612d3782612cd0565b604082019050919050565b60006020820190508181036000830152612d5b81612d1f565b9050919050565b600081519050919050565b600081905092915050565b6000612d8382612d62565b612d8d8185612d6d565b9350612d9d818560208601612263565b80840191505092915050565b6000612db58284612d78565b915081905092915050565b7f416464726573733a2063616c6c20746f206e6f6e2d636f6e7472616374000000600082015250565b6000612df6601d83612252565b9150612e0182612dc0565b602082019050919050565b60006020820190508181036000830152612e2581612de9565b905091905056fe416464726573733a206c6f772d6c6576656c2064656c65676174652063616c6c206661696c6564a264697066735822122045eaf8bd64c427e0eb5aa1f91e98501b17064ecba5ef3b1268eba8841877ed3a64736f6c63430008120033",
  "linkReferences": {},
  "deployedLinkReferences": {}
}